{
	"smart-contract/transactions_and_ERC20_Interface.sol": {
		"Marketplace": {
			"abi": [
				{
					"inputs": [
						{
							"internalType": "uint256",
							"name": "_index",
							"type": "uint256"
						}
					],
					"name": "buyProduct",
					"outputs": [],
					"stateMutability": "payable",
					"type": "function"
				},
				{
					"inputs": [],
					"name": "getProductLength",
					"outputs": [
						{
							"internalType": "uint256",
							"name": "",
							"type": "uint256"
						}
					],
					"stateMutability": "view",
					"type": "function"
				},
				{
					"inputs": [
						{
							"internalType": "string",
							"name": "_name",
							"type": "string"
						},
						{
							"internalType": "string",
							"name": "_image",
							"type": "string"
						},
						{
							"internalType": "string",
							"name": "_description",
							"type": "string"
						},
						{
							"internalType": "string",
							"name": "_location",
							"type": "string"
						},
						{
							"internalType": "uint256",
							"name": "_price",
							"type": "uint256"
						}
					],
					"name": "writeProduct",
					"outputs": [],
					"stateMutability": "nonpayable",
					"type": "function"
				}
			],
			"devdoc": {
				"kind": "dev",
				"methods": {},
				"version": 1
			},
			"evm": {
				"assembly": "    /* \"smart-contract/transactions_and_ERC20_Interface.sol\":661:2126  contract Marketplace{... */\n  mstore(0x40, 0x80)\n    /* \"smart-contract/transactions_and_ERC20_Interface.sol\":719:720  0 */\n  0x00\n    /* \"smart-contract/transactions_and_ERC20_Interface.sol\":688:720  uint internal productsLength = 0 */\n  dup1\n  sstore\n    /* \"smart-contract/transactions_and_ERC20_Interface.sol\":762:804  0xe8B6e6589697fBE845A1ed302DeE7F92f9c35C98 */\n  0xe8b6e6589697fbe845a1ed302dee7f92f9c35c98\n    /* \"smart-contract/transactions_and_ERC20_Interface.sol\":726:804  address internal cUsdTokenAddress = 0xe8B6e6589697fBE845A1ed302DeE7F92f9c35C98 */\n  0x01\n  exp(0x0100, 0x00)\n  dup2\n  sload\n  dup2\n  0xffffffffffffffffffffffffffffffffffffffff\n  mul\n  not\n  and\n  swap1\n  dup4\n  0xffffffffffffffffffffffffffffffffffffffff\n  and\n  mul\n  or\n  swap1\n  sstore\n  pop\n    /* \"smart-contract/transactions_and_ERC20_Interface.sol\":661:2126  contract Marketplace{... */\n  callvalue\n  dup1\n  iszero\n  tag_1\n  jumpi\n  0x00\n  dup1\n  revert\ntag_1:\n  pop\n  dataSize(sub_0)\n  dup1\n  dataOffset(sub_0)\n  0x00\n  codecopy\n  0x00\n  return\nstop\n\nsub_0: assembly {\n        /* \"smart-contract/transactions_and_ERC20_Interface.sol\":661:2126  contract Marketplace{... */\n      mstore(0x40, 0x80)\n      jumpi(tag_1, lt(calldatasize, 0x04))\n      shr(0xe0, calldataload(0x00))\n      dup1\n      0x8642269e\n      eq\n      tag_2\n      jumpi\n      dup1\n      0x8da8f27b\n      eq\n      tag_3\n      jumpi\n      dup1\n      0xf2d61819\n      eq\n      tag_4\n      jumpi\n    tag_1:\n      0x00\n      dup1\n      revert\n        /* \"smart-contract/transactions_and_ERC20_Interface.sol\":1624:1916  function buyProduct(uint _index) public payable {... */\n    tag_2:\n      tag_5\n      0x04\n      dup1\n      calldatasize\n      sub\n      dup2\n      add\n      swap1\n      tag_6\n      swap2\n      swap1\n      tag_7\n      jump\t// in\n    tag_6:\n      tag_8\n      jump\t// in\n    tag_5:\n      stop\n        /* \"smart-contract/transactions_and_ERC20_Interface.sol\":1103:1558  function writeProduct(... */\n    tag_3:\n      callvalue\n      dup1\n      iszero\n      tag_9\n      jumpi\n      0x00\n      dup1\n      revert\n    tag_9:\n      pop\n      tag_10\n      0x04\n      dup1\n      calldatasize\n      sub\n      dup2\n      add\n      swap1\n      tag_11\n      swap2\n      swap1\n      tag_12\n      jump\t// in\n    tag_11:\n      tag_13\n      jump\t// in\n    tag_10:\n      stop\n        /* \"smart-contract/transactions_and_ERC20_Interface.sol\":2029:2124  function getProductLength() public view returns (uint) {... */\n    tag_4:\n      callvalue\n      dup1\n      iszero\n      tag_14\n      jumpi\n      0x00\n      dup1\n      revert\n    tag_14:\n      pop\n      tag_15\n      tag_16\n      jump\t// in\n    tag_15:\n      mload(0x40)\n      tag_17\n      swap2\n      swap1\n      tag_18\n      jump\t// in\n    tag_17:\n      mload(0x40)\n      dup1\n      swap2\n      sub\n      swap1\n      return\n        /* \"smart-contract/transactions_and_ERC20_Interface.sol\":1624:1916  function buyProduct(uint _index) public payable {... */\n    tag_8:\n        /* \"smart-contract/transactions_and_ERC20_Interface.sol\":1715:1731  cUsdTokenAddress */\n      0x01\n      0x00\n      swap1\n      sload\n      swap1\n      0x0100\n      exp\n      swap1\n      div\n      0xffffffffffffffffffffffffffffffffffffffff\n      and\n        /* \"smart-contract/transactions_and_ERC20_Interface.sol\":1703:1745  IERC20Token(cUsdTokenAddress).transferFrom */\n      0xffffffffffffffffffffffffffffffffffffffff\n      and\n      0x23b872dd\n        /* \"smart-contract/transactions_and_ERC20_Interface.sol\":1763:1773  msg.sender */\n      caller\n        /* \"smart-contract/transactions_and_ERC20_Interface.sol\":1791:1799  products */\n      0x02\n        /* \"smart-contract/transactions_and_ERC20_Interface.sol\":1791:1807  products[_index] */\n      0x00\n        /* \"smart-contract/transactions_and_ERC20_Interface.sol\":1800:1806  _index */\n      dup6\n        /* \"smart-contract/transactions_and_ERC20_Interface.sol\":1791:1807  products[_index] */\n      dup2\n      mstore\n      0x20\n      add\n      swap1\n      dup2\n      mstore\n      0x20\n      add\n      0x00\n      keccak256\n        /* \"smart-contract/transactions_and_ERC20_Interface.sol\":1791:1813  products[_index].owner */\n      0x00\n      add\n      0x00\n      swap1\n      sload\n      swap1\n      0x0100\n      exp\n      swap1\n      div\n      0xffffffffffffffffffffffffffffffffffffffff\n      and\n        /* \"smart-contract/transactions_and_ERC20_Interface.sol\":1831:1839  products */\n      0x02\n        /* \"smart-contract/transactions_and_ERC20_Interface.sol\":1831:1847  products[_index] */\n      0x00\n        /* \"smart-contract/transactions_and_ERC20_Interface.sol\":1840:1846  _index */\n      dup7\n        /* \"smart-contract/transactions_and_ERC20_Interface.sol\":1831:1847  products[_index] */\n      dup2\n      mstore\n      0x20\n      add\n      swap1\n      dup2\n      mstore\n      0x20\n      add\n      0x00\n      keccak256\n        /* \"smart-contract/transactions_and_ERC20_Interface.sol\":1831:1853  products[_index].price */\n      0x05\n      add\n      sload\n        /* \"smart-contract/transactions_and_ERC20_Interface.sol\":1703:1867  IERC20Token(cUsdTokenAddress).transferFrom(... */\n      mload(0x40)\n      dup5\n      0xffffffff\n      and\n      0xe0\n      shl\n      dup2\n      mstore\n      0x04\n      add\n      tag_20\n      swap4\n      swap3\n      swap2\n      swap1\n      tag_21\n      jump\t// in\n    tag_20:\n      0x20\n      mload(0x40)\n      dup1\n      dup4\n      sub\n      dup2\n      0x00\n      dup8\n      gas\n      call\n      iszero\n      dup1\n      iszero\n      tag_23\n      jumpi\n      returndatasize\n      0x00\n      dup1\n      returndatacopy\n      revert(0x00, returndatasize)\n    tag_23:\n      pop\n      pop\n      pop\n      pop\n      mload(0x40)\n      returndatasize\n      not(0x1f)\n      0x1f\n      dup3\n      add\n      and\n      dup3\n      add\n      dup1\n      0x40\n      mstore\n      pop\n      dup2\n      add\n      swap1\n      tag_24\n      swap2\n      swap1\n      tag_25\n      jump\t// in\n    tag_24:\n        /* \"smart-contract/transactions_and_ERC20_Interface.sol\":1682:1909  require(... */\n      tag_26\n      jumpi\n      mload(0x40)\n      0x08c379a000000000000000000000000000000000000000000000000000000000\n      dup2\n      mstore\n      0x04\n      add\n      tag_27\n      swap1\n      tag_28\n      jump\t// in\n    tag_27:\n      mload(0x40)\n      dup1\n      swap2\n      sub\n      swap1\n      revert\n    tag_26:\n        /* \"smart-contract/transactions_and_ERC20_Interface.sol\":1624:1916  function buyProduct(uint _index) public payable {... */\n      pop\n      jump\t// out\n        /* \"smart-contract/transactions_and_ERC20_Interface.sol\":1103:1558  function writeProduct(... */\n    tag_13:\n        /* \"smart-contract/transactions_and_ERC20_Interface.sol\":1297:1307  uint _sold */\n      0x00\n        /* \"smart-contract/transactions_and_ERC20_Interface.sol\":1348:1525  Product(... */\n      mload(0x40)\n      dup1\n      0xe0\n      add\n      0x40\n      mstore\n      dup1\n        /* \"smart-contract/transactions_and_ERC20_Interface.sol\":1377:1387  msg.sender */\n      caller\n        /* \"smart-contract/transactions_and_ERC20_Interface.sol\":1348:1525  Product(... */\n      0xffffffffffffffffffffffffffffffffffffffff\n      and\n      dup2\n      mstore\n      0x20\n      add\n        /* \"smart-contract/transactions_and_ERC20_Interface.sol\":1402:1407  _name */\n      dup8\n        /* \"smart-contract/transactions_and_ERC20_Interface.sol\":1348:1525  Product(... */\n      dup2\n      mstore\n      0x20\n      add\n        /* \"smart-contract/transactions_and_ERC20_Interface.sol\":1421:1427  _image */\n      dup7\n        /* \"smart-contract/transactions_and_ERC20_Interface.sol\":1348:1525  Product(... */\n      dup2\n      mstore\n      0x20\n      add\n        /* \"smart-contract/transactions_and_ERC20_Interface.sol\":1441:1453  _description */\n      dup6\n        /* \"smart-contract/transactions_and_ERC20_Interface.sol\":1348:1525  Product(... */\n      dup2\n      mstore\n      0x20\n      add\n        /* \"smart-contract/transactions_and_ERC20_Interface.sol\":1467:1476  _location */\n      dup5\n        /* \"smart-contract/transactions_and_ERC20_Interface.sol\":1348:1525  Product(... */\n      dup2\n      mstore\n      0x20\n      add\n        /* \"smart-contract/transactions_and_ERC20_Interface.sol\":1490:1496  _price */\n      dup4\n        /* \"smart-contract/transactions_and_ERC20_Interface.sol\":1348:1525  Product(... */\n      dup2\n      mstore\n      0x20\n      add\n        /* \"smart-contract/transactions_and_ERC20_Interface.sol\":1510:1515  _sold */\n      dup3\n        /* \"smart-contract/transactions_and_ERC20_Interface.sol\":1348:1525  Product(... */\n      dup2\n      mstore\n      pop\n        /* \"smart-contract/transactions_and_ERC20_Interface.sol\":1321:1329  products */\n      0x02\n        /* \"smart-contract/transactions_and_ERC20_Interface.sol\":1321:1345  products[productsLength] */\n      0x00\n        /* \"smart-contract/transactions_and_ERC20_Interface.sol\":1330:1344  productsLength */\n      dup1\n      sload\n        /* \"smart-contract/transactions_and_ERC20_Interface.sol\":1321:1345  products[productsLength] */\n      dup2\n      mstore\n      0x20\n      add\n      swap1\n      dup2\n      mstore\n      0x20\n      add\n      0x00\n      keccak256\n        /* \"smart-contract/transactions_and_ERC20_Interface.sol\":1321:1525  products[productsLength] = Product(... */\n      0x00\n      dup3\n      add\n      mload\n      dup2\n      0x00\n      add\n      exp(0x0100, 0x00)\n      dup2\n      sload\n      dup2\n      0xffffffffffffffffffffffffffffffffffffffff\n      mul\n      not\n      and\n      swap1\n      dup4\n      0xffffffffffffffffffffffffffffffffffffffff\n      and\n      mul\n      or\n      swap1\n      sstore\n      pop\n      0x20\n      dup3\n      add\n      mload\n      dup2\n      0x01\n      add\n      swap1\n      dup2\n      tag_30\n      swap2\n      swap1\n      tag_31\n      jump\t// in\n    tag_30:\n      pop\n      0x40\n      dup3\n      add\n      mload\n      dup2\n      0x02\n      add\n      swap1\n      dup2\n      tag_32\n      swap2\n      swap1\n      tag_31\n      jump\t// in\n    tag_32:\n      pop\n      0x60\n      dup3\n      add\n      mload\n      dup2\n      0x03\n      add\n      swap1\n      dup2\n      tag_33\n      swap2\n      swap1\n      tag_31\n      jump\t// in\n    tag_33:\n      pop\n      0x80\n      dup3\n      add\n      mload\n      dup2\n      0x04\n      add\n      swap1\n      dup2\n      tag_34\n      swap2\n      swap1\n      tag_31\n      jump\t// in\n    tag_34:\n      pop\n      0xa0\n      dup3\n      add\n      mload\n      dup2\n      0x05\n      add\n      sstore\n      0xc0\n      dup3\n      add\n      mload\n      dup2\n      0x06\n      add\n      sstore\n      swap1\n      pop\n      pop\n        /* \"smart-contract/transactions_and_ERC20_Interface.sol\":1535:1549  productsLength */\n      0x00\n      dup1\n        /* \"smart-contract/transactions_and_ERC20_Interface.sol\":1535:1551  productsLength++ */\n      dup2\n      sload\n      dup1\n      swap3\n      swap2\n      swap1\n      tag_35\n      swap1\n      tag_36\n      jump\t// in\n    tag_35:\n      swap2\n      swap1\n      pop\n      sstore\n      pop\n        /* \"smart-contract/transactions_and_ERC20_Interface.sol\":1287:1558  {... */\n      pop\n        /* \"smart-contract/transactions_and_ERC20_Interface.sol\":1103:1558  function writeProduct(... */\n      pop\n      pop\n      pop\n      pop\n      pop\n      jump\t// out\n        /* \"smart-contract/transactions_and_ERC20_Interface.sol\":2029:2124  function getProductLength() public view returns (uint) {... */\n    tag_16:\n        /* \"smart-contract/transactions_and_ERC20_Interface.sol\":2078:2082  uint */\n      0x00\n        /* \"smart-contract/transactions_and_ERC20_Interface.sol\":2102:2116  productsLength */\n      dup1\n      sload\n        /* \"smart-contract/transactions_and_ERC20_Interface.sol\":2094:2117  return (productsLength) */\n      swap1\n      pop\n        /* \"smart-contract/transactions_and_ERC20_Interface.sol\":2029:2124  function getProductLength() public view returns (uint) {... */\n      swap1\n      jump\t// out\n        /* \"#utility.yul\":7:82   */\n    tag_38:\n        /* \"#utility.yul\":40:46   */\n      0x00\n        /* \"#utility.yul\":73:75   */\n      0x40\n        /* \"#utility.yul\":67:76   */\n      mload\n        /* \"#utility.yul\":57:76   */\n      swap1\n      pop\n        /* \"#utility.yul\":7:82   */\n      swap1\n      jump\t// out\n        /* \"#utility.yul\":88:205   */\n    tag_39:\n        /* \"#utility.yul\":197:198   */\n      0x00\n        /* \"#utility.yul\":194:195   */\n      dup1\n        /* \"#utility.yul\":187:199   */\n      revert\n        /* \"#utility.yul\":211:328   */\n    tag_40:\n        /* \"#utility.yul\":320:321   */\n      0x00\n        /* \"#utility.yul\":317:318   */\n      dup1\n        /* \"#utility.yul\":310:322   */\n      revert\n        /* \"#utility.yul\":334:411   */\n    tag_41:\n        /* \"#utility.yul\":371:378   */\n      0x00\n        /* \"#utility.yul\":400:405   */\n      dup2\n        /* \"#utility.yul\":389:405   */\n      swap1\n      pop\n        /* \"#utility.yul\":334:411   */\n      swap2\n      swap1\n      pop\n      jump\t// out\n        /* \"#utility.yul\":417:539   */\n    tag_42:\n        /* \"#utility.yul\":490:514   */\n      tag_93\n        /* \"#utility.yul\":508:513   */\n      dup2\n        /* \"#utility.yul\":490:514   */\n      tag_41\n      jump\t// in\n    tag_93:\n        /* \"#utility.yul\":483:488   */\n      dup2\n        /* \"#utility.yul\":480:515   */\n      eq\n        /* \"#utility.yul\":470:533   */\n      tag_94\n      jumpi\n        /* \"#utility.yul\":529:530   */\n      0x00\n        /* \"#utility.yul\":526:527   */\n      dup1\n        /* \"#utility.yul\":519:531   */\n      revert\n        /* \"#utility.yul\":470:533   */\n    tag_94:\n        /* \"#utility.yul\":417:539   */\n      pop\n      jump\t// out\n        /* \"#utility.yul\":545:684   */\n    tag_43:\n        /* \"#utility.yul\":591:596   */\n      0x00\n        /* \"#utility.yul\":629:635   */\n      dup2\n        /* \"#utility.yul\":616:636   */\n      calldataload\n        /* \"#utility.yul\":607:636   */\n      swap1\n      pop\n        /* \"#utility.yul\":645:678   */\n      tag_96\n        /* \"#utility.yul\":672:677   */\n      dup2\n        /* \"#utility.yul\":645:678   */\n      tag_42\n      jump\t// in\n    tag_96:\n        /* \"#utility.yul\":545:684   */\n      swap3\n      swap2\n      pop\n      pop\n      jump\t// out\n        /* \"#utility.yul\":690:1019   */\n    tag_7:\n        /* \"#utility.yul\":749:755   */\n      0x00\n        /* \"#utility.yul\":798:800   */\n      0x20\n        /* \"#utility.yul\":786:795   */\n      dup3\n        /* \"#utility.yul\":777:784   */\n      dup5\n        /* \"#utility.yul\":773:796   */\n      sub\n        /* \"#utility.yul\":769:801   */\n      slt\n        /* \"#utility.yul\":766:885   */\n      iszero\n      tag_98\n      jumpi\n        /* \"#utility.yul\":804:883   */\n      tag_99\n      tag_39\n      jump\t// in\n    tag_99:\n        /* \"#utility.yul\":766:885   */\n    tag_98:\n        /* \"#utility.yul\":924:925   */\n      0x00\n        /* \"#utility.yul\":949:1002   */\n      tag_100\n        /* \"#utility.yul\":994:1001   */\n      dup5\n        /* \"#utility.yul\":985:991   */\n      dup3\n        /* \"#utility.yul\":974:983   */\n      dup6\n        /* \"#utility.yul\":970:992   */\n      add\n        /* \"#utility.yul\":949:1002   */\n      tag_43\n      jump\t// in\n    tag_100:\n        /* \"#utility.yul\":939:1002   */\n      swap2\n      pop\n        /* \"#utility.yul\":895:1012   */\n      pop\n        /* \"#utility.yul\":690:1019   */\n      swap3\n      swap2\n      pop\n      pop\n      jump\t// out\n        /* \"#utility.yul\":1025:1142   */\n    tag_44:\n        /* \"#utility.yul\":1134:1135   */\n      0x00\n        /* \"#utility.yul\":1131:1132   */\n      dup1\n        /* \"#utility.yul\":1124:1136   */\n      revert\n        /* \"#utility.yul\":1148:1265   */\n    tag_45:\n        /* \"#utility.yul\":1257:1258   */\n      0x00\n        /* \"#utility.yul\":1254:1255   */\n      dup1\n        /* \"#utility.yul\":1247:1259   */\n      revert\n        /* \"#utility.yul\":1271:1373   */\n    tag_46:\n        /* \"#utility.yul\":1312:1318   */\n      0x00\n        /* \"#utility.yul\":1363:1365   */\n      0x1f\n        /* \"#utility.yul\":1359:1366   */\n      not\n        /* \"#utility.yul\":1354:1356   */\n      0x1f\n        /* \"#utility.yul\":1347:1352   */\n      dup4\n        /* \"#utility.yul\":1343:1357   */\n      add\n        /* \"#utility.yul\":1339:1367   */\n      and\n        /* \"#utility.yul\":1329:1367   */\n      swap1\n      pop\n        /* \"#utility.yul\":1271:1373   */\n      swap2\n      swap1\n      pop\n      jump\t// out\n        /* \"#utility.yul\":1379:1559   */\n    tag_47:\n        /* \"#utility.yul\":1427:1504   */\n      0x4e487b7100000000000000000000000000000000000000000000000000000000\n        /* \"#utility.yul\":1424:1425   */\n      0x00\n        /* \"#utility.yul\":1417:1505   */\n      mstore\n        /* \"#utility.yul\":1524:1528   */\n      0x41\n        /* \"#utility.yul\":1521:1522   */\n      0x04\n        /* \"#utility.yul\":1514:1529   */\n      mstore\n        /* \"#utility.yul\":1548:1552   */\n      0x24\n        /* \"#utility.yul\":1545:1546   */\n      0x00\n        /* \"#utility.yul\":1538:1553   */\n      revert\n        /* \"#utility.yul\":1565:1846   */\n    tag_48:\n        /* \"#utility.yul\":1648:1675   */\n      tag_106\n        /* \"#utility.yul\":1670:1674   */\n      dup3\n        /* \"#utility.yul\":1648:1675   */\n      tag_46\n      jump\t// in\n    tag_106:\n        /* \"#utility.yul\":1640:1646   */\n      dup2\n        /* \"#utility.yul\":1636:1676   */\n      add\n        /* \"#utility.yul\":1778:1784   */\n      dup2\n        /* \"#utility.yul\":1766:1776   */\n      dup2\n        /* \"#utility.yul\":1763:1785   */\n      lt\n        /* \"#utility.yul\":1742:1760   */\n      0xffffffffffffffff\n        /* \"#utility.yul\":1730:1740   */\n      dup3\n        /* \"#utility.yul\":1727:1761   */\n      gt\n        /* \"#utility.yul\":1724:1786   */\n      or\n        /* \"#utility.yul\":1721:1809   */\n      iszero\n      tag_107\n      jumpi\n        /* \"#utility.yul\":1789:1807   */\n      tag_108\n      tag_47\n      jump\t// in\n    tag_108:\n        /* \"#utility.yul\":1721:1809   */\n    tag_107:\n        /* \"#utility.yul\":1829:1839   */\n      dup1\n        /* \"#utility.yul\":1825:1827   */\n      0x40\n        /* \"#utility.yul\":1818:1840   */\n      mstore\n        /* \"#utility.yul\":1608:1846   */\n      pop\n        /* \"#utility.yul\":1565:1846   */\n      pop\n      pop\n      jump\t// out\n        /* \"#utility.yul\":1852:1981   */\n    tag_49:\n        /* \"#utility.yul\":1886:1892   */\n      0x00\n        /* \"#utility.yul\":1913:1933   */\n      tag_110\n      tag_38\n      jump\t// in\n    tag_110:\n        /* \"#utility.yul\":1903:1933   */\n      swap1\n      pop\n        /* \"#utility.yul\":1942:1975   */\n      tag_111\n        /* \"#utility.yul\":1970:1974   */\n      dup3\n        /* \"#utility.yul\":1962:1968   */\n      dup3\n        /* \"#utility.yul\":1942:1975   */\n      tag_48\n      jump\t// in\n    tag_111:\n        /* \"#utility.yul\":1852:1981   */\n      swap2\n      swap1\n      pop\n      jump\t// out\n        /* \"#utility.yul\":1987:2295   */\n    tag_50:\n        /* \"#utility.yul\":2049:2053   */\n      0x00\n        /* \"#utility.yul\":2139:2157   */\n      0xffffffffffffffff\n        /* \"#utility.yul\":2131:2137   */\n      dup3\n        /* \"#utility.yul\":2128:2158   */\n      gt\n        /* \"#utility.yul\":2125:2181   */\n      iszero\n      tag_113\n      jumpi\n        /* \"#utility.yul\":2161:2179   */\n      tag_114\n      tag_47\n      jump\t// in\n    tag_114:\n        /* \"#utility.yul\":2125:2181   */\n    tag_113:\n        /* \"#utility.yul\":2199:2228   */\n      tag_115\n        /* \"#utility.yul\":2221:2227   */\n      dup3\n        /* \"#utility.yul\":2199:2228   */\n      tag_46\n      jump\t// in\n    tag_115:\n        /* \"#utility.yul\":2191:2228   */\n      swap1\n      pop\n        /* \"#utility.yul\":2283:2287   */\n      0x20\n        /* \"#utility.yul\":2277:2281   */\n      dup2\n        /* \"#utility.yul\":2273:2288   */\n      add\n        /* \"#utility.yul\":2265:2288   */\n      swap1\n      pop\n        /* \"#utility.yul\":1987:2295   */\n      swap2\n      swap1\n      pop\n      jump\t// out\n        /* \"#utility.yul\":2301:2447   */\n    tag_51:\n        /* \"#utility.yul\":2398:2404   */\n      dup3\n        /* \"#utility.yul\":2393:2396   */\n      dup2\n        /* \"#utility.yul\":2388:2391   */\n      dup4\n        /* \"#utility.yul\":2375:2405   */\n      calldatacopy\n        /* \"#utility.yul\":2439:2440   */\n      0x00\n        /* \"#utility.yul\":2430:2436   */\n      dup4\n        /* \"#utility.yul\":2425:2428   */\n      dup4\n        /* \"#utility.yul\":2421:2437   */\n      add\n        /* \"#utility.yul\":2414:2441   */\n      mstore\n        /* \"#utility.yul\":2301:2447   */\n      pop\n      pop\n      pop\n      jump\t// out\n        /* \"#utility.yul\":2453:2878   */\n    tag_52:\n        /* \"#utility.yul\":2531:2536   */\n      0x00\n        /* \"#utility.yul\":2556:2622   */\n      tag_118\n        /* \"#utility.yul\":2572:2621   */\n      tag_119\n        /* \"#utility.yul\":2614:2620   */\n      dup5\n        /* \"#utility.yul\":2572:2621   */\n      tag_50\n      jump\t// in\n    tag_119:\n        /* \"#utility.yul\":2556:2622   */\n      tag_49\n      jump\t// in\n    tag_118:\n        /* \"#utility.yul\":2547:2622   */\n      swap1\n      pop\n        /* \"#utility.yul\":2645:2651   */\n      dup3\n        /* \"#utility.yul\":2638:2643   */\n      dup2\n        /* \"#utility.yul\":2631:2652   */\n      mstore\n        /* \"#utility.yul\":2683:2687   */\n      0x20\n        /* \"#utility.yul\":2676:2681   */\n      dup2\n        /* \"#utility.yul\":2672:2688   */\n      add\n        /* \"#utility.yul\":2721:2724   */\n      dup5\n        /* \"#utility.yul\":2712:2718   */\n      dup5\n        /* \"#utility.yul\":2707:2710   */\n      dup5\n        /* \"#utility.yul\":2703:2719   */\n      add\n        /* \"#utility.yul\":2700:2725   */\n      gt\n        /* \"#utility.yul\":2697:2809   */\n      iszero\n      tag_120\n      jumpi\n        /* \"#utility.yul\":2728:2807   */\n      tag_121\n      tag_45\n      jump\t// in\n    tag_121:\n        /* \"#utility.yul\":2697:2809   */\n    tag_120:\n        /* \"#utility.yul\":2818:2872   */\n      tag_122\n        /* \"#utility.yul\":2865:2871   */\n      dup5\n        /* \"#utility.yul\":2860:2863   */\n      dup3\n        /* \"#utility.yul\":2855:2858   */\n      dup6\n        /* \"#utility.yul\":2818:2872   */\n      tag_51\n      jump\t// in\n    tag_122:\n        /* \"#utility.yul\":2537:2878   */\n      pop\n        /* \"#utility.yul\":2453:2878   */\n      swap4\n      swap3\n      pop\n      pop\n      pop\n      jump\t// out\n        /* \"#utility.yul\":2898:3238   */\n    tag_53:\n        /* \"#utility.yul\":2954:2959   */\n      0x00\n        /* \"#utility.yul\":3003:3006   */\n      dup3\n        /* \"#utility.yul\":2996:3000   */\n      0x1f\n        /* \"#utility.yul\":2988:2994   */\n      dup4\n        /* \"#utility.yul\":2984:3001   */\n      add\n        /* \"#utility.yul\":2980:3007   */\n      slt\n        /* \"#utility.yul\":2970:3092   */\n      tag_124\n      jumpi\n        /* \"#utility.yul\":3011:3090   */\n      tag_125\n      tag_44\n      jump\t// in\n    tag_125:\n        /* \"#utility.yul\":2970:3092   */\n    tag_124:\n        /* \"#utility.yul\":3128:3134   */\n      dup2\n        /* \"#utility.yul\":3115:3135   */\n      calldataload\n        /* \"#utility.yul\":3153:3232   */\n      tag_126\n        /* \"#utility.yul\":3228:3231   */\n      dup5\n        /* \"#utility.yul\":3220:3226   */\n      dup3\n        /* \"#utility.yul\":3213:3217   */\n      0x20\n        /* \"#utility.yul\":3205:3211   */\n      dup7\n        /* \"#utility.yul\":3201:3218   */\n      add\n        /* \"#utility.yul\":3153:3232   */\n      tag_52\n      jump\t// in\n    tag_126:\n        /* \"#utility.yul\":3144:3232   */\n      swap2\n      pop\n        /* \"#utility.yul\":2960:3238   */\n      pop\n        /* \"#utility.yul\":2898:3238   */\n      swap3\n      swap2\n      pop\n      pop\n      jump\t// out\n        /* \"#utility.yul\":3244:4875   */\n    tag_12:\n        /* \"#utility.yul\":3379:3385   */\n      0x00\n        /* \"#utility.yul\":3387:3393   */\n      dup1\n        /* \"#utility.yul\":3395:3401   */\n      0x00\n        /* \"#utility.yul\":3403:3409   */\n      dup1\n        /* \"#utility.yul\":3411:3417   */\n      0x00\n        /* \"#utility.yul\":3460:3463   */\n      0xa0\n        /* \"#utility.yul\":3448:3457   */\n      dup7\n        /* \"#utility.yul\":3439:3446   */\n      dup9\n        /* \"#utility.yul\":3435:3458   */\n      sub\n        /* \"#utility.yul\":3431:3464   */\n      slt\n        /* \"#utility.yul\":3428:3548   */\n      iszero\n      tag_128\n      jumpi\n        /* \"#utility.yul\":3467:3546   */\n      tag_129\n      tag_39\n      jump\t// in\n    tag_129:\n        /* \"#utility.yul\":3428:3548   */\n    tag_128:\n        /* \"#utility.yul\":3615:3616   */\n      0x00\n        /* \"#utility.yul\":3604:3613   */\n      dup7\n        /* \"#utility.yul\":3600:3617   */\n      add\n        /* \"#utility.yul\":3587:3618   */\n      calldataload\n        /* \"#utility.yul\":3645:3663   */\n      0xffffffffffffffff\n        /* \"#utility.yul\":3637:3643   */\n      dup2\n        /* \"#utility.yul\":3634:3664   */\n      gt\n        /* \"#utility.yul\":3631:3748   */\n      iszero\n      tag_130\n      jumpi\n        /* \"#utility.yul\":3667:3746   */\n      tag_131\n      tag_40\n      jump\t// in\n    tag_131:\n        /* \"#utility.yul\":3631:3748   */\n    tag_130:\n        /* \"#utility.yul\":3772:3835   */\n      tag_132\n        /* \"#utility.yul\":3827:3834   */\n      dup9\n        /* \"#utility.yul\":3818:3824   */\n      dup3\n        /* \"#utility.yul\":3807:3816   */\n      dup10\n        /* \"#utility.yul\":3803:3825   */\n      add\n        /* \"#utility.yul\":3772:3835   */\n      tag_53\n      jump\t// in\n    tag_132:\n        /* \"#utility.yul\":3762:3835   */\n      swap6\n      pop\n        /* \"#utility.yul\":3558:3845   */\n      pop\n        /* \"#utility.yul\":3912:3914   */\n      0x20\n        /* \"#utility.yul\":3901:3910   */\n      dup7\n        /* \"#utility.yul\":3897:3915   */\n      add\n        /* \"#utility.yul\":3884:3916   */\n      calldataload\n        /* \"#utility.yul\":3943:3961   */\n      0xffffffffffffffff\n        /* \"#utility.yul\":3935:3941   */\n      dup2\n        /* \"#utility.yul\":3932:3962   */\n      gt\n        /* \"#utility.yul\":3929:4046   */\n      iszero\n      tag_133\n      jumpi\n        /* \"#utility.yul\":3965:4044   */\n      tag_134\n      tag_40\n      jump\t// in\n    tag_134:\n        /* \"#utility.yul\":3929:4046   */\n    tag_133:\n        /* \"#utility.yul\":4070:4133   */\n      tag_135\n        /* \"#utility.yul\":4125:4132   */\n      dup9\n        /* \"#utility.yul\":4116:4122   */\n      dup3\n        /* \"#utility.yul\":4105:4114   */\n      dup10\n        /* \"#utility.yul\":4101:4123   */\n      add\n        /* \"#utility.yul\":4070:4133   */\n      tag_53\n      jump\t// in\n    tag_135:\n        /* \"#utility.yul\":4060:4133   */\n      swap5\n      pop\n        /* \"#utility.yul\":3855:4143   */\n      pop\n        /* \"#utility.yul\":4210:4212   */\n      0x40\n        /* \"#utility.yul\":4199:4208   */\n      dup7\n        /* \"#utility.yul\":4195:4213   */\n      add\n        /* \"#utility.yul\":4182:4214   */\n      calldataload\n        /* \"#utility.yul\":4241:4259   */\n      0xffffffffffffffff\n        /* \"#utility.yul\":4233:4239   */\n      dup2\n        /* \"#utility.yul\":4230:4260   */\n      gt\n        /* \"#utility.yul\":4227:4344   */\n      iszero\n      tag_136\n      jumpi\n        /* \"#utility.yul\":4263:4342   */\n      tag_137\n      tag_40\n      jump\t// in\n    tag_137:\n        /* \"#utility.yul\":4227:4344   */\n    tag_136:\n        /* \"#utility.yul\":4368:4431   */\n      tag_138\n        /* \"#utility.yul\":4423:4430   */\n      dup9\n        /* \"#utility.yul\":4414:4420   */\n      dup3\n        /* \"#utility.yul\":4403:4412   */\n      dup10\n        /* \"#utility.yul\":4399:4421   */\n      add\n        /* \"#utility.yul\":4368:4431   */\n      tag_53\n      jump\t// in\n    tag_138:\n        /* \"#utility.yul\":4358:4431   */\n      swap4\n      pop\n        /* \"#utility.yul\":4153:4441   */\n      pop\n        /* \"#utility.yul\":4508:4510   */\n      0x60\n        /* \"#utility.yul\":4497:4506   */\n      dup7\n        /* \"#utility.yul\":4493:4511   */\n      add\n        /* \"#utility.yul\":4480:4512   */\n      calldataload\n        /* \"#utility.yul\":4539:4557   */\n      0xffffffffffffffff\n        /* \"#utility.yul\":4531:4537   */\n      dup2\n        /* \"#utility.yul\":4528:4558   */\n      gt\n        /* \"#utility.yul\":4525:4642   */\n      iszero\n      tag_139\n      jumpi\n        /* \"#utility.yul\":4561:4640   */\n      tag_140\n      tag_40\n      jump\t// in\n    tag_140:\n        /* \"#utility.yul\":4525:4642   */\n    tag_139:\n        /* \"#utility.yul\":4666:4729   */\n      tag_141\n        /* \"#utility.yul\":4721:4728   */\n      dup9\n        /* \"#utility.yul\":4712:4718   */\n      dup3\n        /* \"#utility.yul\":4701:4710   */\n      dup10\n        /* \"#utility.yul\":4697:4719   */\n      add\n        /* \"#utility.yul\":4666:4729   */\n      tag_53\n      jump\t// in\n    tag_141:\n        /* \"#utility.yul\":4656:4729   */\n      swap3\n      pop\n        /* \"#utility.yul\":4451:4739   */\n      pop\n        /* \"#utility.yul\":4778:4781   */\n      0x80\n        /* \"#utility.yul\":4805:4858   */\n      tag_142\n        /* \"#utility.yul\":4850:4857   */\n      dup9\n        /* \"#utility.yul\":4841:4847   */\n      dup3\n        /* \"#utility.yul\":4830:4839   */\n      dup10\n        /* \"#utility.yul\":4826:4848   */\n      add\n        /* \"#utility.yul\":4805:4858   */\n      tag_43\n      jump\t// in\n    tag_142:\n        /* \"#utility.yul\":4795:4858   */\n      swap2\n      pop\n        /* \"#utility.yul\":4749:4868   */\n      pop\n        /* \"#utility.yul\":3244:4875   */\n      swap3\n      swap6\n      pop\n      swap3\n      swap6\n      swap1\n      swap4\n      pop\n      jump\t// out\n        /* \"#utility.yul\":4881:4999   */\n    tag_54:\n        /* \"#utility.yul\":4968:4992   */\n      tag_144\n        /* \"#utility.yul\":4986:4991   */\n      dup2\n        /* \"#utility.yul\":4968:4992   */\n      tag_41\n      jump\t// in\n    tag_144:\n        /* \"#utility.yul\":4963:4966   */\n      dup3\n        /* \"#utility.yul\":4956:4993   */\n      mstore\n        /* \"#utility.yul\":4881:4999   */\n      pop\n      pop\n      jump\t// out\n        /* \"#utility.yul\":5005:5227   */\n    tag_18:\n        /* \"#utility.yul\":5098:5102   */\n      0x00\n        /* \"#utility.yul\":5136:5138   */\n      0x20\n        /* \"#utility.yul\":5125:5134   */\n      dup3\n        /* \"#utility.yul\":5121:5139   */\n      add\n        /* \"#utility.yul\":5113:5139   */\n      swap1\n      pop\n        /* \"#utility.yul\":5149:5220   */\n      tag_146\n        /* \"#utility.yul\":5217:5218   */\n      0x00\n        /* \"#utility.yul\":5206:5215   */\n      dup4\n        /* \"#utility.yul\":5202:5219   */\n      add\n        /* \"#utility.yul\":5193:5199   */\n      dup5\n        /* \"#utility.yul\":5149:5220   */\n      tag_54\n      jump\t// in\n    tag_146:\n        /* \"#utility.yul\":5005:5227   */\n      swap3\n      swap2\n      pop\n      pop\n      jump\t// out\n        /* \"#utility.yul\":5233:5359   */\n    tag_55:\n        /* \"#utility.yul\":5270:5277   */\n      0x00\n        /* \"#utility.yul\":5310:5352   */\n      0xffffffffffffffffffffffffffffffffffffffff\n        /* \"#utility.yul\":5303:5308   */\n      dup3\n        /* \"#utility.yul\":5299:5353   */\n      and\n        /* \"#utility.yul\":5288:5353   */\n      swap1\n      pop\n        /* \"#utility.yul\":5233:5359   */\n      swap2\n      swap1\n      pop\n      jump\t// out\n        /* \"#utility.yul\":5365:5461   */\n    tag_56:\n        /* \"#utility.yul\":5402:5409   */\n      0x00\n        /* \"#utility.yul\":5431:5455   */\n      tag_149\n        /* \"#utility.yul\":5449:5454   */\n      dup3\n        /* \"#utility.yul\":5431:5455   */\n      tag_55\n      jump\t// in\n    tag_149:\n        /* \"#utility.yul\":5420:5455   */\n      swap1\n      pop\n        /* \"#utility.yul\":5365:5461   */\n      swap2\n      swap1\n      pop\n      jump\t// out\n        /* \"#utility.yul\":5467:5585   */\n    tag_57:\n        /* \"#utility.yul\":5554:5578   */\n      tag_151\n        /* \"#utility.yul\":5572:5577   */\n      dup2\n        /* \"#utility.yul\":5554:5578   */\n      tag_56\n      jump\t// in\n    tag_151:\n        /* \"#utility.yul\":5549:5552   */\n      dup3\n        /* \"#utility.yul\":5542:5579   */\n      mstore\n        /* \"#utility.yul\":5467:5585   */\n      pop\n      pop\n      jump\t// out\n        /* \"#utility.yul\":5591:5651   */\n    tag_58:\n        /* \"#utility.yul\":5619:5622   */\n      0x00\n        /* \"#utility.yul\":5640:5645   */\n      dup2\n        /* \"#utility.yul\":5633:5645   */\n      swap1\n      pop\n        /* \"#utility.yul\":5591:5651   */\n      swap2\n      swap1\n      pop\n      jump\t// out\n        /* \"#utility.yul\":5657:5799   */\n    tag_59:\n        /* \"#utility.yul\":5707:5716   */\n      0x00\n        /* \"#utility.yul\":5740:5793   */\n      tag_154\n        /* \"#utility.yul\":5758:5792   */\n      tag_155\n        /* \"#utility.yul\":5767:5791   */\n      tag_156\n        /* \"#utility.yul\":5785:5790   */\n      dup5\n        /* \"#utility.yul\":5767:5791   */\n      tag_55\n      jump\t// in\n    tag_156:\n        /* \"#utility.yul\":5758:5792   */\n      tag_58\n      jump\t// in\n    tag_155:\n        /* \"#utility.yul\":5740:5793   */\n      tag_55\n      jump\t// in\n    tag_154:\n        /* \"#utility.yul\":5727:5793   */\n      swap1\n      pop\n        /* \"#utility.yul\":5657:5799   */\n      swap2\n      swap1\n      pop\n      jump\t// out\n        /* \"#utility.yul\":5805:5931   */\n    tag_60:\n        /* \"#utility.yul\":5855:5864   */\n      0x00\n        /* \"#utility.yul\":5888:5925   */\n      tag_158\n        /* \"#utility.yul\":5919:5924   */\n      dup3\n        /* \"#utility.yul\":5888:5925   */\n      tag_59\n      jump\t// in\n    tag_158:\n        /* \"#utility.yul\":5875:5925   */\n      swap1\n      pop\n        /* \"#utility.yul\":5805:5931   */\n      swap2\n      swap1\n      pop\n      jump\t// out\n        /* \"#utility.yul\":5937:6071   */\n    tag_61:\n        /* \"#utility.yul\":5995:6004   */\n      0x00\n        /* \"#utility.yul\":6028:6065   */\n      tag_160\n        /* \"#utility.yul\":6059:6064   */\n      dup3\n        /* \"#utility.yul\":6028:6065   */\n      tag_60\n      jump\t// in\n    tag_160:\n        /* \"#utility.yul\":6015:6065   */\n      swap1\n      pop\n        /* \"#utility.yul\":5937:6071   */\n      swap2\n      swap1\n      pop\n      jump\t// out\n        /* \"#utility.yul\":6077:6224   */\n    tag_62:\n        /* \"#utility.yul\":6172:6217   */\n      tag_162\n        /* \"#utility.yul\":6211:6216   */\n      dup2\n        /* \"#utility.yul\":6172:6217   */\n      tag_61\n      jump\t// in\n    tag_162:\n        /* \"#utility.yul\":6167:6170   */\n      dup3\n        /* \"#utility.yul\":6160:6218   */\n      mstore\n        /* \"#utility.yul\":6077:6224   */\n      pop\n      pop\n      jump\t// out\n        /* \"#utility.yul\":6230:6688   */\n    tag_21:\n        /* \"#utility.yul\":6387:6391   */\n      0x00\n        /* \"#utility.yul\":6425:6427   */\n      0x60\n        /* \"#utility.yul\":6414:6423   */\n      dup3\n        /* \"#utility.yul\":6410:6428   */\n      add\n        /* \"#utility.yul\":6402:6428   */\n      swap1\n      pop\n        /* \"#utility.yul\":6438:6509   */\n      tag_164\n        /* \"#utility.yul\":6506:6507   */\n      0x00\n        /* \"#utility.yul\":6495:6504   */\n      dup4\n        /* \"#utility.yul\":6491:6508   */\n      add\n        /* \"#utility.yul\":6482:6488   */\n      dup7\n        /* \"#utility.yul\":6438:6509   */\n      tag_57\n      jump\t// in\n    tag_164:\n        /* \"#utility.yul\":6519:6599   */\n      tag_165\n        /* \"#utility.yul\":6595:6597   */\n      0x20\n        /* \"#utility.yul\":6584:6593   */\n      dup4\n        /* \"#utility.yul\":6580:6598   */\n      add\n        /* \"#utility.yul\":6571:6577   */\n      dup6\n        /* \"#utility.yul\":6519:6599   */\n      tag_62\n      jump\t// in\n    tag_165:\n        /* \"#utility.yul\":6609:6681   */\n      tag_166\n        /* \"#utility.yul\":6677:6679   */\n      0x40\n        /* \"#utility.yul\":6666:6675   */\n      dup4\n        /* \"#utility.yul\":6662:6680   */\n      add\n        /* \"#utility.yul\":6653:6659   */\n      dup5\n        /* \"#utility.yul\":6609:6681   */\n      tag_54\n      jump\t// in\n    tag_166:\n        /* \"#utility.yul\":6230:6688   */\n      swap5\n      swap4\n      pop\n      pop\n      pop\n      pop\n      jump\t// out\n        /* \"#utility.yul\":6694:6784   */\n    tag_63:\n        /* \"#utility.yul\":6728:6735   */\n      0x00\n        /* \"#utility.yul\":6771:6776   */\n      dup2\n        /* \"#utility.yul\":6764:6777   */\n      iszero\n        /* \"#utility.yul\":6757:6778   */\n      iszero\n        /* \"#utility.yul\":6746:6778   */\n      swap1\n      pop\n        /* \"#utility.yul\":6694:6784   */\n      swap2\n      swap1\n      pop\n      jump\t// out\n        /* \"#utility.yul\":6790:6906   */\n    tag_64:\n        /* \"#utility.yul\":6860:6881   */\n      tag_169\n        /* \"#utility.yul\":6875:6880   */\n      dup2\n        /* \"#utility.yul\":6860:6881   */\n      tag_63\n      jump\t// in\n    tag_169:\n        /* \"#utility.yul\":6853:6858   */\n      dup2\n        /* \"#utility.yul\":6850:6882   */\n      eq\n        /* \"#utility.yul\":6840:6900   */\n      tag_170\n      jumpi\n        /* \"#utility.yul\":6896:6897   */\n      0x00\n        /* \"#utility.yul\":6893:6894   */\n      dup1\n        /* \"#utility.yul\":6886:6898   */\n      revert\n        /* \"#utility.yul\":6840:6900   */\n    tag_170:\n        /* \"#utility.yul\":6790:6906   */\n      pop\n      jump\t// out\n        /* \"#utility.yul\":6912:7049   */\n    tag_65:\n        /* \"#utility.yul\":6966:6971   */\n      0x00\n        /* \"#utility.yul\":6997:7003   */\n      dup2\n        /* \"#utility.yul\":6991:7004   */\n      mload\n        /* \"#utility.yul\":6982:7004   */\n      swap1\n      pop\n        /* \"#utility.yul\":7013:7043   */\n      tag_172\n        /* \"#utility.yul\":7037:7042   */\n      dup2\n        /* \"#utility.yul\":7013:7043   */\n      tag_64\n      jump\t// in\n    tag_172:\n        /* \"#utility.yul\":6912:7049   */\n      swap3\n      swap2\n      pop\n      pop\n      jump\t// out\n        /* \"#utility.yul\":7055:7400   */\n    tag_25:\n        /* \"#utility.yul\":7122:7128   */\n      0x00\n        /* \"#utility.yul\":7171:7173   */\n      0x20\n        /* \"#utility.yul\":7159:7168   */\n      dup3\n        /* \"#utility.yul\":7150:7157   */\n      dup5\n        /* \"#utility.yul\":7146:7169   */\n      sub\n        /* \"#utility.yul\":7142:7174   */\n      slt\n        /* \"#utility.yul\":7139:7258   */\n      iszero\n      tag_174\n      jumpi\n        /* \"#utility.yul\":7177:7256   */\n      tag_175\n      tag_39\n      jump\t// in\n    tag_175:\n        /* \"#utility.yul\":7139:7258   */\n    tag_174:\n        /* \"#utility.yul\":7297:7298   */\n      0x00\n        /* \"#utility.yul\":7322:7383   */\n      tag_176\n        /* \"#utility.yul\":7375:7382   */\n      dup5\n        /* \"#utility.yul\":7366:7372   */\n      dup3\n        /* \"#utility.yul\":7355:7364   */\n      dup6\n        /* \"#utility.yul\":7351:7373   */\n      add\n        /* \"#utility.yul\":7322:7383   */\n      tag_65\n      jump\t// in\n    tag_176:\n        /* \"#utility.yul\":7312:7383   */\n      swap2\n      pop\n        /* \"#utility.yul\":7268:7393   */\n      pop\n        /* \"#utility.yul\":7055:7400   */\n      swap3\n      swap2\n      pop\n      pop\n      jump\t// out\n        /* \"#utility.yul\":7406:7575   */\n    tag_66:\n        /* \"#utility.yul\":7490:7501   */\n      0x00\n        /* \"#utility.yul\":7524:7530   */\n      dup3\n        /* \"#utility.yul\":7519:7522   */\n      dup3\n        /* \"#utility.yul\":7512:7531   */\n      mstore\n        /* \"#utility.yul\":7564:7568   */\n      0x20\n        /* \"#utility.yul\":7559:7562   */\n      dup3\n        /* \"#utility.yul\":7555:7569   */\n      add\n        /* \"#utility.yul\":7540:7569   */\n      swap1\n      pop\n        /* \"#utility.yul\":7406:7575   */\n      swap3\n      swap2\n      pop\n      pop\n      jump\t// out\n        /* \"#utility.yul\":7581:7747   */\n    tag_67:\n        /* \"#utility.yul\":7721:7739   */\n      0x5472616e73666572206661696c65642e00000000000000000000000000000000\n        /* \"#utility.yul\":7717:7718   */\n      0x00\n        /* \"#utility.yul\":7709:7715   */\n      dup3\n        /* \"#utility.yul\":7705:7719   */\n      add\n        /* \"#utility.yul\":7698:7740   */\n      mstore\n        /* \"#utility.yul\":7581:7747   */\n      pop\n      jump\t// out\n        /* \"#utility.yul\":7753:8119   */\n    tag_68:\n        /* \"#utility.yul\":7895:7898   */\n      0x00\n        /* \"#utility.yul\":7916:7983   */\n      tag_180\n        /* \"#utility.yul\":7980:7982   */\n      0x10\n        /* \"#utility.yul\":7975:7978   */\n      dup4\n        /* \"#utility.yul\":7916:7983   */\n      tag_66\n      jump\t// in\n    tag_180:\n        /* \"#utility.yul\":7909:7983   */\n      swap2\n      pop\n        /* \"#utility.yul\":7992:8085   */\n      tag_181\n        /* \"#utility.yul\":8081:8084   */\n      dup3\n        /* \"#utility.yul\":7992:8085   */\n      tag_67\n      jump\t// in\n    tag_181:\n        /* \"#utility.yul\":8110:8112   */\n      0x20\n        /* \"#utility.yul\":8105:8108   */\n      dup3\n        /* \"#utility.yul\":8101:8113   */\n      add\n        /* \"#utility.yul\":8094:8113   */\n      swap1\n      pop\n        /* \"#utility.yul\":7753:8119   */\n      swap2\n      swap1\n      pop\n      jump\t// out\n        /* \"#utility.yul\":8125:8544   */\n    tag_28:\n        /* \"#utility.yul\":8291:8295   */\n      0x00\n        /* \"#utility.yul\":8329:8331   */\n      0x20\n        /* \"#utility.yul\":8318:8327   */\n      dup3\n        /* \"#utility.yul\":8314:8332   */\n      add\n        /* \"#utility.yul\":8306:8332   */\n      swap1\n      pop\n        /* \"#utility.yul\":8378:8387   */\n      dup2\n        /* \"#utility.yul\":8372:8376   */\n      dup2\n        /* \"#utility.yul\":8368:8388   */\n      sub\n        /* \"#utility.yul\":8364:8365   */\n      0x00\n        /* \"#utility.yul\":8353:8362   */\n      dup4\n        /* \"#utility.yul\":8349:8366   */\n      add\n        /* \"#utility.yul\":8342:8389   */\n      mstore\n        /* \"#utility.yul\":8406:8537   */\n      tag_183\n        /* \"#utility.yul\":8532:8536   */\n      dup2\n        /* \"#utility.yul\":8406:8537   */\n      tag_68\n      jump\t// in\n    tag_183:\n        /* \"#utility.yul\":8398:8537   */\n      swap1\n      pop\n        /* \"#utility.yul\":8125:8544   */\n      swap2\n      swap1\n      pop\n      jump\t// out\n        /* \"#utility.yul\":8550:8649   */\n    tag_69:\n        /* \"#utility.yul\":8602:8608   */\n      0x00\n        /* \"#utility.yul\":8636:8641   */\n      dup2\n        /* \"#utility.yul\":8630:8642   */\n      mload\n        /* \"#utility.yul\":8620:8642   */\n      swap1\n      pop\n        /* \"#utility.yul\":8550:8649   */\n      swap2\n      swap1\n      pop\n      jump\t// out\n        /* \"#utility.yul\":8655:8835   */\n    tag_70:\n        /* \"#utility.yul\":8703:8780   */\n      0x4e487b7100000000000000000000000000000000000000000000000000000000\n        /* \"#utility.yul\":8700:8701   */\n      0x00\n        /* \"#utility.yul\":8693:8781   */\n      mstore\n        /* \"#utility.yul\":8800:8804   */\n      0x22\n        /* \"#utility.yul\":8797:8798   */\n      0x04\n        /* \"#utility.yul\":8790:8805   */\n      mstore\n        /* \"#utility.yul\":8824:8828   */\n      0x24\n        /* \"#utility.yul\":8821:8822   */\n      0x00\n        /* \"#utility.yul\":8814:8829   */\n      revert\n        /* \"#utility.yul\":8841:9161   */\n    tag_71:\n        /* \"#utility.yul\":8885:8891   */\n      0x00\n        /* \"#utility.yul\":8922:8923   */\n      0x02\n        /* \"#utility.yul\":8916:8920   */\n      dup3\n        /* \"#utility.yul\":8912:8924   */\n      div\n        /* \"#utility.yul\":8902:8924   */\n      swap1\n      pop\n        /* \"#utility.yul\":8969:8970   */\n      0x01\n        /* \"#utility.yul\":8963:8967   */\n      dup3\n        /* \"#utility.yul\":8959:8971   */\n      and\n        /* \"#utility.yul\":8990:9008   */\n      dup1\n        /* \"#utility.yul\":8980:9061   */\n      tag_187\n      jumpi\n        /* \"#utility.yul\":9046:9050   */\n      0x7f\n        /* \"#utility.yul\":9038:9044   */\n      dup3\n        /* \"#utility.yul\":9034:9051   */\n      and\n        /* \"#utility.yul\":9024:9051   */\n      swap2\n      pop\n        /* \"#utility.yul\":8980:9061   */\n    tag_187:\n        /* \"#utility.yul\":9108:9110   */\n      0x20\n        /* \"#utility.yul\":9100:9106   */\n      dup3\n        /* \"#utility.yul\":9097:9111   */\n      lt\n        /* \"#utility.yul\":9077:9095   */\n      dup2\n        /* \"#utility.yul\":9074:9112   */\n      sub\n        /* \"#utility.yul\":9071:9155   */\n      tag_188\n      jumpi\n        /* \"#utility.yul\":9127:9145   */\n      tag_189\n      tag_70\n      jump\t// in\n    tag_189:\n        /* \"#utility.yul\":9071:9155   */\n    tag_188:\n        /* \"#utility.yul\":8892:9161   */\n      pop\n        /* \"#utility.yul\":8841:9161   */\n      swap2\n      swap1\n      pop\n      jump\t// out\n        /* \"#utility.yul\":9167:9308   */\n    tag_72:\n        /* \"#utility.yul\":9216:9220   */\n      0x00\n        /* \"#utility.yul\":9239:9242   */\n      dup2\n        /* \"#utility.yul\":9231:9242   */\n      swap1\n      pop\n        /* \"#utility.yul\":9262:9265   */\n      dup2\n        /* \"#utility.yul\":9259:9260   */\n      0x00\n        /* \"#utility.yul\":9252:9266   */\n      mstore\n        /* \"#utility.yul\":9296:9300   */\n      0x20\n        /* \"#utility.yul\":9293:9294   */\n      0x00\n        /* \"#utility.yul\":9283:9301   */\n      keccak256\n        /* \"#utility.yul\":9275:9301   */\n      swap1\n      pop\n        /* \"#utility.yul\":9167:9308   */\n      swap2\n      swap1\n      pop\n      jump\t// out\n        /* \"#utility.yul\":9314:9407   */\n    tag_73:\n        /* \"#utility.yul\":9351:9357   */\n      0x00\n        /* \"#utility.yul\":9398:9400   */\n      0x20\n        /* \"#utility.yul\":9393:9395   */\n      0x1f\n        /* \"#utility.yul\":9386:9391   */\n      dup4\n        /* \"#utility.yul\":9382:9396   */\n      add\n        /* \"#utility.yul\":9378:9401   */\n      div\n        /* \"#utility.yul\":9368:9401   */\n      swap1\n      pop\n        /* \"#utility.yul\":9314:9407   */\n      swap2\n      swap1\n      pop\n      jump\t// out\n        /* \"#utility.yul\":9413:9520   */\n    tag_74:\n        /* \"#utility.yul\":9457:9465   */\n      0x00\n        /* \"#utility.yul\":9507:9512   */\n      dup3\n        /* \"#utility.yul\":9501:9505   */\n      dup3\n        /* \"#utility.yul\":9497:9513   */\n      shl\n        /* \"#utility.yul\":9476:9513   */\n      swap1\n      pop\n        /* \"#utility.yul\":9413:9520   */\n      swap3\n      swap2\n      pop\n      pop\n      jump\t// out\n        /* \"#utility.yul\":9526:9919   */\n    tag_75:\n        /* \"#utility.yul\":9595:9601   */\n      0x00\n        /* \"#utility.yul\":9645:9646   */\n      0x08\n        /* \"#utility.yul\":9633:9643   */\n      dup4\n        /* \"#utility.yul\":9629:9647   */\n      mul\n        /* \"#utility.yul\":9668:9765   */\n      tag_194\n        /* \"#utility.yul\":9698:9764   */\n      0xffffffffffffffffffffffffffffffffffffffffffffffffffffffffffffffff\n        /* \"#utility.yul\":9687:9696   */\n      dup3\n        /* \"#utility.yul\":9668:9765   */\n      tag_74\n      jump\t// in\n    tag_194:\n        /* \"#utility.yul\":9786:9825   */\n      tag_195\n        /* \"#utility.yul\":9816:9824   */\n      dup7\n        /* \"#utility.yul\":9805:9814   */\n      dup4\n        /* \"#utility.yul\":9786:9825   */\n      tag_74\n      jump\t// in\n    tag_195:\n        /* \"#utility.yul\":9774:9825   */\n      swap6\n      pop\n        /* \"#utility.yul\":9858:9862   */\n      dup1\n        /* \"#utility.yul\":9854:9863   */\n      not\n        /* \"#utility.yul\":9847:9852   */\n      dup5\n        /* \"#utility.yul\":9843:9864   */\n      and\n        /* \"#utility.yul\":9834:9864   */\n      swap4\n      pop\n        /* \"#utility.yul\":9907:9911   */\n      dup1\n        /* \"#utility.yul\":9897:9905   */\n      dup7\n        /* \"#utility.yul\":9893:9912   */\n      and\n        /* \"#utility.yul\":9886:9891   */\n      dup5\n        /* \"#utility.yul\":9883:9913   */\n      or\n        /* \"#utility.yul\":9873:9913   */\n      swap3\n      pop\n        /* \"#utility.yul\":9602:9919   */\n      pop\n      pop\n        /* \"#utility.yul\":9526:9919   */\n      swap4\n      swap3\n      pop\n      pop\n      pop\n      jump\t// out\n        /* \"#utility.yul\":9925:10067   */\n    tag_76:\n        /* \"#utility.yul\":9975:9984   */\n      0x00\n        /* \"#utility.yul\":10008:10061   */\n      tag_197\n        /* \"#utility.yul\":10026:10060   */\n      tag_198\n        /* \"#utility.yul\":10035:10059   */\n      tag_199\n        /* \"#utility.yul\":10053:10058   */\n      dup5\n        /* \"#utility.yul\":10035:10059   */\n      tag_41\n      jump\t// in\n    tag_199:\n        /* \"#utility.yul\":10026:10060   */\n      tag_58\n      jump\t// in\n    tag_198:\n        /* \"#utility.yul\":10008:10061   */\n      tag_41\n      jump\t// in\n    tag_197:\n        /* \"#utility.yul\":9995:10061   */\n      swap1\n      pop\n        /* \"#utility.yul\":9925:10067   */\n      swap2\n      swap1\n      pop\n      jump\t// out\n        /* \"#utility.yul\":10073:10148   */\n    tag_77:\n        /* \"#utility.yul\":10116:10119   */\n      0x00\n        /* \"#utility.yul\":10137:10142   */\n      dup2\n        /* \"#utility.yul\":10130:10142   */\n      swap1\n      pop\n        /* \"#utility.yul\":10073:10148   */\n      swap2\n      swap1\n      pop\n      jump\t// out\n        /* \"#utility.yul\":10154:10423   */\n    tag_78:\n        /* \"#utility.yul\":10264:10303   */\n      tag_202\n        /* \"#utility.yul\":10295:10302   */\n      dup4\n        /* \"#utility.yul\":10264:10303   */\n      tag_76\n      jump\t// in\n    tag_202:\n        /* \"#utility.yul\":10325:10416   */\n      tag_203\n        /* \"#utility.yul\":10374:10415   */\n      tag_204\n        /* \"#utility.yul\":10398:10414   */\n      dup3\n        /* \"#utility.yul\":10374:10415   */\n      tag_77\n      jump\t// in\n    tag_204:\n        /* \"#utility.yul\":10366:10372   */\n      dup5\n        /* \"#utility.yul\":10359:10363   */\n      dup5\n        /* \"#utility.yul\":10353:10364   */\n      sload\n        /* \"#utility.yul\":10325:10416   */\n      tag_75\n      jump\t// in\n    tag_203:\n        /* \"#utility.yul\":10319:10323   */\n      dup3\n        /* \"#utility.yul\":10312:10417   */\n      sstore\n        /* \"#utility.yul\":10230:10423   */\n      pop\n        /* \"#utility.yul\":10154:10423   */\n      pop\n      pop\n      pop\n      jump\t// out\n        /* \"#utility.yul\":10429:10502   */\n    tag_79:\n        /* \"#utility.yul\":10474:10477   */\n      0x00\n        /* \"#utility.yul\":10429:10502   */\n      swap1\n      jump\t// out\n        /* \"#utility.yul\":10508:10697   */\n    tag_80:\n        /* \"#utility.yul\":10585:10617   */\n      tag_207\n      tag_79\n      jump\t// in\n    tag_207:\n        /* \"#utility.yul\":10626:10691   */\n      tag_208\n        /* \"#utility.yul\":10684:10690   */\n      dup2\n        /* \"#utility.yul\":10676:10682   */\n      dup5\n        /* \"#utility.yul\":10670:10674   */\n      dup5\n        /* \"#utility.yul\":10626:10691   */\n      tag_78\n      jump\t// in\n    tag_208:\n        /* \"#utility.yul\":10561:10697   */\n      pop\n        /* \"#utility.yul\":10508:10697   */\n      pop\n      pop\n      jump\t// out\n        /* \"#utility.yul\":10703:10889   */\n    tag_81:\n        /* \"#utility.yul\":10763:10883   */\n    tag_210:\n        /* \"#utility.yul\":10780:10783   */\n      dup2\n        /* \"#utility.yul\":10773:10778   */\n      dup2\n        /* \"#utility.yul\":10770:10784   */\n      lt\n        /* \"#utility.yul\":10763:10883   */\n      iszero\n      tag_212\n      jumpi\n        /* \"#utility.yul\":10834:10873   */\n      tag_213\n        /* \"#utility.yul\":10871:10872   */\n      0x00\n        /* \"#utility.yul\":10864:10869   */\n      dup3\n        /* \"#utility.yul\":10834:10873   */\n      tag_80\n      jump\t// in\n    tag_213:\n        /* \"#utility.yul\":10807:10808   */\n      0x01\n        /* \"#utility.yul\":10800:10805   */\n      dup2\n        /* \"#utility.yul\":10796:10809   */\n      add\n        /* \"#utility.yul\":10787:10809   */\n      swap1\n      pop\n        /* \"#utility.yul\":10763:10883   */\n      jump(tag_210)\n    tag_212:\n        /* \"#utility.yul\":10703:10889   */\n      pop\n      pop\n      jump\t// out\n        /* \"#utility.yul\":10895:11438   */\n    tag_82:\n        /* \"#utility.yul\":10996:10998   */\n      0x1f\n        /* \"#utility.yul\":10991:10994   */\n      dup3\n        /* \"#utility.yul\":10988:10999   */\n      gt\n        /* \"#utility.yul\":10985:11431   */\n      iszero\n      tag_215\n      jumpi\n        /* \"#utility.yul\":11030:11068   */\n      tag_216\n        /* \"#utility.yul\":11062:11067   */\n      dup2\n        /* \"#utility.yul\":11030:11068   */\n      tag_72\n      jump\t// in\n    tag_216:\n        /* \"#utility.yul\":11114:11143   */\n      tag_217\n        /* \"#utility.yul\":11132:11142   */\n      dup5\n        /* \"#utility.yul\":11114:11143   */\n      tag_73\n      jump\t// in\n    tag_217:\n        /* \"#utility.yul\":11104:11112   */\n      dup2\n        /* \"#utility.yul\":11100:11144   */\n      add\n        /* \"#utility.yul\":11297:11299   */\n      0x20\n        /* \"#utility.yul\":11285:11295   */\n      dup6\n        /* \"#utility.yul\":11282:11300   */\n      lt\n        /* \"#utility.yul\":11279:11328   */\n      iszero\n      tag_218\n      jumpi\n        /* \"#utility.yul\":11318:11326   */\n      dup2\n        /* \"#utility.yul\":11303:11326   */\n      swap1\n      pop\n        /* \"#utility.yul\":11279:11328   */\n    tag_218:\n        /* \"#utility.yul\":11341:11421   */\n      tag_219\n        /* \"#utility.yul\":11397:11419   */\n      tag_220\n        /* \"#utility.yul\":11415:11418   */\n      dup6\n        /* \"#utility.yul\":11397:11419   */\n      tag_73\n      jump\t// in\n    tag_220:\n        /* \"#utility.yul\":11387:11395   */\n      dup4\n        /* \"#utility.yul\":11383:11420   */\n      add\n        /* \"#utility.yul\":11370:11381   */\n      dup3\n        /* \"#utility.yul\":11341:11421   */\n      tag_81\n      jump\t// in\n    tag_219:\n        /* \"#utility.yul\":11000:11431   */\n      pop\n      pop\n        /* \"#utility.yul\":10985:11431   */\n    tag_215:\n        /* \"#utility.yul\":10895:11438   */\n      pop\n      pop\n      pop\n      jump\t// out\n        /* \"#utility.yul\":11444:11561   */\n    tag_83:\n        /* \"#utility.yul\":11498:11506   */\n      0x00\n        /* \"#utility.yul\":11548:11553   */\n      dup3\n        /* \"#utility.yul\":11542:11546   */\n      dup3\n        /* \"#utility.yul\":11538:11554   */\n      shr\n        /* \"#utility.yul\":11517:11554   */\n      swap1\n      pop\n        /* \"#utility.yul\":11444:11561   */\n      swap3\n      swap2\n      pop\n      pop\n      jump\t// out\n        /* \"#utility.yul\":11567:11736   */\n    tag_84:\n        /* \"#utility.yul\":11611:11617   */\n      0x00\n        /* \"#utility.yul\":11644:11695   */\n      tag_223\n        /* \"#utility.yul\":11692:11693   */\n      0x00\n        /* \"#utility.yul\":11688:11694   */\n      not\n        /* \"#utility.yul\":11680:11685   */\n      dup5\n        /* \"#utility.yul\":11677:11678   */\n      0x08\n        /* \"#utility.yul\":11673:11686   */\n      mul\n        /* \"#utility.yul\":11644:11695   */\n      tag_83\n      jump\t// in\n    tag_223:\n        /* \"#utility.yul\":11640:11696   */\n      not\n        /* \"#utility.yul\":11725:11729   */\n      dup1\n        /* \"#utility.yul\":11719:11723   */\n      dup4\n        /* \"#utility.yul\":11715:11730   */\n      and\n        /* \"#utility.yul\":11705:11730   */\n      swap2\n      pop\n        /* \"#utility.yul\":11618:11736   */\n      pop\n        /* \"#utility.yul\":11567:11736   */\n      swap3\n      swap2\n      pop\n      pop\n      jump\t// out\n        /* \"#utility.yul\":11741:12036   */\n    tag_85:\n        /* \"#utility.yul\":11817:11821   */\n      0x00\n        /* \"#utility.yul\":11963:11992   */\n      tag_225\n        /* \"#utility.yul\":11988:11991   */\n      dup4\n        /* \"#utility.yul\":11982:11986   */\n      dup4\n        /* \"#utility.yul\":11963:11992   */\n      tag_84\n      jump\t// in\n    tag_225:\n        /* \"#utility.yul\":11955:11992   */\n      swap2\n      pop\n        /* \"#utility.yul\":12025:12028   */\n      dup3\n        /* \"#utility.yul\":12022:12023   */\n      0x02\n        /* \"#utility.yul\":12018:12029   */\n      mul\n        /* \"#utility.yul\":12012:12016   */\n      dup3\n        /* \"#utility.yul\":12009:12030   */\n      or\n        /* \"#utility.yul\":12001:12030   */\n      swap1\n      pop\n        /* \"#utility.yul\":11741:12036   */\n      swap3\n      swap2\n      pop\n      pop\n      jump\t// out\n        /* \"#utility.yul\":12041:13436   */\n    tag_31:\n        /* \"#utility.yul\":12158:12195   */\n      tag_227\n        /* \"#utility.yul\":12191:12194   */\n      dup3\n        /* \"#utility.yul\":12158:12195   */\n      tag_69\n      jump\t// in\n    tag_227:\n        /* \"#utility.yul\":12260:12278   */\n      0xffffffffffffffff\n        /* \"#utility.yul\":12252:12258   */\n      dup2\n        /* \"#utility.yul\":12249:12279   */\n      gt\n        /* \"#utility.yul\":12246:12302   */\n      iszero\n      tag_228\n      jumpi\n        /* \"#utility.yul\":12282:12300   */\n      tag_229\n      tag_47\n      jump\t// in\n    tag_229:\n        /* \"#utility.yul\":12246:12302   */\n    tag_228:\n        /* \"#utility.yul\":12326:12364   */\n      tag_230\n        /* \"#utility.yul\":12358:12362   */\n      dup3\n        /* \"#utility.yul\":12352:12363   */\n      sload\n        /* \"#utility.yul\":12326:12364   */\n      tag_71\n      jump\t// in\n    tag_230:\n        /* \"#utility.yul\":12411:12478   */\n      tag_231\n        /* \"#utility.yul\":12471:12477   */\n      dup3\n        /* \"#utility.yul\":12463:12469   */\n      dup3\n        /* \"#utility.yul\":12457:12461   */\n      dup6\n        /* \"#utility.yul\":12411:12478   */\n      tag_82\n      jump\t// in\n    tag_231:\n        /* \"#utility.yul\":12505:12506   */\n      0x00\n        /* \"#utility.yul\":12529:12533   */\n      0x20\n        /* \"#utility.yul\":12516:12533   */\n      swap1\n      pop\n        /* \"#utility.yul\":12561:12563   */\n      0x1f\n        /* \"#utility.yul\":12553:12559   */\n      dup4\n        /* \"#utility.yul\":12550:12564   */\n      gt\n        /* \"#utility.yul\":12578:12579   */\n      0x01\n        /* \"#utility.yul\":12573:13191   */\n      dup2\n      eq\n      tag_233\n      jumpi\n        /* \"#utility.yul\":13235:13236   */\n      0x00\n        /* \"#utility.yul\":13252:13258   */\n      dup5\n        /* \"#utility.yul\":13249:13326   */\n      iszero\n      tag_234\n      jumpi\n        /* \"#utility.yul\":13301:13310   */\n      dup3\n        /* \"#utility.yul\":13296:13299   */\n      dup8\n        /* \"#utility.yul\":13292:13311   */\n      add\n        /* \"#utility.yul\":13286:13312   */\n      mload\n        /* \"#utility.yul\":13277:13312   */\n      swap1\n      pop\n        /* \"#utility.yul\":13249:13326   */\n    tag_234:\n        /* \"#utility.yul\":13352:13419   */\n      tag_235\n        /* \"#utility.yul\":13412:13418   */\n      dup6\n        /* \"#utility.yul\":13405:13410   */\n      dup3\n        /* \"#utility.yul\":13352:13419   */\n      tag_85\n      jump\t// in\n    tag_235:\n        /* \"#utility.yul\":13346:13350   */\n      dup7\n        /* \"#utility.yul\":13339:13420   */\n      sstore\n        /* \"#utility.yul\":13208:13430   */\n      pop\n        /* \"#utility.yul\":12543:13430   */\n      jump(tag_232)\n        /* \"#utility.yul\":12573:13191   */\n    tag_233:\n        /* \"#utility.yul\":12625:12629   */\n      0x1f\n        /* \"#utility.yul\":12621:12630   */\n      not\n        /* \"#utility.yul\":12613:12619   */\n      dup5\n        /* \"#utility.yul\":12609:12631   */\n      and\n        /* \"#utility.yul\":12659:12696   */\n      tag_236\n        /* \"#utility.yul\":12691:12695   */\n      dup7\n        /* \"#utility.yul\":12659:12696   */\n      tag_72\n      jump\t// in\n    tag_236:\n        /* \"#utility.yul\":12718:12719   */\n      0x00\n        /* \"#utility.yul\":12732:12940   */\n    tag_237:\n        /* \"#utility.yul\":12746:12753   */\n      dup3\n        /* \"#utility.yul\":12743:12744   */\n      dup2\n        /* \"#utility.yul\":12740:12754   */\n      lt\n        /* \"#utility.yul\":12732:12940   */\n      iszero\n      tag_239\n      jumpi\n        /* \"#utility.yul\":12825:12834   */\n      dup5\n        /* \"#utility.yul\":12820:12823   */\n      dup10\n        /* \"#utility.yul\":12816:12835   */\n      add\n        /* \"#utility.yul\":12810:12836   */\n      mload\n        /* \"#utility.yul\":12802:12808   */\n      dup3\n        /* \"#utility.yul\":12795:12837   */\n      sstore\n        /* \"#utility.yul\":12876:12877   */\n      0x01\n        /* \"#utility.yul\":12868:12874   */\n      dup3\n        /* \"#utility.yul\":12864:12878   */\n      add\n        /* \"#utility.yul\":12854:12878   */\n      swap2\n      pop\n        /* \"#utility.yul\":12923:12925   */\n      0x20\n        /* \"#utility.yul\":12912:12921   */\n      dup6\n        /* \"#utility.yul\":12908:12926   */\n      add\n        /* \"#utility.yul\":12895:12926   */\n      swap5\n      pop\n        /* \"#utility.yul\":12769:12773   */\n      0x20\n        /* \"#utility.yul\":12766:12767   */\n      dup2\n        /* \"#utility.yul\":12762:12774   */\n      add\n        /* \"#utility.yul\":12757:12774   */\n      swap1\n      pop\n        /* \"#utility.yul\":12732:12940   */\n      jump(tag_237)\n    tag_239:\n        /* \"#utility.yul\":12968:12974   */\n      dup7\n        /* \"#utility.yul\":12959:12966   */\n      dup4\n        /* \"#utility.yul\":12956:12975   */\n      lt\n        /* \"#utility.yul\":12953:13132   */\n      iszero\n      tag_240\n      jumpi\n        /* \"#utility.yul\":13026:13035   */\n      dup5\n        /* \"#utility.yul\":13021:13024   */\n      dup10\n        /* \"#utility.yul\":13017:13036   */\n      add\n        /* \"#utility.yul\":13011:13037   */\n      mload\n        /* \"#utility.yul\":13069:13117   */\n      tag_241\n        /* \"#utility.yul\":13111:13115   */\n      0x1f\n        /* \"#utility.yul\":13103:13109   */\n      dup10\n        /* \"#utility.yul\":13099:13116   */\n      and\n        /* \"#utility.yul\":13088:13097   */\n      dup3\n        /* \"#utility.yul\":13069:13117   */\n      tag_84\n      jump\t// in\n    tag_241:\n        /* \"#utility.yul\":13061:13067   */\n      dup4\n        /* \"#utility.yul\":13054:13118   */\n      sstore\n        /* \"#utility.yul\":12976:13132   */\n      pop\n        /* \"#utility.yul\":12953:13132   */\n    tag_240:\n        /* \"#utility.yul\":13178:13179   */\n      0x01\n        /* \"#utility.yul\":13174:13175   */\n      0x02\n        /* \"#utility.yul\":13166:13172   */\n      dup9\n        /* \"#utility.yul\":13162:13176   */\n      mul\n        /* \"#utility.yul\":13158:13180   */\n      add\n        /* \"#utility.yul\":13152:13156   */\n      dup9\n        /* \"#utility.yul\":13145:13181   */\n      sstore\n        /* \"#utility.yul\":12580:13191   */\n      pop\n      pop\n      pop\n        /* \"#utility.yul\":12543:13430   */\n    tag_232:\n      pop\n        /* \"#utility.yul\":12133:13436   */\n      pop\n      pop\n      pop\n        /* \"#utility.yul\":12041:13436   */\n      pop\n      pop\n      jump\t// out\n        /* \"#utility.yul\":13442:13622   */\n    tag_86:\n        /* \"#utility.yul\":13490:13567   */\n      0x4e487b7100000000000000000000000000000000000000000000000000000000\n        /* \"#utility.yul\":13487:13488   */\n      0x00\n        /* \"#utility.yul\":13480:13568   */\n      mstore\n        /* \"#utility.yul\":13587:13591   */\n      0x11\n        /* \"#utility.yul\":13584:13585   */\n      0x04\n        /* \"#utility.yul\":13577:13592   */\n      mstore\n        /* \"#utility.yul\":13611:13615   */\n      0x24\n        /* \"#utility.yul\":13608:13609   */\n      0x00\n        /* \"#utility.yul\":13601:13616   */\n      revert\n        /* \"#utility.yul\":13628:13861   */\n    tag_36:\n        /* \"#utility.yul\":13667:13670   */\n      0x00\n        /* \"#utility.yul\":13690:13714   */\n      tag_244\n        /* \"#utility.yul\":13708:13713   */\n      dup3\n        /* \"#utility.yul\":13690:13714   */\n      tag_41\n      jump\t// in\n    tag_244:\n        /* \"#utility.yul\":13681:13714   */\n      swap2\n      pop\n        /* \"#utility.yul\":13736:13802   */\n      0xffffffffffffffffffffffffffffffffffffffffffffffffffffffffffffffff\n        /* \"#utility.yul\":13729:13734   */\n      dup3\n        /* \"#utility.yul\":13726:13803   */\n      sub\n        /* \"#utility.yul\":13723:13826   */\n      tag_245\n      jumpi\n        /* \"#utility.yul\":13806:13824   */\n      tag_246\n      tag_86\n      jump\t// in\n    tag_246:\n        /* \"#utility.yul\":13723:13826   */\n    tag_245:\n        /* \"#utility.yul\":13853:13854   */\n      0x01\n        /* \"#utility.yul\":13846:13851   */\n      dup3\n        /* \"#utility.yul\":13842:13855   */\n      add\n        /* \"#utility.yul\":13835:13855   */\n      swap1\n      pop\n        /* \"#utility.yul\":13628:13861   */\n      swap2\n      swap1\n      pop\n      jump\t// out\n\n    auxdata: 0xa264697066735822122041b154534bd1fcf2331bbcee0e2a6ae19e58dfab17a9c1b55ea8da1ad756190364736f6c63430008160033\n}\n",
				"bytecode": {
					"linkReferences": {},
					"object": "60806040525f805573e8b6e6589697fbe845a1ed302dee7f92f9c35c9860015f6101000a81548173ffffffffffffffffffffffffffffffffffffffff021916908373ffffffffffffffffffffffffffffffffffffffff160217905550348015610066575f80fd5b50610ad5806100745f395ff3fe608060405260043610610033575f3560e01c80638642269e146100375780638da8f27b14610053578063f2d618191461007b575b5f80fd5b610051600480360381019061004c9190610344565b6100a5565b005b34801561005e575f80fd5b50610079600480360381019061007491906104ab565b6101cb565b005b348015610086575f80fd5b5061008f6102f8565b60405161009c91906105a1565b60405180910390f35b60015f9054906101000a900473ffffffffffffffffffffffffffffffffffffffff1673ffffffffffffffffffffffffffffffffffffffff166323b872dd3360025f8581526020019081526020015f205f015f9054906101000a900473ffffffffffffffffffffffffffffffffffffffff1660025f8681526020019081526020015f20600501546040518463ffffffff1660e01b815260040161014993929190610654565b6020604051808303815f875af1158015610165573d5f803e3d5ffd5b505050506040513d601f19601f8201168201806040525081019061018991906106be565b6101c8576040517f08c379a00000000000000000000000000000000000000000000000000000000081526004016101bf90610743565b60405180910390fd5b50565b5f6040518060e001604052803373ffffffffffffffffffffffffffffffffffffffff1681526020018781526020018681526020018581526020018481526020018381526020018281525060025f805481526020019081526020015f205f820151815f015f6101000a81548173ffffffffffffffffffffffffffffffffffffffff021916908373ffffffffffffffffffffffffffffffffffffffff1602179055506020820151816001019081610280919061095c565b506040820151816002019081610296919061095c565b5060608201518160030190816102ac919061095c565b5060808201518160040190816102c2919061095c565b5060a0820151816005015560c082015181600601559050505f808154809291906102eb90610a58565b9190505550505050505050565b5f8054905090565b5f604051905090565b5f80fd5b5f80fd5b5f819050919050565b61032381610311565b811461032d575f80fd5b50565b5f8135905061033e8161031a565b92915050565b5f6020828403121561035957610358610309565b5b5f61036684828501610330565b91505092915050565b5f80fd5b5f80fd5b5f601f19601f8301169050919050565b7f4e487b71000000000000000000000000000000000000000000000000000000005f52604160045260245ffd5b6103bd82610377565b810181811067ffffffffffffffff821117156103dc576103db610387565b5b80604052505050565b5f6103ee610300565b90506103fa82826103b4565b919050565b5f67ffffffffffffffff82111561041957610418610387565b5b61042282610377565b9050602081019050919050565b828183375f83830152505050565b5f61044f61044a846103ff565b6103e5565b90508281526020810184848401111561046b5761046a610373565b5b61047684828561042f565b509392505050565b5f82601f8301126104925761049161036f565b5b81356104a284826020860161043d565b91505092915050565b5f805f805f60a086880312156104c4576104c3610309565b5b5f86013567ffffffffffffffff8111156104e1576104e061030d565b5b6104ed8882890161047e565b955050602086013567ffffffffffffffff81111561050e5761050d61030d565b5b61051a8882890161047e565b945050604086013567ffffffffffffffff81111561053b5761053a61030d565b5b6105478882890161047e565b935050606086013567ffffffffffffffff8111156105685761056761030d565b5b6105748882890161047e565b925050608061058588828901610330565b9150509295509295909350565b61059b81610311565b82525050565b5f6020820190506105b45f830184610592565b92915050565b5f73ffffffffffffffffffffffffffffffffffffffff82169050919050565b5f6105e3826105ba565b9050919050565b6105f3816105d9565b82525050565b5f819050919050565b5f61061c610617610612846105ba565b6105f9565b6105ba565b9050919050565b5f61062d82610602565b9050919050565b5f61063e82610623565b9050919050565b61064e81610634565b82525050565b5f6060820190506106675f8301866105ea565b6106746020830185610645565b6106816040830184610592565b949350505050565b5f8115159050919050565b61069d81610689565b81146106a7575f80fd5b50565b5f815190506106b881610694565b92915050565b5f602082840312156106d3576106d2610309565b5b5f6106e0848285016106aa565b91505092915050565b5f82825260208201905092915050565b7f5472616e73666572206661696c65642e000000000000000000000000000000005f82015250565b5f61072d6010836106e9565b9150610738826106f9565b602082019050919050565b5f6020820190508181035f83015261075a81610721565b9050919050565b5f81519050919050565b7f4e487b71000000000000000000000000000000000000000000000000000000005f52602260045260245ffd5b5f60028204905060018216806107af57607f821691505b6020821081036107c2576107c161076b565b5b50919050565b5f819050815f5260205f209050919050565b5f6020601f8301049050919050565b5f82821b905092915050565b5f600883026108247fffffffffffffffffffffffffffffffffffffffffffffffffffffffffffffffff826107e9565b61082e86836107e9565b95508019841693508086168417925050509392505050565b5f61086061085b61085684610311565b6105f9565b610311565b9050919050565b5f819050919050565b61087983610846565b61088d61088582610867565b8484546107f5565b825550505050565b5f90565b6108a1610895565b6108ac818484610870565b505050565b5b818110156108cf576108c45f82610899565b6001810190506108b2565b5050565b601f821115610914576108e5816107c8565b6108ee846107da565b810160208510156108fd578190505b610911610909856107da565b8301826108b1565b50505b505050565b5f82821c905092915050565b5f6109345f1984600802610919565b1980831691505092915050565b5f61094c8383610925565b9150826002028217905092915050565b61096582610761565b67ffffffffffffffff81111561097e5761097d610387565b5b6109888254610798565b6109938282856108d3565b5f60209050601f8311600181146109c4575f84156109b2578287015190505b6109bc8582610941565b865550610a23565b601f1984166109d2866107c8565b5f5b828110156109f9578489015182556001820191506020850194506020810190506109d4565b86831015610a165784890151610a12601f891682610925565b8355505b6001600288020188555050505b505050505050565b7f4e487b71000000000000000000000000000000000000000000000000000000005f52601160045260245ffd5b5f610a6282610311565b91507fffffffffffffffffffffffffffffffffffffffffffffffffffffffffffffffff8203610a9457610a93610a2b565b5b60018201905091905056fea264697066735822122041b154534bd1fcf2331bbcee0e2a6ae19e58dfab17a9c1b55ea8da1ad756190364736f6c63430008160033",
					"opcodes": "PUSH1 0x80 PUSH1 0x40 MSTORE PUSH0 DUP1 SSTORE PUSH20 0xE8B6E6589697FBE845A1ED302DEE7F92F9C35C98 PUSH1 0x1 PUSH0 PUSH2 0x100 EXP DUP2 SLOAD DUP2 PUSH20 0xFFFFFFFFFFFFFFFFFFFFFFFFFFFFFFFFFFFFFFFF MUL NOT AND SWAP1 DUP4 PUSH20 0xFFFFFFFFFFFFFFFFFFFFFFFFFFFFFFFFFFFFFFFF AND MUL OR SWAP1 SSTORE POP CALLVALUE DUP1 ISZERO PUSH2 0x66 JUMPI PUSH0 DUP1 REVERT JUMPDEST POP PUSH2 0xAD5 DUP1 PUSH2 0x74 PUSH0 CODECOPY PUSH0 RETURN INVALID PUSH1 0x80 PUSH1 0x40 MSTORE PUSH1 0x4 CALLDATASIZE LT PUSH2 0x33 JUMPI PUSH0 CALLDATALOAD PUSH1 0xE0 SHR DUP1 PUSH4 0x8642269E EQ PUSH2 0x37 JUMPI DUP1 PUSH4 0x8DA8F27B EQ PUSH2 0x53 JUMPI DUP1 PUSH4 0xF2D61819 EQ PUSH2 0x7B JUMPI JUMPDEST PUSH0 DUP1 REVERT JUMPDEST PUSH2 0x51 PUSH1 0x4 DUP1 CALLDATASIZE SUB DUP2 ADD SWAP1 PUSH2 0x4C SWAP2 SWAP1 PUSH2 0x344 JUMP JUMPDEST PUSH2 0xA5 JUMP JUMPDEST STOP JUMPDEST CALLVALUE DUP1 ISZERO PUSH2 0x5E JUMPI PUSH0 DUP1 REVERT JUMPDEST POP PUSH2 0x79 PUSH1 0x4 DUP1 CALLDATASIZE SUB DUP2 ADD SWAP1 PUSH2 0x74 SWAP2 SWAP1 PUSH2 0x4AB JUMP JUMPDEST PUSH2 0x1CB JUMP JUMPDEST STOP JUMPDEST CALLVALUE DUP1 ISZERO PUSH2 0x86 JUMPI PUSH0 DUP1 REVERT JUMPDEST POP PUSH2 0x8F PUSH2 0x2F8 JUMP JUMPDEST PUSH1 0x40 MLOAD PUSH2 0x9C SWAP2 SWAP1 PUSH2 0x5A1 JUMP JUMPDEST PUSH1 0x40 MLOAD DUP1 SWAP2 SUB SWAP1 RETURN JUMPDEST PUSH1 0x1 PUSH0 SWAP1 SLOAD SWAP1 PUSH2 0x100 EXP SWAP1 DIV PUSH20 0xFFFFFFFFFFFFFFFFFFFFFFFFFFFFFFFFFFFFFFFF AND PUSH20 0xFFFFFFFFFFFFFFFFFFFFFFFFFFFFFFFFFFFFFFFF AND PUSH4 0x23B872DD CALLER PUSH1 0x2 PUSH0 DUP6 DUP2 MSTORE PUSH1 0x20 ADD SWAP1 DUP2 MSTORE PUSH1 0x20 ADD PUSH0 KECCAK256 PUSH0 ADD PUSH0 SWAP1 SLOAD SWAP1 PUSH2 0x100 EXP SWAP1 DIV PUSH20 0xFFFFFFFFFFFFFFFFFFFFFFFFFFFFFFFFFFFFFFFF AND PUSH1 0x2 PUSH0 DUP7 DUP2 MSTORE PUSH1 0x20 ADD SWAP1 DUP2 MSTORE PUSH1 0x20 ADD PUSH0 KECCAK256 PUSH1 0x5 ADD SLOAD PUSH1 0x40 MLOAD DUP5 PUSH4 0xFFFFFFFF AND PUSH1 0xE0 SHL DUP2 MSTORE PUSH1 0x4 ADD PUSH2 0x149 SWAP4 SWAP3 SWAP2 SWAP1 PUSH2 0x654 JUMP JUMPDEST PUSH1 0x20 PUSH1 0x40 MLOAD DUP1 DUP4 SUB DUP2 PUSH0 DUP8 GAS CALL ISZERO DUP1 ISZERO PUSH2 0x165 JUMPI RETURNDATASIZE PUSH0 DUP1 RETURNDATACOPY RETURNDATASIZE PUSH0 REVERT JUMPDEST POP POP POP POP PUSH1 0x40 MLOAD RETURNDATASIZE PUSH1 0x1F NOT PUSH1 0x1F DUP3 ADD AND DUP3 ADD DUP1 PUSH1 0x40 MSTORE POP DUP2 ADD SWAP1 PUSH2 0x189 SWAP2 SWAP1 PUSH2 0x6BE JUMP JUMPDEST PUSH2 0x1C8 JUMPI PUSH1 0x40 MLOAD PUSH32 0x8C379A000000000000000000000000000000000000000000000000000000000 DUP2 MSTORE PUSH1 0x4 ADD PUSH2 0x1BF SWAP1 PUSH2 0x743 JUMP JUMPDEST PUSH1 0x40 MLOAD DUP1 SWAP2 SUB SWAP1 REVERT JUMPDEST POP JUMP JUMPDEST PUSH0 PUSH1 0x40 MLOAD DUP1 PUSH1 0xE0 ADD PUSH1 0x40 MSTORE DUP1 CALLER PUSH20 0xFFFFFFFFFFFFFFFFFFFFFFFFFFFFFFFFFFFFFFFF AND DUP2 MSTORE PUSH1 0x20 ADD DUP8 DUP2 MSTORE PUSH1 0x20 ADD DUP7 DUP2 MSTORE PUSH1 0x20 ADD DUP6 DUP2 MSTORE PUSH1 0x20 ADD DUP5 DUP2 MSTORE PUSH1 0x20 ADD DUP4 DUP2 MSTORE PUSH1 0x20 ADD DUP3 DUP2 MSTORE POP PUSH1 0x2 PUSH0 DUP1 SLOAD DUP2 MSTORE PUSH1 0x20 ADD SWAP1 DUP2 MSTORE PUSH1 0x20 ADD PUSH0 KECCAK256 PUSH0 DUP3 ADD MLOAD DUP2 PUSH0 ADD PUSH0 PUSH2 0x100 EXP DUP2 SLOAD DUP2 PUSH20 0xFFFFFFFFFFFFFFFFFFFFFFFFFFFFFFFFFFFFFFFF MUL NOT AND SWAP1 DUP4 PUSH20 0xFFFFFFFFFFFFFFFFFFFFFFFFFFFFFFFFFFFFFFFF AND MUL OR SWAP1 SSTORE POP PUSH1 0x20 DUP3 ADD MLOAD DUP2 PUSH1 0x1 ADD SWAP1 DUP2 PUSH2 0x280 SWAP2 SWAP1 PUSH2 0x95C JUMP JUMPDEST POP PUSH1 0x40 DUP3 ADD MLOAD DUP2 PUSH1 0x2 ADD SWAP1 DUP2 PUSH2 0x296 SWAP2 SWAP1 PUSH2 0x95C JUMP JUMPDEST POP PUSH1 0x60 DUP3 ADD MLOAD DUP2 PUSH1 0x3 ADD SWAP1 DUP2 PUSH2 0x2AC SWAP2 SWAP1 PUSH2 0x95C JUMP JUMPDEST POP PUSH1 0x80 DUP3 ADD MLOAD DUP2 PUSH1 0x4 ADD SWAP1 DUP2 PUSH2 0x2C2 SWAP2 SWAP1 PUSH2 0x95C JUMP JUMPDEST POP PUSH1 0xA0 DUP3 ADD MLOAD DUP2 PUSH1 0x5 ADD SSTORE PUSH1 0xC0 DUP3 ADD MLOAD DUP2 PUSH1 0x6 ADD SSTORE SWAP1 POP POP PUSH0 DUP1 DUP2 SLOAD DUP1 SWAP3 SWAP2 SWAP1 PUSH2 0x2EB SWAP1 PUSH2 0xA58 JUMP JUMPDEST SWAP2 SWAP1 POP SSTORE POP POP POP POP POP POP POP JUMP JUMPDEST PUSH0 DUP1 SLOAD SWAP1 POP SWAP1 JUMP JUMPDEST PUSH0 PUSH1 0x40 MLOAD SWAP1 POP SWAP1 JUMP JUMPDEST PUSH0 DUP1 REVERT JUMPDEST PUSH0 DUP1 REVERT JUMPDEST PUSH0 DUP2 SWAP1 POP SWAP2 SWAP1 POP JUMP JUMPDEST PUSH2 0x323 DUP2 PUSH2 0x311 JUMP JUMPDEST DUP2 EQ PUSH2 0x32D JUMPI PUSH0 DUP1 REVERT JUMPDEST POP JUMP JUMPDEST PUSH0 DUP2 CALLDATALOAD SWAP1 POP PUSH2 0x33E DUP2 PUSH2 0x31A JUMP JUMPDEST SWAP3 SWAP2 POP POP JUMP JUMPDEST PUSH0 PUSH1 0x20 DUP3 DUP5 SUB SLT ISZERO PUSH2 0x359 JUMPI PUSH2 0x358 PUSH2 0x309 JUMP JUMPDEST JUMPDEST PUSH0 PUSH2 0x366 DUP5 DUP3 DUP6 ADD PUSH2 0x330 JUMP JUMPDEST SWAP2 POP POP SWAP3 SWAP2 POP POP JUMP JUMPDEST PUSH0 DUP1 REVERT JUMPDEST PUSH0 DUP1 REVERT JUMPDEST PUSH0 PUSH1 0x1F NOT PUSH1 0x1F DUP4 ADD AND SWAP1 POP SWAP2 SWAP1 POP JUMP JUMPDEST PUSH32 0x4E487B7100000000000000000000000000000000000000000000000000000000 PUSH0 MSTORE PUSH1 0x41 PUSH1 0x4 MSTORE PUSH1 0x24 PUSH0 REVERT JUMPDEST PUSH2 0x3BD DUP3 PUSH2 0x377 JUMP JUMPDEST DUP2 ADD DUP2 DUP2 LT PUSH8 0xFFFFFFFFFFFFFFFF DUP3 GT OR ISZERO PUSH2 0x3DC JUMPI PUSH2 0x3DB PUSH2 0x387 JUMP JUMPDEST JUMPDEST DUP1 PUSH1 0x40 MSTORE POP POP POP JUMP JUMPDEST PUSH0 PUSH2 0x3EE PUSH2 0x300 JUMP JUMPDEST SWAP1 POP PUSH2 0x3FA DUP3 DUP3 PUSH2 0x3B4 JUMP JUMPDEST SWAP2 SWAP1 POP JUMP JUMPDEST PUSH0 PUSH8 0xFFFFFFFFFFFFFFFF DUP3 GT ISZERO PUSH2 0x419 JUMPI PUSH2 0x418 PUSH2 0x387 JUMP JUMPDEST JUMPDEST PUSH2 0x422 DUP3 PUSH2 0x377 JUMP JUMPDEST SWAP1 POP PUSH1 0x20 DUP2 ADD SWAP1 POP SWAP2 SWAP1 POP JUMP JUMPDEST DUP3 DUP2 DUP4 CALLDATACOPY PUSH0 DUP4 DUP4 ADD MSTORE POP POP POP JUMP JUMPDEST PUSH0 PUSH2 0x44F PUSH2 0x44A DUP5 PUSH2 0x3FF JUMP JUMPDEST PUSH2 0x3E5 JUMP JUMPDEST SWAP1 POP DUP3 DUP2 MSTORE PUSH1 0x20 DUP2 ADD DUP5 DUP5 DUP5 ADD GT ISZERO PUSH2 0x46B JUMPI PUSH2 0x46A PUSH2 0x373 JUMP JUMPDEST JUMPDEST PUSH2 0x476 DUP5 DUP3 DUP6 PUSH2 0x42F JUMP JUMPDEST POP SWAP4 SWAP3 POP POP POP JUMP JUMPDEST PUSH0 DUP3 PUSH1 0x1F DUP4 ADD SLT PUSH2 0x492 JUMPI PUSH2 0x491 PUSH2 0x36F JUMP JUMPDEST JUMPDEST DUP2 CALLDATALOAD PUSH2 0x4A2 DUP5 DUP3 PUSH1 0x20 DUP7 ADD PUSH2 0x43D JUMP JUMPDEST SWAP2 POP POP SWAP3 SWAP2 POP POP JUMP JUMPDEST PUSH0 DUP1 PUSH0 DUP1 PUSH0 PUSH1 0xA0 DUP7 DUP9 SUB SLT ISZERO PUSH2 0x4C4 JUMPI PUSH2 0x4C3 PUSH2 0x309 JUMP JUMPDEST JUMPDEST PUSH0 DUP7 ADD CALLDATALOAD PUSH8 0xFFFFFFFFFFFFFFFF DUP2 GT ISZERO PUSH2 0x4E1 JUMPI PUSH2 0x4E0 PUSH2 0x30D JUMP JUMPDEST JUMPDEST PUSH2 0x4ED DUP9 DUP3 DUP10 ADD PUSH2 0x47E JUMP JUMPDEST SWAP6 POP POP PUSH1 0x20 DUP7 ADD CALLDATALOAD PUSH8 0xFFFFFFFFFFFFFFFF DUP2 GT ISZERO PUSH2 0x50E JUMPI PUSH2 0x50D PUSH2 0x30D JUMP JUMPDEST JUMPDEST PUSH2 0x51A DUP9 DUP3 DUP10 ADD PUSH2 0x47E JUMP JUMPDEST SWAP5 POP POP PUSH1 0x40 DUP7 ADD CALLDATALOAD PUSH8 0xFFFFFFFFFFFFFFFF DUP2 GT ISZERO PUSH2 0x53B JUMPI PUSH2 0x53A PUSH2 0x30D JUMP JUMPDEST JUMPDEST PUSH2 0x547 DUP9 DUP3 DUP10 ADD PUSH2 0x47E JUMP JUMPDEST SWAP4 POP POP PUSH1 0x60 DUP7 ADD CALLDATALOAD PUSH8 0xFFFFFFFFFFFFFFFF DUP2 GT ISZERO PUSH2 0x568 JUMPI PUSH2 0x567 PUSH2 0x30D JUMP JUMPDEST JUMPDEST PUSH2 0x574 DUP9 DUP3 DUP10 ADD PUSH2 0x47E JUMP JUMPDEST SWAP3 POP POP PUSH1 0x80 PUSH2 0x585 DUP9 DUP3 DUP10 ADD PUSH2 0x330 JUMP JUMPDEST SWAP2 POP POP SWAP3 SWAP6 POP SWAP3 SWAP6 SWAP1 SWAP4 POP JUMP JUMPDEST PUSH2 0x59B DUP2 PUSH2 0x311 JUMP JUMPDEST DUP3 MSTORE POP POP JUMP JUMPDEST PUSH0 PUSH1 0x20 DUP3 ADD SWAP1 POP PUSH2 0x5B4 PUSH0 DUP4 ADD DUP5 PUSH2 0x592 JUMP JUMPDEST SWAP3 SWAP2 POP POP JUMP JUMPDEST PUSH0 PUSH20 0xFFFFFFFFFFFFFFFFFFFFFFFFFFFFFFFFFFFFFFFF DUP3 AND SWAP1 POP SWAP2 SWAP1 POP JUMP JUMPDEST PUSH0 PUSH2 0x5E3 DUP3 PUSH2 0x5BA JUMP JUMPDEST SWAP1 POP SWAP2 SWAP1 POP JUMP JUMPDEST PUSH2 0x5F3 DUP2 PUSH2 0x5D9 JUMP JUMPDEST DUP3 MSTORE POP POP JUMP JUMPDEST PUSH0 DUP2 SWAP1 POP SWAP2 SWAP1 POP JUMP JUMPDEST PUSH0 PUSH2 0x61C PUSH2 0x617 PUSH2 0x612 DUP5 PUSH2 0x5BA JUMP JUMPDEST PUSH2 0x5F9 JUMP JUMPDEST PUSH2 0x5BA JUMP JUMPDEST SWAP1 POP SWAP2 SWAP1 POP JUMP JUMPDEST PUSH0 PUSH2 0x62D DUP3 PUSH2 0x602 JUMP JUMPDEST SWAP1 POP SWAP2 SWAP1 POP JUMP JUMPDEST PUSH0 PUSH2 0x63E DUP3 PUSH2 0x623 JUMP JUMPDEST SWAP1 POP SWAP2 SWAP1 POP JUMP JUMPDEST PUSH2 0x64E DUP2 PUSH2 0x634 JUMP JUMPDEST DUP3 MSTORE POP POP JUMP JUMPDEST PUSH0 PUSH1 0x60 DUP3 ADD SWAP1 POP PUSH2 0x667 PUSH0 DUP4 ADD DUP7 PUSH2 0x5EA JUMP JUMPDEST PUSH2 0x674 PUSH1 0x20 DUP4 ADD DUP6 PUSH2 0x645 JUMP JUMPDEST PUSH2 0x681 PUSH1 0x40 DUP4 ADD DUP5 PUSH2 0x592 JUMP JUMPDEST SWAP5 SWAP4 POP POP POP POP JUMP JUMPDEST PUSH0 DUP2 ISZERO ISZERO SWAP1 POP SWAP2 SWAP1 POP JUMP JUMPDEST PUSH2 0x69D DUP2 PUSH2 0x689 JUMP JUMPDEST DUP2 EQ PUSH2 0x6A7 JUMPI PUSH0 DUP1 REVERT JUMPDEST POP JUMP JUMPDEST PUSH0 DUP2 MLOAD SWAP1 POP PUSH2 0x6B8 DUP2 PUSH2 0x694 JUMP JUMPDEST SWAP3 SWAP2 POP POP JUMP JUMPDEST PUSH0 PUSH1 0x20 DUP3 DUP5 SUB SLT ISZERO PUSH2 0x6D3 JUMPI PUSH2 0x6D2 PUSH2 0x309 JUMP JUMPDEST JUMPDEST PUSH0 PUSH2 0x6E0 DUP5 DUP3 DUP6 ADD PUSH2 0x6AA JUMP JUMPDEST SWAP2 POP POP SWAP3 SWAP2 POP POP JUMP JUMPDEST PUSH0 DUP3 DUP3 MSTORE PUSH1 0x20 DUP3 ADD SWAP1 POP SWAP3 SWAP2 POP POP JUMP JUMPDEST PUSH32 0x5472616E73666572206661696C65642E00000000000000000000000000000000 PUSH0 DUP3 ADD MSTORE POP JUMP JUMPDEST PUSH0 PUSH2 0x72D PUSH1 0x10 DUP4 PUSH2 0x6E9 JUMP JUMPDEST SWAP2 POP PUSH2 0x738 DUP3 PUSH2 0x6F9 JUMP JUMPDEST PUSH1 0x20 DUP3 ADD SWAP1 POP SWAP2 SWAP1 POP JUMP JUMPDEST PUSH0 PUSH1 0x20 DUP3 ADD SWAP1 POP DUP2 DUP2 SUB PUSH0 DUP4 ADD MSTORE PUSH2 0x75A DUP2 PUSH2 0x721 JUMP JUMPDEST SWAP1 POP SWAP2 SWAP1 POP JUMP JUMPDEST PUSH0 DUP2 MLOAD SWAP1 POP SWAP2 SWAP1 POP JUMP JUMPDEST PUSH32 0x4E487B7100000000000000000000000000000000000000000000000000000000 PUSH0 MSTORE PUSH1 0x22 PUSH1 0x4 MSTORE PUSH1 0x24 PUSH0 REVERT JUMPDEST PUSH0 PUSH1 0x2 DUP3 DIV SWAP1 POP PUSH1 0x1 DUP3 AND DUP1 PUSH2 0x7AF JUMPI PUSH1 0x7F DUP3 AND SWAP2 POP JUMPDEST PUSH1 0x20 DUP3 LT DUP2 SUB PUSH2 0x7C2 JUMPI PUSH2 0x7C1 PUSH2 0x76B JUMP JUMPDEST JUMPDEST POP SWAP2 SWAP1 POP JUMP JUMPDEST PUSH0 DUP2 SWAP1 POP DUP2 PUSH0 MSTORE PUSH1 0x20 PUSH0 KECCAK256 SWAP1 POP SWAP2 SWAP1 POP JUMP JUMPDEST PUSH0 PUSH1 0x20 PUSH1 0x1F DUP4 ADD DIV SWAP1 POP SWAP2 SWAP1 POP JUMP JUMPDEST PUSH0 DUP3 DUP3 SHL SWAP1 POP SWAP3 SWAP2 POP POP JUMP JUMPDEST PUSH0 PUSH1 0x8 DUP4 MUL PUSH2 0x824 PUSH32 0xFFFFFFFFFFFFFFFFFFFFFFFFFFFFFFFFFFFFFFFFFFFFFFFFFFFFFFFFFFFFFFFF DUP3 PUSH2 0x7E9 JUMP JUMPDEST PUSH2 0x82E DUP7 DUP4 PUSH2 0x7E9 JUMP JUMPDEST SWAP6 POP DUP1 NOT DUP5 AND SWAP4 POP DUP1 DUP7 AND DUP5 OR SWAP3 POP POP POP SWAP4 SWAP3 POP POP POP JUMP JUMPDEST PUSH0 PUSH2 0x860 PUSH2 0x85B PUSH2 0x856 DUP5 PUSH2 0x311 JUMP JUMPDEST PUSH2 0x5F9 JUMP JUMPDEST PUSH2 0x311 JUMP JUMPDEST SWAP1 POP SWAP2 SWAP1 POP JUMP JUMPDEST PUSH0 DUP2 SWAP1 POP SWAP2 SWAP1 POP JUMP JUMPDEST PUSH2 0x879 DUP4 PUSH2 0x846 JUMP JUMPDEST PUSH2 0x88D PUSH2 0x885 DUP3 PUSH2 0x867 JUMP JUMPDEST DUP5 DUP5 SLOAD PUSH2 0x7F5 JUMP JUMPDEST DUP3 SSTORE POP POP POP POP JUMP JUMPDEST PUSH0 SWAP1 JUMP JUMPDEST PUSH2 0x8A1 PUSH2 0x895 JUMP JUMPDEST PUSH2 0x8AC DUP2 DUP5 DUP5 PUSH2 0x870 JUMP JUMPDEST POP POP POP JUMP JUMPDEST JUMPDEST DUP2 DUP2 LT ISZERO PUSH2 0x8CF JUMPI PUSH2 0x8C4 PUSH0 DUP3 PUSH2 0x899 JUMP JUMPDEST PUSH1 0x1 DUP2 ADD SWAP1 POP PUSH2 0x8B2 JUMP JUMPDEST POP POP JUMP JUMPDEST PUSH1 0x1F DUP3 GT ISZERO PUSH2 0x914 JUMPI PUSH2 0x8E5 DUP2 PUSH2 0x7C8 JUMP JUMPDEST PUSH2 0x8EE DUP5 PUSH2 0x7DA JUMP JUMPDEST DUP2 ADD PUSH1 0x20 DUP6 LT ISZERO PUSH2 0x8FD JUMPI DUP2 SWAP1 POP JUMPDEST PUSH2 0x911 PUSH2 0x909 DUP6 PUSH2 0x7DA JUMP JUMPDEST DUP4 ADD DUP3 PUSH2 0x8B1 JUMP JUMPDEST POP POP JUMPDEST POP POP POP JUMP JUMPDEST PUSH0 DUP3 DUP3 SHR SWAP1 POP SWAP3 SWAP2 POP POP JUMP JUMPDEST PUSH0 PUSH2 0x934 PUSH0 NOT DUP5 PUSH1 0x8 MUL PUSH2 0x919 JUMP JUMPDEST NOT DUP1 DUP4 AND SWAP2 POP POP SWAP3 SWAP2 POP POP JUMP JUMPDEST PUSH0 PUSH2 0x94C DUP4 DUP4 PUSH2 0x925 JUMP JUMPDEST SWAP2 POP DUP3 PUSH1 0x2 MUL DUP3 OR SWAP1 POP SWAP3 SWAP2 POP POP JUMP JUMPDEST PUSH2 0x965 DUP3 PUSH2 0x761 JUMP JUMPDEST PUSH8 0xFFFFFFFFFFFFFFFF DUP2 GT ISZERO PUSH2 0x97E JUMPI PUSH2 0x97D PUSH2 0x387 JUMP JUMPDEST JUMPDEST PUSH2 0x988 DUP3 SLOAD PUSH2 0x798 JUMP JUMPDEST PUSH2 0x993 DUP3 DUP3 DUP6 PUSH2 0x8D3 JUMP JUMPDEST PUSH0 PUSH1 0x20 SWAP1 POP PUSH1 0x1F DUP4 GT PUSH1 0x1 DUP2 EQ PUSH2 0x9C4 JUMPI PUSH0 DUP5 ISZERO PUSH2 0x9B2 JUMPI DUP3 DUP8 ADD MLOAD SWAP1 POP JUMPDEST PUSH2 0x9BC DUP6 DUP3 PUSH2 0x941 JUMP JUMPDEST DUP7 SSTORE POP PUSH2 0xA23 JUMP JUMPDEST PUSH1 0x1F NOT DUP5 AND PUSH2 0x9D2 DUP7 PUSH2 0x7C8 JUMP JUMPDEST PUSH0 JUMPDEST DUP3 DUP2 LT ISZERO PUSH2 0x9F9 JUMPI DUP5 DUP10 ADD MLOAD DUP3 SSTORE PUSH1 0x1 DUP3 ADD SWAP2 POP PUSH1 0x20 DUP6 ADD SWAP5 POP PUSH1 0x20 DUP2 ADD SWAP1 POP PUSH2 0x9D4 JUMP JUMPDEST DUP7 DUP4 LT ISZERO PUSH2 0xA16 JUMPI DUP5 DUP10 ADD MLOAD PUSH2 0xA12 PUSH1 0x1F DUP10 AND DUP3 PUSH2 0x925 JUMP JUMPDEST DUP4 SSTORE POP JUMPDEST PUSH1 0x1 PUSH1 0x2 DUP9 MUL ADD DUP9 SSTORE POP POP POP JUMPDEST POP POP POP POP POP POP JUMP JUMPDEST PUSH32 0x4E487B7100000000000000000000000000000000000000000000000000000000 PUSH0 MSTORE PUSH1 0x11 PUSH1 0x4 MSTORE PUSH1 0x24 PUSH0 REVERT JUMPDEST PUSH0 PUSH2 0xA62 DUP3 PUSH2 0x311 JUMP JUMPDEST SWAP2 POP PUSH32 0xFFFFFFFFFFFFFFFFFFFFFFFFFFFFFFFFFFFFFFFFFFFFFFFFFFFFFFFFFFFFFFFF DUP3 SUB PUSH2 0xA94 JUMPI PUSH2 0xA93 PUSH2 0xA2B JUMP JUMPDEST JUMPDEST PUSH1 0x1 DUP3 ADD SWAP1 POP SWAP2 SWAP1 POP JUMP INVALID LOG2 PUSH5 0x6970667358 0x22 SLT KECCAK256 COINBASE 0xB1 SLOAD MSTORE8 0x4B 0xD1 0xFC CALLCODE CALLER SHL 0xBC 0xEE 0xE 0x2A PUSH11 0xE19E58DFAB17A9C1B55EA8 0xDA BYTE 0xD7 JUMP NOT SUB PUSH5 0x736F6C6343 STOP ADDMOD AND STOP CALLER "
				},
				"gasEstimates": {
					"creation": {
						"codeDepositCost": "554600",
						"executionCost": "29856",
						"totalCost": "584456"
					},
					"external": {
						"buyProduct(uint256)": "infinite",
						"getProductLength()": "2454",
						"writeProduct(string,string,string,string,uint256)": "infinite"
					}
				},
				"methodIdentifiers": {
					"buyProduct(uint256)": "8642269e",
					"getProductLength()": "f2d61819",
					"writeProduct(string,string,string,string,uint256)": "8da8f27b"
				}
			},
			"storageLayout": {
				"storage": [
					{
						"astId": 71,
						"contract": "smart-contract/transactions_and_ERC20_Interface.sol:Marketplace",
						"label": "productsLength",
						"offset": 0,
						"slot": "0",
						"type": "t_uint256"
					},
					{
						"astId": 74,
						"contract": "smart-contract/transactions_and_ERC20_Interface.sol:Marketplace",
						"label": "cUsdTokenAddress",
						"offset": 0,
						"slot": "1",
						"type": "t_address"
					},
					{
						"astId": 94,
						"contract": "smart-contract/transactions_and_ERC20_Interface.sol:Marketplace",
						"label": "products",
						"offset": 0,
						"slot": "2",
						"type": "t_mapping(t_uint256,t_struct(Product)89_storage)"
					}
				],
				"types": {
					"t_address": {
						"encoding": "inplace",
						"label": "address",
						"numberOfBytes": "20"
					},
					"t_address_payable": {
						"encoding": "inplace",
						"label": "address payable",
						"numberOfBytes": "20"
					},
					"t_mapping(t_uint256,t_struct(Product)89_storage)": {
						"encoding": "mapping",
						"key": "t_uint256",
						"label": "mapping(uint256 => struct Marketplace.Product)",
						"numberOfBytes": "32",
						"value": "t_struct(Product)89_storage"
					},
					"t_string_storage": {
						"encoding": "bytes",
						"label": "string",
						"numberOfBytes": "32"
					},
					"t_struct(Product)89_storage": {
						"encoding": "inplace",
						"label": "struct Marketplace.Product",
						"members": [
							{
								"astId": 76,
								"contract": "smart-contract/transactions_and_ERC20_Interface.sol:Marketplace",
								"label": "owner",
								"offset": 0,
								"slot": "0",
								"type": "t_address_payable"
							},
							{
								"astId": 78,
								"contract": "smart-contract/transactions_and_ERC20_Interface.sol:Marketplace",
								"label": "name",
								"offset": 0,
								"slot": "1",
								"type": "t_string_storage"
							},
							{
								"astId": 80,
								"contract": "smart-contract/transactions_and_ERC20_Interface.sol:Marketplace",
								"label": "image",
								"offset": 0,
								"slot": "2",
								"type": "t_string_storage"
							},
							{
								"astId": 82,
								"contract": "smart-contract/transactions_and_ERC20_Interface.sol:Marketplace",
								"label": "description",
								"offset": 0,
								"slot": "3",
								"type": "t_string_storage"
							},
							{
								"astId": 84,
								"contract": "smart-contract/transactions_and_ERC20_Interface.sol:Marketplace",
								"label": "location",
								"offset": 0,
								"slot": "4",
								"type": "t_string_storage"
							},
							{
								"astId": 86,
								"contract": "smart-contract/transactions_and_ERC20_Interface.sol:Marketplace",
								"label": "price",
								"offset": 0,
								"slot": "5",
								"type": "t_uint256"
							},
							{
								"astId": 88,
								"contract": "smart-contract/transactions_and_ERC20_Interface.sol:Marketplace",
								"label": "sold",
								"offset": 0,
								"slot": "6",
								"type": "t_uint256"
							}
						],
						"numberOfBytes": "224"
					},
					"t_uint256": {
						"encoding": "inplace",
						"label": "uint256",
						"numberOfBytes": "32"
					}
				}
			},
			"userdoc": {
				"kind": "user",
				"methods": {},
				"version": 1
			}
		}
	}
}