{
	"smart-contract/optimasing_the_contract.sol": {
		"Marketplace": {
			"abi": [
				{
					"inputs": [],
					"name": "getProductLength",
					"outputs": [
						{
							"internalType": "uint256",
							"name": "",
							"type": "uint256"
						}
					],
					"stateMutability": "view",
					"type": "function"
				},
				{
					"inputs": [
						{
							"internalType": "string",
							"name": "_name",
							"type": "string"
						},
						{
							"internalType": "string",
							"name": "_image",
							"type": "string"
						},
						{
							"internalType": "string",
							"name": "_description",
							"type": "string"
						},
						{
							"internalType": "string",
							"name": "_location",
							"type": "string"
						},
						{
							"internalType": "uint256",
							"name": "_price",
							"type": "uint256"
						}
					],
					"name": "writeProduct",
					"outputs": [],
					"stateMutability": "nonpayable",
					"type": "function"
				}
			],
			"devdoc": {
				"kind": "dev",
				"methods": {},
				"version": 1
			},
			"evm": {
				"assembly": "    /* \"smart-contract/optimasing_the_contract.sol\":185:1054  contract Marketplace{... */\n  mstore(0x40, 0x80)\n    /* \"smart-contract/optimasing_the_contract.sol\":242:243  0 */\n  0x00\n    /* \"smart-contract/optimasing_the_contract.sol\":211:243  uint internal productsLength = 0 */\n  dup1\n  sstore\n    /* \"smart-contract/optimasing_the_contract.sol\":185:1054  contract Marketplace{... */\n  callvalue\n  dup1\n  iszero\n  tag_1\n  jumpi\n  0x00\n  dup1\n  revert\ntag_1:\n  pop\n  dataSize(sub_0)\n  dup1\n  dataOffset(sub_0)\n  0x00\n  codecopy\n  0x00\n  return\nstop\n\nsub_0: assembly {\n        /* \"smart-contract/optimasing_the_contract.sol\":185:1054  contract Marketplace{... */\n      mstore(0x40, 0x80)\n      callvalue\n      dup1\n      iszero\n      tag_1\n      jumpi\n      0x00\n      dup1\n      revert\n    tag_1:\n      pop\n      jumpi(tag_2, lt(calldatasize, 0x04))\n      shr(0xe0, calldataload(0x00))\n      dup1\n      0x8da8f27b\n      eq\n      tag_3\n      jumpi\n      dup1\n      0xf2d61819\n      eq\n      tag_4\n      jumpi\n    tag_2:\n      0x00\n      dup1\n      revert\n        /* \"smart-contract/optimasing_the_contract.sol\":496:951  function writeProduct(... */\n    tag_3:\n      tag_5\n      0x04\n      dup1\n      calldatasize\n      sub\n      dup2\n      add\n      swap1\n      tag_6\n      swap2\n      swap1\n      tag_7\n      jump\t// in\n    tag_6:\n      tag_8\n      jump\t// in\n    tag_5:\n      stop\n        /* \"smart-contract/optimasing_the_contract.sol\":957:1052  function getProductLength() public view returns (uint) {... */\n    tag_4:\n      tag_9\n      tag_10\n      jump\t// in\n    tag_9:\n      mload(0x40)\n      tag_11\n      swap2\n      swap1\n      tag_12\n      jump\t// in\n    tag_11:\n      mload(0x40)\n      dup1\n      swap2\n      sub\n      swap1\n      return\n        /* \"smart-contract/optimasing_the_contract.sol\":496:951  function writeProduct(... */\n    tag_8:\n        /* \"smart-contract/optimasing_the_contract.sol\":690:700  uint _sold */\n      0x00\n        /* \"smart-contract/optimasing_the_contract.sol\":741:918  Product(... */\n      mload(0x40)\n      dup1\n      0xe0\n      add\n      0x40\n      mstore\n      dup1\n        /* \"smart-contract/optimasing_the_contract.sol\":770:780  msg.sender */\n      caller\n        /* \"smart-contract/optimasing_the_contract.sol\":741:918  Product(... */\n      0xffffffffffffffffffffffffffffffffffffffff\n      and\n      dup2\n      mstore\n      0x20\n      add\n        /* \"smart-contract/optimasing_the_contract.sol\":795:800  _name */\n      dup8\n        /* \"smart-contract/optimasing_the_contract.sol\":741:918  Product(... */\n      dup2\n      mstore\n      0x20\n      add\n        /* \"smart-contract/optimasing_the_contract.sol\":814:820  _image */\n      dup7\n        /* \"smart-contract/optimasing_the_contract.sol\":741:918  Product(... */\n      dup2\n      mstore\n      0x20\n      add\n        /* \"smart-contract/optimasing_the_contract.sol\":834:846  _description */\n      dup6\n        /* \"smart-contract/optimasing_the_contract.sol\":741:918  Product(... */\n      dup2\n      mstore\n      0x20\n      add\n        /* \"smart-contract/optimasing_the_contract.sol\":860:869  _location */\n      dup5\n        /* \"smart-contract/optimasing_the_contract.sol\":741:918  Product(... */\n      dup2\n      mstore\n      0x20\n      add\n        /* \"smart-contract/optimasing_the_contract.sol\":883:889  _price */\n      dup4\n        /* \"smart-contract/optimasing_the_contract.sol\":741:918  Product(... */\n      dup2\n      mstore\n      0x20\n      add\n        /* \"smart-contract/optimasing_the_contract.sol\":903:908  _sold */\n      dup3\n        /* \"smart-contract/optimasing_the_contract.sol\":741:918  Product(... */\n      dup2\n      mstore\n      pop\n        /* \"smart-contract/optimasing_the_contract.sol\":714:722  products */\n      0x01\n        /* \"smart-contract/optimasing_the_contract.sol\":714:738  products[productsLength] */\n      0x00\n        /* \"smart-contract/optimasing_the_contract.sol\":723:737  productsLength */\n      dup1\n      sload\n        /* \"smart-contract/optimasing_the_contract.sol\":714:738  products[productsLength] */\n      dup2\n      mstore\n      0x20\n      add\n      swap1\n      dup2\n      mstore\n      0x20\n      add\n      0x00\n      keccak256\n        /* \"smart-contract/optimasing_the_contract.sol\":714:918  products[productsLength] = Product(... */\n      0x00\n      dup3\n      add\n      mload\n      dup2\n      0x00\n      add\n      exp(0x0100, 0x00)\n      dup2\n      sload\n      dup2\n      0xffffffffffffffffffffffffffffffffffffffff\n      mul\n      not\n      and\n      swap1\n      dup4\n      0xffffffffffffffffffffffffffffffffffffffff\n      and\n      mul\n      or\n      swap1\n      sstore\n      pop\n      0x20\n      dup3\n      add\n      mload\n      dup2\n      0x01\n      add\n      swap1\n      dup2\n      tag_14\n      swap2\n      swap1\n      tag_15\n      jump\t// in\n    tag_14:\n      pop\n      0x40\n      dup3\n      add\n      mload\n      dup2\n      0x02\n      add\n      swap1\n      dup2\n      tag_16\n      swap2\n      swap1\n      tag_15\n      jump\t// in\n    tag_16:\n      pop\n      0x60\n      dup3\n      add\n      mload\n      dup2\n      0x03\n      add\n      swap1\n      dup2\n      tag_17\n      swap2\n      swap1\n      tag_15\n      jump\t// in\n    tag_17:\n      pop\n      0x80\n      dup3\n      add\n      mload\n      dup2\n      0x04\n      add\n      swap1\n      dup2\n      tag_18\n      swap2\n      swap1\n      tag_15\n      jump\t// in\n    tag_18:\n      pop\n      0xa0\n      dup3\n      add\n      mload\n      dup2\n      0x05\n      add\n      sstore\n      0xc0\n      dup3\n      add\n      mload\n      dup2\n      0x06\n      add\n      sstore\n      swap1\n      pop\n      pop\n        /* \"smart-contract/optimasing_the_contract.sol\":928:942  productsLength */\n      0x00\n      dup1\n        /* \"smart-contract/optimasing_the_contract.sol\":928:944  productsLength++ */\n      dup2\n      sload\n      dup1\n      swap3\n      swap2\n      swap1\n      tag_19\n      swap1\n      tag_20\n      jump\t// in\n    tag_19:\n      swap2\n      swap1\n      pop\n      sstore\n      pop\n        /* \"smart-contract/optimasing_the_contract.sol\":680:951  {... */\n      pop\n        /* \"smart-contract/optimasing_the_contract.sol\":496:951  function writeProduct(... */\n      pop\n      pop\n      pop\n      pop\n      pop\n      jump\t// out\n        /* \"smart-contract/optimasing_the_contract.sol\":957:1052  function getProductLength() public view returns (uint) {... */\n    tag_10:\n        /* \"smart-contract/optimasing_the_contract.sol\":1006:1010  uint */\n      0x00\n        /* \"smart-contract/optimasing_the_contract.sol\":1030:1044  productsLength */\n      dup1\n      sload\n        /* \"smart-contract/optimasing_the_contract.sol\":1022:1045  return (productsLength) */\n      swap1\n      pop\n        /* \"smart-contract/optimasing_the_contract.sol\":957:1052  function getProductLength() public view returns (uint) {... */\n      swap1\n      jump\t// out\n        /* \"#utility.yul\":7:82   */\n    tag_22:\n        /* \"#utility.yul\":40:46   */\n      0x00\n        /* \"#utility.yul\":73:75   */\n      0x40\n        /* \"#utility.yul\":67:76   */\n      mload\n        /* \"#utility.yul\":57:76   */\n      swap1\n      pop\n        /* \"#utility.yul\":7:82   */\n      swap1\n      jump\t// out\n        /* \"#utility.yul\":88:205   */\n    tag_23:\n        /* \"#utility.yul\":197:198   */\n      0x00\n        /* \"#utility.yul\":194:195   */\n      dup1\n        /* \"#utility.yul\":187:199   */\n      revert\n        /* \"#utility.yul\":211:328   */\n    tag_24:\n        /* \"#utility.yul\":320:321   */\n      0x00\n        /* \"#utility.yul\":317:318   */\n      dup1\n        /* \"#utility.yul\":310:322   */\n      revert\n        /* \"#utility.yul\":334:451   */\n    tag_25:\n        /* \"#utility.yul\":443:444   */\n      0x00\n        /* \"#utility.yul\":440:441   */\n      dup1\n        /* \"#utility.yul\":433:445   */\n      revert\n        /* \"#utility.yul\":457:574   */\n    tag_26:\n        /* \"#utility.yul\":566:567   */\n      0x00\n        /* \"#utility.yul\":563:564   */\n      dup1\n        /* \"#utility.yul\":556:568   */\n      revert\n        /* \"#utility.yul\":580:682   */\n    tag_27:\n        /* \"#utility.yul\":621:627   */\n      0x00\n        /* \"#utility.yul\":672:674   */\n      0x1f\n        /* \"#utility.yul\":668:675   */\n      not\n        /* \"#utility.yul\":663:665   */\n      0x1f\n        /* \"#utility.yul\":656:661   */\n      dup4\n        /* \"#utility.yul\":652:666   */\n      add\n        /* \"#utility.yul\":648:676   */\n      and\n        /* \"#utility.yul\":638:676   */\n      swap1\n      pop\n        /* \"#utility.yul\":580:682   */\n      swap2\n      swap1\n      pop\n      jump\t// out\n        /* \"#utility.yul\":688:868   */\n    tag_28:\n        /* \"#utility.yul\":736:813   */\n      0x4e487b7100000000000000000000000000000000000000000000000000000000\n        /* \"#utility.yul\":733:734   */\n      0x00\n        /* \"#utility.yul\":726:814   */\n      mstore\n        /* \"#utility.yul\":833:837   */\n      0x41\n        /* \"#utility.yul\":830:831   */\n      0x04\n        /* \"#utility.yul\":823:838   */\n      mstore\n        /* \"#utility.yul\":857:861   */\n      0x24\n        /* \"#utility.yul\":854:855   */\n      0x00\n        /* \"#utility.yul\":847:862   */\n      revert\n        /* \"#utility.yul\":874:1155   */\n    tag_29:\n        /* \"#utility.yul\":957:984   */\n      tag_67\n        /* \"#utility.yul\":979:983   */\n      dup3\n        /* \"#utility.yul\":957:984   */\n      tag_27\n      jump\t// in\n    tag_67:\n        /* \"#utility.yul\":949:955   */\n      dup2\n        /* \"#utility.yul\":945:985   */\n      add\n        /* \"#utility.yul\":1087:1093   */\n      dup2\n        /* \"#utility.yul\":1075:1085   */\n      dup2\n        /* \"#utility.yul\":1072:1094   */\n      lt\n        /* \"#utility.yul\":1051:1069   */\n      0xffffffffffffffff\n        /* \"#utility.yul\":1039:1049   */\n      dup3\n        /* \"#utility.yul\":1036:1070   */\n      gt\n        /* \"#utility.yul\":1033:1095   */\n      or\n        /* \"#utility.yul\":1030:1118   */\n      iszero\n      tag_68\n      jumpi\n        /* \"#utility.yul\":1098:1116   */\n      tag_69\n      tag_28\n      jump\t// in\n    tag_69:\n        /* \"#utility.yul\":1030:1118   */\n    tag_68:\n        /* \"#utility.yul\":1138:1148   */\n      dup1\n        /* \"#utility.yul\":1134:1136   */\n      0x40\n        /* \"#utility.yul\":1127:1149   */\n      mstore\n        /* \"#utility.yul\":917:1155   */\n      pop\n        /* \"#utility.yul\":874:1155   */\n      pop\n      pop\n      jump\t// out\n        /* \"#utility.yul\":1161:1290   */\n    tag_30:\n        /* \"#utility.yul\":1195:1201   */\n      0x00\n        /* \"#utility.yul\":1222:1242   */\n      tag_71\n      tag_22\n      jump\t// in\n    tag_71:\n        /* \"#utility.yul\":1212:1242   */\n      swap1\n      pop\n        /* \"#utility.yul\":1251:1284   */\n      tag_72\n        /* \"#utility.yul\":1279:1283   */\n      dup3\n        /* \"#utility.yul\":1271:1277   */\n      dup3\n        /* \"#utility.yul\":1251:1284   */\n      tag_29\n      jump\t// in\n    tag_72:\n        /* \"#utility.yul\":1161:1290   */\n      swap2\n      swap1\n      pop\n      jump\t// out\n        /* \"#utility.yul\":1296:1604   */\n    tag_31:\n        /* \"#utility.yul\":1358:1362   */\n      0x00\n        /* \"#utility.yul\":1448:1466   */\n      0xffffffffffffffff\n        /* \"#utility.yul\":1440:1446   */\n      dup3\n        /* \"#utility.yul\":1437:1467   */\n      gt\n        /* \"#utility.yul\":1434:1490   */\n      iszero\n      tag_74\n      jumpi\n        /* \"#utility.yul\":1470:1488   */\n      tag_75\n      tag_28\n      jump\t// in\n    tag_75:\n        /* \"#utility.yul\":1434:1490   */\n    tag_74:\n        /* \"#utility.yul\":1508:1537   */\n      tag_76\n        /* \"#utility.yul\":1530:1536   */\n      dup3\n        /* \"#utility.yul\":1508:1537   */\n      tag_27\n      jump\t// in\n    tag_76:\n        /* \"#utility.yul\":1500:1537   */\n      swap1\n      pop\n        /* \"#utility.yul\":1592:1596   */\n      0x20\n        /* \"#utility.yul\":1586:1590   */\n      dup2\n        /* \"#utility.yul\":1582:1597   */\n      add\n        /* \"#utility.yul\":1574:1597   */\n      swap1\n      pop\n        /* \"#utility.yul\":1296:1604   */\n      swap2\n      swap1\n      pop\n      jump\t// out\n        /* \"#utility.yul\":1610:1756   */\n    tag_32:\n        /* \"#utility.yul\":1707:1713   */\n      dup3\n        /* \"#utility.yul\":1702:1705   */\n      dup2\n        /* \"#utility.yul\":1697:1700   */\n      dup4\n        /* \"#utility.yul\":1684:1714   */\n      calldatacopy\n        /* \"#utility.yul\":1748:1749   */\n      0x00\n        /* \"#utility.yul\":1739:1745   */\n      dup4\n        /* \"#utility.yul\":1734:1737   */\n      dup4\n        /* \"#utility.yul\":1730:1746   */\n      add\n        /* \"#utility.yul\":1723:1750   */\n      mstore\n        /* \"#utility.yul\":1610:1756   */\n      pop\n      pop\n      pop\n      jump\t// out\n        /* \"#utility.yul\":1762:2187   */\n    tag_33:\n        /* \"#utility.yul\":1840:1845   */\n      0x00\n        /* \"#utility.yul\":1865:1931   */\n      tag_79\n        /* \"#utility.yul\":1881:1930   */\n      tag_80\n        /* \"#utility.yul\":1923:1929   */\n      dup5\n        /* \"#utility.yul\":1881:1930   */\n      tag_31\n      jump\t// in\n    tag_80:\n        /* \"#utility.yul\":1865:1931   */\n      tag_30\n      jump\t// in\n    tag_79:\n        /* \"#utility.yul\":1856:1931   */\n      swap1\n      pop\n        /* \"#utility.yul\":1954:1960   */\n      dup3\n        /* \"#utility.yul\":1947:1952   */\n      dup2\n        /* \"#utility.yul\":1940:1961   */\n      mstore\n        /* \"#utility.yul\":1992:1996   */\n      0x20\n        /* \"#utility.yul\":1985:1990   */\n      dup2\n        /* \"#utility.yul\":1981:1997   */\n      add\n        /* \"#utility.yul\":2030:2033   */\n      dup5\n        /* \"#utility.yul\":2021:2027   */\n      dup5\n        /* \"#utility.yul\":2016:2019   */\n      dup5\n        /* \"#utility.yul\":2012:2028   */\n      add\n        /* \"#utility.yul\":2009:2034   */\n      gt\n        /* \"#utility.yul\":2006:2118   */\n      iszero\n      tag_81\n      jumpi\n        /* \"#utility.yul\":2037:2116   */\n      tag_82\n      tag_26\n      jump\t// in\n    tag_82:\n        /* \"#utility.yul\":2006:2118   */\n    tag_81:\n        /* \"#utility.yul\":2127:2181   */\n      tag_83\n        /* \"#utility.yul\":2174:2180   */\n      dup5\n        /* \"#utility.yul\":2169:2172   */\n      dup3\n        /* \"#utility.yul\":2164:2167   */\n      dup6\n        /* \"#utility.yul\":2127:2181   */\n      tag_32\n      jump\t// in\n    tag_83:\n        /* \"#utility.yul\":1846:2187   */\n      pop\n        /* \"#utility.yul\":1762:2187   */\n      swap4\n      swap3\n      pop\n      pop\n      pop\n      jump\t// out\n        /* \"#utility.yul\":2207:2547   */\n    tag_34:\n        /* \"#utility.yul\":2263:2268   */\n      0x00\n        /* \"#utility.yul\":2312:2315   */\n      dup3\n        /* \"#utility.yul\":2305:2309   */\n      0x1f\n        /* \"#utility.yul\":2297:2303   */\n      dup4\n        /* \"#utility.yul\":2293:2310   */\n      add\n        /* \"#utility.yul\":2289:2316   */\n      slt\n        /* \"#utility.yul\":2279:2401   */\n      tag_85\n      jumpi\n        /* \"#utility.yul\":2320:2399   */\n      tag_86\n      tag_25\n      jump\t// in\n    tag_86:\n        /* \"#utility.yul\":2279:2401   */\n    tag_85:\n        /* \"#utility.yul\":2437:2443   */\n      dup2\n        /* \"#utility.yul\":2424:2444   */\n      calldataload\n        /* \"#utility.yul\":2462:2541   */\n      tag_87\n        /* \"#utility.yul\":2537:2540   */\n      dup5\n        /* \"#utility.yul\":2529:2535   */\n      dup3\n        /* \"#utility.yul\":2522:2526   */\n      0x20\n        /* \"#utility.yul\":2514:2520   */\n      dup7\n        /* \"#utility.yul\":2510:2527   */\n      add\n        /* \"#utility.yul\":2462:2541   */\n      tag_33\n      jump\t// in\n    tag_87:\n        /* \"#utility.yul\":2453:2541   */\n      swap2\n      pop\n        /* \"#utility.yul\":2269:2547   */\n      pop\n        /* \"#utility.yul\":2207:2547   */\n      swap3\n      swap2\n      pop\n      pop\n      jump\t// out\n        /* \"#utility.yul\":2553:2630   */\n    tag_35:\n        /* \"#utility.yul\":2590:2597   */\n      0x00\n        /* \"#utility.yul\":2619:2624   */\n      dup2\n        /* \"#utility.yul\":2608:2624   */\n      swap1\n      pop\n        /* \"#utility.yul\":2553:2630   */\n      swap2\n      swap1\n      pop\n      jump\t// out\n        /* \"#utility.yul\":2636:2758   */\n    tag_36:\n        /* \"#utility.yul\":2709:2733   */\n      tag_90\n        /* \"#utility.yul\":2727:2732   */\n      dup2\n        /* \"#utility.yul\":2709:2733   */\n      tag_35\n      jump\t// in\n    tag_90:\n        /* \"#utility.yul\":2702:2707   */\n      dup2\n        /* \"#utility.yul\":2699:2734   */\n      eq\n        /* \"#utility.yul\":2689:2752   */\n      tag_91\n      jumpi\n        /* \"#utility.yul\":2748:2749   */\n      0x00\n        /* \"#utility.yul\":2745:2746   */\n      dup1\n        /* \"#utility.yul\":2738:2750   */\n      revert\n        /* \"#utility.yul\":2689:2752   */\n    tag_91:\n        /* \"#utility.yul\":2636:2758   */\n      pop\n      jump\t// out\n        /* \"#utility.yul\":2764:2903   */\n    tag_37:\n        /* \"#utility.yul\":2810:2815   */\n      0x00\n        /* \"#utility.yul\":2848:2854   */\n      dup2\n        /* \"#utility.yul\":2835:2855   */\n      calldataload\n        /* \"#utility.yul\":2826:2855   */\n      swap1\n      pop\n        /* \"#utility.yul\":2864:2897   */\n      tag_93\n        /* \"#utility.yul\":2891:2896   */\n      dup2\n        /* \"#utility.yul\":2864:2897   */\n      tag_36\n      jump\t// in\n    tag_93:\n        /* \"#utility.yul\":2764:2903   */\n      swap3\n      swap2\n      pop\n      pop\n      jump\t// out\n        /* \"#utility.yul\":2909:4540   */\n    tag_7:\n        /* \"#utility.yul\":3044:3050   */\n      0x00\n        /* \"#utility.yul\":3052:3058   */\n      dup1\n        /* \"#utility.yul\":3060:3066   */\n      0x00\n        /* \"#utility.yul\":3068:3074   */\n      dup1\n        /* \"#utility.yul\":3076:3082   */\n      0x00\n        /* \"#utility.yul\":3125:3128   */\n      0xa0\n        /* \"#utility.yul\":3113:3122   */\n      dup7\n        /* \"#utility.yul\":3104:3111   */\n      dup9\n        /* \"#utility.yul\":3100:3123   */\n      sub\n        /* \"#utility.yul\":3096:3129   */\n      slt\n        /* \"#utility.yul\":3093:3213   */\n      iszero\n      tag_95\n      jumpi\n        /* \"#utility.yul\":3132:3211   */\n      tag_96\n      tag_23\n      jump\t// in\n    tag_96:\n        /* \"#utility.yul\":3093:3213   */\n    tag_95:\n        /* \"#utility.yul\":3280:3281   */\n      0x00\n        /* \"#utility.yul\":3269:3278   */\n      dup7\n        /* \"#utility.yul\":3265:3282   */\n      add\n        /* \"#utility.yul\":3252:3283   */\n      calldataload\n        /* \"#utility.yul\":3310:3328   */\n      0xffffffffffffffff\n        /* \"#utility.yul\":3302:3308   */\n      dup2\n        /* \"#utility.yul\":3299:3329   */\n      gt\n        /* \"#utility.yul\":3296:3413   */\n      iszero\n      tag_97\n      jumpi\n        /* \"#utility.yul\":3332:3411   */\n      tag_98\n      tag_24\n      jump\t// in\n    tag_98:\n        /* \"#utility.yul\":3296:3413   */\n    tag_97:\n        /* \"#utility.yul\":3437:3500   */\n      tag_99\n        /* \"#utility.yul\":3492:3499   */\n      dup9\n        /* \"#utility.yul\":3483:3489   */\n      dup3\n        /* \"#utility.yul\":3472:3481   */\n      dup10\n        /* \"#utility.yul\":3468:3490   */\n      add\n        /* \"#utility.yul\":3437:3500   */\n      tag_34\n      jump\t// in\n    tag_99:\n        /* \"#utility.yul\":3427:3500   */\n      swap6\n      pop\n        /* \"#utility.yul\":3223:3510   */\n      pop\n        /* \"#utility.yul\":3577:3579   */\n      0x20\n        /* \"#utility.yul\":3566:3575   */\n      dup7\n        /* \"#utility.yul\":3562:3580   */\n      add\n        /* \"#utility.yul\":3549:3581   */\n      calldataload\n        /* \"#utility.yul\":3608:3626   */\n      0xffffffffffffffff\n        /* \"#utility.yul\":3600:3606   */\n      dup2\n        /* \"#utility.yul\":3597:3627   */\n      gt\n        /* \"#utility.yul\":3594:3711   */\n      iszero\n      tag_100\n      jumpi\n        /* \"#utility.yul\":3630:3709   */\n      tag_101\n      tag_24\n      jump\t// in\n    tag_101:\n        /* \"#utility.yul\":3594:3711   */\n    tag_100:\n        /* \"#utility.yul\":3735:3798   */\n      tag_102\n        /* \"#utility.yul\":3790:3797   */\n      dup9\n        /* \"#utility.yul\":3781:3787   */\n      dup3\n        /* \"#utility.yul\":3770:3779   */\n      dup10\n        /* \"#utility.yul\":3766:3788   */\n      add\n        /* \"#utility.yul\":3735:3798   */\n      tag_34\n      jump\t// in\n    tag_102:\n        /* \"#utility.yul\":3725:3798   */\n      swap5\n      pop\n        /* \"#utility.yul\":3520:3808   */\n      pop\n        /* \"#utility.yul\":3875:3877   */\n      0x40\n        /* \"#utility.yul\":3864:3873   */\n      dup7\n        /* \"#utility.yul\":3860:3878   */\n      add\n        /* \"#utility.yul\":3847:3879   */\n      calldataload\n        /* \"#utility.yul\":3906:3924   */\n      0xffffffffffffffff\n        /* \"#utility.yul\":3898:3904   */\n      dup2\n        /* \"#utility.yul\":3895:3925   */\n      gt\n        /* \"#utility.yul\":3892:4009   */\n      iszero\n      tag_103\n      jumpi\n        /* \"#utility.yul\":3928:4007   */\n      tag_104\n      tag_24\n      jump\t// in\n    tag_104:\n        /* \"#utility.yul\":3892:4009   */\n    tag_103:\n        /* \"#utility.yul\":4033:4096   */\n      tag_105\n        /* \"#utility.yul\":4088:4095   */\n      dup9\n        /* \"#utility.yul\":4079:4085   */\n      dup3\n        /* \"#utility.yul\":4068:4077   */\n      dup10\n        /* \"#utility.yul\":4064:4086   */\n      add\n        /* \"#utility.yul\":4033:4096   */\n      tag_34\n      jump\t// in\n    tag_105:\n        /* \"#utility.yul\":4023:4096   */\n      swap4\n      pop\n        /* \"#utility.yul\":3818:4106   */\n      pop\n        /* \"#utility.yul\":4173:4175   */\n      0x60\n        /* \"#utility.yul\":4162:4171   */\n      dup7\n        /* \"#utility.yul\":4158:4176   */\n      add\n        /* \"#utility.yul\":4145:4177   */\n      calldataload\n        /* \"#utility.yul\":4204:4222   */\n      0xffffffffffffffff\n        /* \"#utility.yul\":4196:4202   */\n      dup2\n        /* \"#utility.yul\":4193:4223   */\n      gt\n        /* \"#utility.yul\":4190:4307   */\n      iszero\n      tag_106\n      jumpi\n        /* \"#utility.yul\":4226:4305   */\n      tag_107\n      tag_24\n      jump\t// in\n    tag_107:\n        /* \"#utility.yul\":4190:4307   */\n    tag_106:\n        /* \"#utility.yul\":4331:4394   */\n      tag_108\n        /* \"#utility.yul\":4386:4393   */\n      dup9\n        /* \"#utility.yul\":4377:4383   */\n      dup3\n        /* \"#utility.yul\":4366:4375   */\n      dup10\n        /* \"#utility.yul\":4362:4384   */\n      add\n        /* \"#utility.yul\":4331:4394   */\n      tag_34\n      jump\t// in\n    tag_108:\n        /* \"#utility.yul\":4321:4394   */\n      swap3\n      pop\n        /* \"#utility.yul\":4116:4404   */\n      pop\n        /* \"#utility.yul\":4443:4446   */\n      0x80\n        /* \"#utility.yul\":4470:4523   */\n      tag_109\n        /* \"#utility.yul\":4515:4522   */\n      dup9\n        /* \"#utility.yul\":4506:4512   */\n      dup3\n        /* \"#utility.yul\":4495:4504   */\n      dup10\n        /* \"#utility.yul\":4491:4513   */\n      add\n        /* \"#utility.yul\":4470:4523   */\n      tag_37\n      jump\t// in\n    tag_109:\n        /* \"#utility.yul\":4460:4523   */\n      swap2\n      pop\n        /* \"#utility.yul\":4414:4533   */\n      pop\n        /* \"#utility.yul\":2909:4540   */\n      swap3\n      swap6\n      pop\n      swap3\n      swap6\n      swap1\n      swap4\n      pop\n      jump\t// out\n        /* \"#utility.yul\":4546:4664   */\n    tag_38:\n        /* \"#utility.yul\":4633:4657   */\n      tag_111\n        /* \"#utility.yul\":4651:4656   */\n      dup2\n        /* \"#utility.yul\":4633:4657   */\n      tag_35\n      jump\t// in\n    tag_111:\n        /* \"#utility.yul\":4628:4631   */\n      dup3\n        /* \"#utility.yul\":4621:4658   */\n      mstore\n        /* \"#utility.yul\":4546:4664   */\n      pop\n      pop\n      jump\t// out\n        /* \"#utility.yul\":4670:4892   */\n    tag_12:\n        /* \"#utility.yul\":4763:4767   */\n      0x00\n        /* \"#utility.yul\":4801:4803   */\n      0x20\n        /* \"#utility.yul\":4790:4799   */\n      dup3\n        /* \"#utility.yul\":4786:4804   */\n      add\n        /* \"#utility.yul\":4778:4804   */\n      swap1\n      pop\n        /* \"#utility.yul\":4814:4885   */\n      tag_113\n        /* \"#utility.yul\":4882:4883   */\n      0x00\n        /* \"#utility.yul\":4871:4880   */\n      dup4\n        /* \"#utility.yul\":4867:4884   */\n      add\n        /* \"#utility.yul\":4858:4864   */\n      dup5\n        /* \"#utility.yul\":4814:4885   */\n      tag_38\n      jump\t// in\n    tag_113:\n        /* \"#utility.yul\":4670:4892   */\n      swap3\n      swap2\n      pop\n      pop\n      jump\t// out\n        /* \"#utility.yul\":4898:4997   */\n    tag_39:\n        /* \"#utility.yul\":4950:4956   */\n      0x00\n        /* \"#utility.yul\":4984:4989   */\n      dup2\n        /* \"#utility.yul\":4978:4990   */\n      mload\n        /* \"#utility.yul\":4968:4990   */\n      swap1\n      pop\n        /* \"#utility.yul\":4898:4997   */\n      swap2\n      swap1\n      pop\n      jump\t// out\n        /* \"#utility.yul\":5003:5183   */\n    tag_40:\n        /* \"#utility.yul\":5051:5128   */\n      0x4e487b7100000000000000000000000000000000000000000000000000000000\n        /* \"#utility.yul\":5048:5049   */\n      0x00\n        /* \"#utility.yul\":5041:5129   */\n      mstore\n        /* \"#utility.yul\":5148:5152   */\n      0x22\n        /* \"#utility.yul\":5145:5146   */\n      0x04\n        /* \"#utility.yul\":5138:5153   */\n      mstore\n        /* \"#utility.yul\":5172:5176   */\n      0x24\n        /* \"#utility.yul\":5169:5170   */\n      0x00\n        /* \"#utility.yul\":5162:5177   */\n      revert\n        /* \"#utility.yul\":5189:5509   */\n    tag_41:\n        /* \"#utility.yul\":5233:5239   */\n      0x00\n        /* \"#utility.yul\":5270:5271   */\n      0x02\n        /* \"#utility.yul\":5264:5268   */\n      dup3\n        /* \"#utility.yul\":5260:5272   */\n      div\n        /* \"#utility.yul\":5250:5272   */\n      swap1\n      pop\n        /* \"#utility.yul\":5317:5318   */\n      0x01\n        /* \"#utility.yul\":5311:5315   */\n      dup3\n        /* \"#utility.yul\":5307:5319   */\n      and\n        /* \"#utility.yul\":5338:5356   */\n      dup1\n        /* \"#utility.yul\":5328:5409   */\n      tag_117\n      jumpi\n        /* \"#utility.yul\":5394:5398   */\n      0x7f\n        /* \"#utility.yul\":5386:5392   */\n      dup3\n        /* \"#utility.yul\":5382:5399   */\n      and\n        /* \"#utility.yul\":5372:5399   */\n      swap2\n      pop\n        /* \"#utility.yul\":5328:5409   */\n    tag_117:\n        /* \"#utility.yul\":5456:5458   */\n      0x20\n        /* \"#utility.yul\":5448:5454   */\n      dup3\n        /* \"#utility.yul\":5445:5459   */\n      lt\n        /* \"#utility.yul\":5425:5443   */\n      dup2\n        /* \"#utility.yul\":5422:5460   */\n      sub\n        /* \"#utility.yul\":5419:5503   */\n      tag_118\n      jumpi\n        /* \"#utility.yul\":5475:5493   */\n      tag_119\n      tag_40\n      jump\t// in\n    tag_119:\n        /* \"#utility.yul\":5419:5503   */\n    tag_118:\n        /* \"#utility.yul\":5240:5509   */\n      pop\n        /* \"#utility.yul\":5189:5509   */\n      swap2\n      swap1\n      pop\n      jump\t// out\n        /* \"#utility.yul\":5515:5656   */\n    tag_42:\n        /* \"#utility.yul\":5564:5568   */\n      0x00\n        /* \"#utility.yul\":5587:5590   */\n      dup2\n        /* \"#utility.yul\":5579:5590   */\n      swap1\n      pop\n        /* \"#utility.yul\":5610:5613   */\n      dup2\n        /* \"#utility.yul\":5607:5608   */\n      0x00\n        /* \"#utility.yul\":5600:5614   */\n      mstore\n        /* \"#utility.yul\":5644:5648   */\n      0x20\n        /* \"#utility.yul\":5641:5642   */\n      0x00\n        /* \"#utility.yul\":5631:5649   */\n      keccak256\n        /* \"#utility.yul\":5623:5649   */\n      swap1\n      pop\n        /* \"#utility.yul\":5515:5656   */\n      swap2\n      swap1\n      pop\n      jump\t// out\n        /* \"#utility.yul\":5662:5755   */\n    tag_43:\n        /* \"#utility.yul\":5699:5705   */\n      0x00\n        /* \"#utility.yul\":5746:5748   */\n      0x20\n        /* \"#utility.yul\":5741:5743   */\n      0x1f\n        /* \"#utility.yul\":5734:5739   */\n      dup4\n        /* \"#utility.yul\":5730:5744   */\n      add\n        /* \"#utility.yul\":5726:5749   */\n      div\n        /* \"#utility.yul\":5716:5749   */\n      swap1\n      pop\n        /* \"#utility.yul\":5662:5755   */\n      swap2\n      swap1\n      pop\n      jump\t// out\n        /* \"#utility.yul\":5761:5868   */\n    tag_44:\n        /* \"#utility.yul\":5805:5813   */\n      0x00\n        /* \"#utility.yul\":5855:5860   */\n      dup3\n        /* \"#utility.yul\":5849:5853   */\n      dup3\n        /* \"#utility.yul\":5845:5861   */\n      shl\n        /* \"#utility.yul\":5824:5861   */\n      swap1\n      pop\n        /* \"#utility.yul\":5761:5868   */\n      swap3\n      swap2\n      pop\n      pop\n      jump\t// out\n        /* \"#utility.yul\":5874:6267   */\n    tag_45:\n        /* \"#utility.yul\":5943:5949   */\n      0x00\n        /* \"#utility.yul\":5993:5994   */\n      0x08\n        /* \"#utility.yul\":5981:5991   */\n      dup4\n        /* \"#utility.yul\":5977:5995   */\n      mul\n        /* \"#utility.yul\":6016:6113   */\n      tag_124\n        /* \"#utility.yul\":6046:6112   */\n      0xffffffffffffffffffffffffffffffffffffffffffffffffffffffffffffffff\n        /* \"#utility.yul\":6035:6044   */\n      dup3\n        /* \"#utility.yul\":6016:6113   */\n      tag_44\n      jump\t// in\n    tag_124:\n        /* \"#utility.yul\":6134:6173   */\n      tag_125\n        /* \"#utility.yul\":6164:6172   */\n      dup7\n        /* \"#utility.yul\":6153:6162   */\n      dup4\n        /* \"#utility.yul\":6134:6173   */\n      tag_44\n      jump\t// in\n    tag_125:\n        /* \"#utility.yul\":6122:6173   */\n      swap6\n      pop\n        /* \"#utility.yul\":6206:6210   */\n      dup1\n        /* \"#utility.yul\":6202:6211   */\n      not\n        /* \"#utility.yul\":6195:6200   */\n      dup5\n        /* \"#utility.yul\":6191:6212   */\n      and\n        /* \"#utility.yul\":6182:6212   */\n      swap4\n      pop\n        /* \"#utility.yul\":6255:6259   */\n      dup1\n        /* \"#utility.yul\":6245:6253   */\n      dup7\n        /* \"#utility.yul\":6241:6260   */\n      and\n        /* \"#utility.yul\":6234:6239   */\n      dup5\n        /* \"#utility.yul\":6231:6261   */\n      or\n        /* \"#utility.yul\":6221:6261   */\n      swap3\n      pop\n        /* \"#utility.yul\":5950:6267   */\n      pop\n      pop\n        /* \"#utility.yul\":5874:6267   */\n      swap4\n      swap3\n      pop\n      pop\n      pop\n      jump\t// out\n        /* \"#utility.yul\":6273:6333   */\n    tag_46:\n        /* \"#utility.yul\":6301:6304   */\n      0x00\n        /* \"#utility.yul\":6322:6327   */\n      dup2\n        /* \"#utility.yul\":6315:6327   */\n      swap1\n      pop\n        /* \"#utility.yul\":6273:6333   */\n      swap2\n      swap1\n      pop\n      jump\t// out\n        /* \"#utility.yul\":6339:6481   */\n    tag_47:\n        /* \"#utility.yul\":6389:6398   */\n      0x00\n        /* \"#utility.yul\":6422:6475   */\n      tag_128\n        /* \"#utility.yul\":6440:6474   */\n      tag_129\n        /* \"#utility.yul\":6449:6473   */\n      tag_130\n        /* \"#utility.yul\":6467:6472   */\n      dup5\n        /* \"#utility.yul\":6449:6473   */\n      tag_35\n      jump\t// in\n    tag_130:\n        /* \"#utility.yul\":6440:6474   */\n      tag_46\n      jump\t// in\n    tag_129:\n        /* \"#utility.yul\":6422:6475   */\n      tag_35\n      jump\t// in\n    tag_128:\n        /* \"#utility.yul\":6409:6475   */\n      swap1\n      pop\n        /* \"#utility.yul\":6339:6481   */\n      swap2\n      swap1\n      pop\n      jump\t// out\n        /* \"#utility.yul\":6487:6562   */\n    tag_48:\n        /* \"#utility.yul\":6530:6533   */\n      0x00\n        /* \"#utility.yul\":6551:6556   */\n      dup2\n        /* \"#utility.yul\":6544:6556   */\n      swap1\n      pop\n        /* \"#utility.yul\":6487:6562   */\n      swap2\n      swap1\n      pop\n      jump\t// out\n        /* \"#utility.yul\":6568:6837   */\n    tag_49:\n        /* \"#utility.yul\":6678:6717   */\n      tag_133\n        /* \"#utility.yul\":6709:6716   */\n      dup4\n        /* \"#utility.yul\":6678:6717   */\n      tag_47\n      jump\t// in\n    tag_133:\n        /* \"#utility.yul\":6739:6830   */\n      tag_134\n        /* \"#utility.yul\":6788:6829   */\n      tag_135\n        /* \"#utility.yul\":6812:6828   */\n      dup3\n        /* \"#utility.yul\":6788:6829   */\n      tag_48\n      jump\t// in\n    tag_135:\n        /* \"#utility.yul\":6780:6786   */\n      dup5\n        /* \"#utility.yul\":6773:6777   */\n      dup5\n        /* \"#utility.yul\":6767:6778   */\n      sload\n        /* \"#utility.yul\":6739:6830   */\n      tag_45\n      jump\t// in\n    tag_134:\n        /* \"#utility.yul\":6733:6737   */\n      dup3\n        /* \"#utility.yul\":6726:6831   */\n      sstore\n        /* \"#utility.yul\":6644:6837   */\n      pop\n        /* \"#utility.yul\":6568:6837   */\n      pop\n      pop\n      pop\n      jump\t// out\n        /* \"#utility.yul\":6843:6916   */\n    tag_50:\n        /* \"#utility.yul\":6888:6891   */\n      0x00\n        /* \"#utility.yul\":6843:6916   */\n      swap1\n      jump\t// out\n        /* \"#utility.yul\":6922:7111   */\n    tag_51:\n        /* \"#utility.yul\":6999:7031   */\n      tag_138\n      tag_50\n      jump\t// in\n    tag_138:\n        /* \"#utility.yul\":7040:7105   */\n      tag_139\n        /* \"#utility.yul\":7098:7104   */\n      dup2\n        /* \"#utility.yul\":7090:7096   */\n      dup5\n        /* \"#utility.yul\":7084:7088   */\n      dup5\n        /* \"#utility.yul\":7040:7105   */\n      tag_49\n      jump\t// in\n    tag_139:\n        /* \"#utility.yul\":6975:7111   */\n      pop\n        /* \"#utility.yul\":6922:7111   */\n      pop\n      pop\n      jump\t// out\n        /* \"#utility.yul\":7117:7303   */\n    tag_52:\n        /* \"#utility.yul\":7177:7297   */\n    tag_141:\n        /* \"#utility.yul\":7194:7197   */\n      dup2\n        /* \"#utility.yul\":7187:7192   */\n      dup2\n        /* \"#utility.yul\":7184:7198   */\n      lt\n        /* \"#utility.yul\":7177:7297   */\n      iszero\n      tag_143\n      jumpi\n        /* \"#utility.yul\":7248:7287   */\n      tag_144\n        /* \"#utility.yul\":7285:7286   */\n      0x00\n        /* \"#utility.yul\":7278:7283   */\n      dup3\n        /* \"#utility.yul\":7248:7287   */\n      tag_51\n      jump\t// in\n    tag_144:\n        /* \"#utility.yul\":7221:7222   */\n      0x01\n        /* \"#utility.yul\":7214:7219   */\n      dup2\n        /* \"#utility.yul\":7210:7223   */\n      add\n        /* \"#utility.yul\":7201:7223   */\n      swap1\n      pop\n        /* \"#utility.yul\":7177:7297   */\n      jump(tag_141)\n    tag_143:\n        /* \"#utility.yul\":7117:7303   */\n      pop\n      pop\n      jump\t// out\n        /* \"#utility.yul\":7309:7852   */\n    tag_53:\n        /* \"#utility.yul\":7410:7412   */\n      0x1f\n        /* \"#utility.yul\":7405:7408   */\n      dup3\n        /* \"#utility.yul\":7402:7413   */\n      gt\n        /* \"#utility.yul\":7399:7845   */\n      iszero\n      tag_146\n      jumpi\n        /* \"#utility.yul\":7444:7482   */\n      tag_147\n        /* \"#utility.yul\":7476:7481   */\n      dup2\n        /* \"#utility.yul\":7444:7482   */\n      tag_42\n      jump\t// in\n    tag_147:\n        /* \"#utility.yul\":7528:7557   */\n      tag_148\n        /* \"#utility.yul\":7546:7556   */\n      dup5\n        /* \"#utility.yul\":7528:7557   */\n      tag_43\n      jump\t// in\n    tag_148:\n        /* \"#utility.yul\":7518:7526   */\n      dup2\n        /* \"#utility.yul\":7514:7558   */\n      add\n        /* \"#utility.yul\":7711:7713   */\n      0x20\n        /* \"#utility.yul\":7699:7709   */\n      dup6\n        /* \"#utility.yul\":7696:7714   */\n      lt\n        /* \"#utility.yul\":7693:7742   */\n      iszero\n      tag_149\n      jumpi\n        /* \"#utility.yul\":7732:7740   */\n      dup2\n        /* \"#utility.yul\":7717:7740   */\n      swap1\n      pop\n        /* \"#utility.yul\":7693:7742   */\n    tag_149:\n        /* \"#utility.yul\":7755:7835   */\n      tag_150\n        /* \"#utility.yul\":7811:7833   */\n      tag_151\n        /* \"#utility.yul\":7829:7832   */\n      dup6\n        /* \"#utility.yul\":7811:7833   */\n      tag_43\n      jump\t// in\n    tag_151:\n        /* \"#utility.yul\":7801:7809   */\n      dup4\n        /* \"#utility.yul\":7797:7834   */\n      add\n        /* \"#utility.yul\":7784:7795   */\n      dup3\n        /* \"#utility.yul\":7755:7835   */\n      tag_52\n      jump\t// in\n    tag_150:\n        /* \"#utility.yul\":7414:7845   */\n      pop\n      pop\n        /* \"#utility.yul\":7399:7845   */\n    tag_146:\n        /* \"#utility.yul\":7309:7852   */\n      pop\n      pop\n      pop\n      jump\t// out\n        /* \"#utility.yul\":7858:7975   */\n    tag_54:\n        /* \"#utility.yul\":7912:7920   */\n      0x00\n        /* \"#utility.yul\":7962:7967   */\n      dup3\n        /* \"#utility.yul\":7956:7960   */\n      dup3\n        /* \"#utility.yul\":7952:7968   */\n      shr\n        /* \"#utility.yul\":7931:7968   */\n      swap1\n      pop\n        /* \"#utility.yul\":7858:7975   */\n      swap3\n      swap2\n      pop\n      pop\n      jump\t// out\n        /* \"#utility.yul\":7981:8150   */\n    tag_55:\n        /* \"#utility.yul\":8025:8031   */\n      0x00\n        /* \"#utility.yul\":8058:8109   */\n      tag_154\n        /* \"#utility.yul\":8106:8107   */\n      0x00\n        /* \"#utility.yul\":8102:8108   */\n      not\n        /* \"#utility.yul\":8094:8099   */\n      dup5\n        /* \"#utility.yul\":8091:8092   */\n      0x08\n        /* \"#utility.yul\":8087:8100   */\n      mul\n        /* \"#utility.yul\":8058:8109   */\n      tag_54\n      jump\t// in\n    tag_154:\n        /* \"#utility.yul\":8054:8110   */\n      not\n        /* \"#utility.yul\":8139:8143   */\n      dup1\n        /* \"#utility.yul\":8133:8137   */\n      dup4\n        /* \"#utility.yul\":8129:8144   */\n      and\n        /* \"#utility.yul\":8119:8144   */\n      swap2\n      pop\n        /* \"#utility.yul\":8032:8150   */\n      pop\n        /* \"#utility.yul\":7981:8150   */\n      swap3\n      swap2\n      pop\n      pop\n      jump\t// out\n        /* \"#utility.yul\":8155:8450   */\n    tag_56:\n        /* \"#utility.yul\":8231:8235   */\n      0x00\n        /* \"#utility.yul\":8377:8406   */\n      tag_156\n        /* \"#utility.yul\":8402:8405   */\n      dup4\n        /* \"#utility.yul\":8396:8400   */\n      dup4\n        /* \"#utility.yul\":8377:8406   */\n      tag_55\n      jump\t// in\n    tag_156:\n        /* \"#utility.yul\":8369:8406   */\n      swap2\n      pop\n        /* \"#utility.yul\":8439:8442   */\n      dup3\n        /* \"#utility.yul\":8436:8437   */\n      0x02\n        /* \"#utility.yul\":8432:8443   */\n      mul\n        /* \"#utility.yul\":8426:8430   */\n      dup3\n        /* \"#utility.yul\":8423:8444   */\n      or\n        /* \"#utility.yul\":8415:8444   */\n      swap1\n      pop\n        /* \"#utility.yul\":8155:8450   */\n      swap3\n      swap2\n      pop\n      pop\n      jump\t// out\n        /* \"#utility.yul\":8455:9850   */\n    tag_15:\n        /* \"#utility.yul\":8572:8609   */\n      tag_158\n        /* \"#utility.yul\":8605:8608   */\n      dup3\n        /* \"#utility.yul\":8572:8609   */\n      tag_39\n      jump\t// in\n    tag_158:\n        /* \"#utility.yul\":8674:8692   */\n      0xffffffffffffffff\n        /* \"#utility.yul\":8666:8672   */\n      dup2\n        /* \"#utility.yul\":8663:8693   */\n      gt\n        /* \"#utility.yul\":8660:8716   */\n      iszero\n      tag_159\n      jumpi\n        /* \"#utility.yul\":8696:8714   */\n      tag_160\n      tag_28\n      jump\t// in\n    tag_160:\n        /* \"#utility.yul\":8660:8716   */\n    tag_159:\n        /* \"#utility.yul\":8740:8778   */\n      tag_161\n        /* \"#utility.yul\":8772:8776   */\n      dup3\n        /* \"#utility.yul\":8766:8777   */\n      sload\n        /* \"#utility.yul\":8740:8778   */\n      tag_41\n      jump\t// in\n    tag_161:\n        /* \"#utility.yul\":8825:8892   */\n      tag_162\n        /* \"#utility.yul\":8885:8891   */\n      dup3\n        /* \"#utility.yul\":8877:8883   */\n      dup3\n        /* \"#utility.yul\":8871:8875   */\n      dup6\n        /* \"#utility.yul\":8825:8892   */\n      tag_53\n      jump\t// in\n    tag_162:\n        /* \"#utility.yul\":8919:8920   */\n      0x00\n        /* \"#utility.yul\":8943:8947   */\n      0x20\n        /* \"#utility.yul\":8930:8947   */\n      swap1\n      pop\n        /* \"#utility.yul\":8975:8977   */\n      0x1f\n        /* \"#utility.yul\":8967:8973   */\n      dup4\n        /* \"#utility.yul\":8964:8978   */\n      gt\n        /* \"#utility.yul\":8992:8993   */\n      0x01\n        /* \"#utility.yul\":8987:9605   */\n      dup2\n      eq\n      tag_164\n      jumpi\n        /* \"#utility.yul\":9649:9650   */\n      0x00\n        /* \"#utility.yul\":9666:9672   */\n      dup5\n        /* \"#utility.yul\":9663:9740   */\n      iszero\n      tag_165\n      jumpi\n        /* \"#utility.yul\":9715:9724   */\n      dup3\n        /* \"#utility.yul\":9710:9713   */\n      dup8\n        /* \"#utility.yul\":9706:9725   */\n      add\n        /* \"#utility.yul\":9700:9726   */\n      mload\n        /* \"#utility.yul\":9691:9726   */\n      swap1\n      pop\n        /* \"#utility.yul\":9663:9740   */\n    tag_165:\n        /* \"#utility.yul\":9766:9833   */\n      tag_166\n        /* \"#utility.yul\":9826:9832   */\n      dup6\n        /* \"#utility.yul\":9819:9824   */\n      dup3\n        /* \"#utility.yul\":9766:9833   */\n      tag_56\n      jump\t// in\n    tag_166:\n        /* \"#utility.yul\":9760:9764   */\n      dup7\n        /* \"#utility.yul\":9753:9834   */\n      sstore\n        /* \"#utility.yul\":9622:9844   */\n      pop\n        /* \"#utility.yul\":8957:9844   */\n      jump(tag_163)\n        /* \"#utility.yul\":8987:9605   */\n    tag_164:\n        /* \"#utility.yul\":9039:9043   */\n      0x1f\n        /* \"#utility.yul\":9035:9044   */\n      not\n        /* \"#utility.yul\":9027:9033   */\n      dup5\n        /* \"#utility.yul\":9023:9045   */\n      and\n        /* \"#utility.yul\":9073:9110   */\n      tag_167\n        /* \"#utility.yul\":9105:9109   */\n      dup7\n        /* \"#utility.yul\":9073:9110   */\n      tag_42\n      jump\t// in\n    tag_167:\n        /* \"#utility.yul\":9132:9133   */\n      0x00\n        /* \"#utility.yul\":9146:9354   */\n    tag_168:\n        /* \"#utility.yul\":9160:9167   */\n      dup3\n        /* \"#utility.yul\":9157:9158   */\n      dup2\n        /* \"#utility.yul\":9154:9168   */\n      lt\n        /* \"#utility.yul\":9146:9354   */\n      iszero\n      tag_170\n      jumpi\n        /* \"#utility.yul\":9239:9248   */\n      dup5\n        /* \"#utility.yul\":9234:9237   */\n      dup10\n        /* \"#utility.yul\":9230:9249   */\n      add\n        /* \"#utility.yul\":9224:9250   */\n      mload\n        /* \"#utility.yul\":9216:9222   */\n      dup3\n        /* \"#utility.yul\":9209:9251   */\n      sstore\n        /* \"#utility.yul\":9290:9291   */\n      0x01\n        /* \"#utility.yul\":9282:9288   */\n      dup3\n        /* \"#utility.yul\":9278:9292   */\n      add\n        /* \"#utility.yul\":9268:9292   */\n      swap2\n      pop\n        /* \"#utility.yul\":9337:9339   */\n      0x20\n        /* \"#utility.yul\":9326:9335   */\n      dup6\n        /* \"#utility.yul\":9322:9340   */\n      add\n        /* \"#utility.yul\":9309:9340   */\n      swap5\n      pop\n        /* \"#utility.yul\":9183:9187   */\n      0x20\n        /* \"#utility.yul\":9180:9181   */\n      dup2\n        /* \"#utility.yul\":9176:9188   */\n      add\n        /* \"#utility.yul\":9171:9188   */\n      swap1\n      pop\n        /* \"#utility.yul\":9146:9354   */\n      jump(tag_168)\n    tag_170:\n        /* \"#utility.yul\":9382:9388   */\n      dup7\n        /* \"#utility.yul\":9373:9380   */\n      dup4\n        /* \"#utility.yul\":9370:9389   */\n      lt\n        /* \"#utility.yul\":9367:9546   */\n      iszero\n      tag_171\n      jumpi\n        /* \"#utility.yul\":9440:9449   */\n      dup5\n        /* \"#utility.yul\":9435:9438   */\n      dup10\n        /* \"#utility.yul\":9431:9450   */\n      add\n        /* \"#utility.yul\":9425:9451   */\n      mload\n        /* \"#utility.yul\":9483:9531   */\n      tag_172\n        /* \"#utility.yul\":9525:9529   */\n      0x1f\n        /* \"#utility.yul\":9517:9523   */\n      dup10\n        /* \"#utility.yul\":9513:9530   */\n      and\n        /* \"#utility.yul\":9502:9511   */\n      dup3\n        /* \"#utility.yul\":9483:9531   */\n      tag_55\n      jump\t// in\n    tag_172:\n        /* \"#utility.yul\":9475:9481   */\n      dup4\n        /* \"#utility.yul\":9468:9532   */\n      sstore\n        /* \"#utility.yul\":9390:9546   */\n      pop\n        /* \"#utility.yul\":9367:9546   */\n    tag_171:\n        /* \"#utility.yul\":9592:9593   */\n      0x01\n        /* \"#utility.yul\":9588:9589   */\n      0x02\n        /* \"#utility.yul\":9580:9586   */\n      dup9\n        /* \"#utility.yul\":9576:9590   */\n      mul\n        /* \"#utility.yul\":9572:9594   */\n      add\n        /* \"#utility.yul\":9566:9570   */\n      dup9\n        /* \"#utility.yul\":9559:9595   */\n      sstore\n        /* \"#utility.yul\":8994:9605   */\n      pop\n      pop\n      pop\n        /* \"#utility.yul\":8957:9844   */\n    tag_163:\n      pop\n        /* \"#utility.yul\":8547:9850   */\n      pop\n      pop\n      pop\n        /* \"#utility.yul\":8455:9850   */\n      pop\n      pop\n      jump\t// out\n        /* \"#utility.yul\":9856:10036   */\n    tag_57:\n        /* \"#utility.yul\":9904:9981   */\n      0x4e487b7100000000000000000000000000000000000000000000000000000000\n        /* \"#utility.yul\":9901:9902   */\n      0x00\n        /* \"#utility.yul\":9894:9982   */\n      mstore\n        /* \"#utility.yul\":10001:10005   */\n      0x11\n        /* \"#utility.yul\":9998:9999   */\n      0x04\n        /* \"#utility.yul\":9991:10006   */\n      mstore\n        /* \"#utility.yul\":10025:10029   */\n      0x24\n        /* \"#utility.yul\":10022:10023   */\n      0x00\n        /* \"#utility.yul\":10015:10030   */\n      revert\n        /* \"#utility.yul\":10042:10275   */\n    tag_20:\n        /* \"#utility.yul\":10081:10084   */\n      0x00\n        /* \"#utility.yul\":10104:10128   */\n      tag_175\n        /* \"#utility.yul\":10122:10127   */\n      dup3\n        /* \"#utility.yul\":10104:10128   */\n      tag_35\n      jump\t// in\n    tag_175:\n        /* \"#utility.yul\":10095:10128   */\n      swap2\n      pop\n        /* \"#utility.yul\":10150:10216   */\n      0xffffffffffffffffffffffffffffffffffffffffffffffffffffffffffffffff\n        /* \"#utility.yul\":10143:10148   */\n      dup3\n        /* \"#utility.yul\":10140:10217   */\n      sub\n        /* \"#utility.yul\":10137:10240   */\n      tag_176\n      jumpi\n        /* \"#utility.yul\":10220:10238   */\n      tag_177\n      tag_57\n      jump\t// in\n    tag_177:\n        /* \"#utility.yul\":10137:10240   */\n    tag_176:\n        /* \"#utility.yul\":10267:10268   */\n      0x01\n        /* \"#utility.yul\":10260:10265   */\n      dup3\n        /* \"#utility.yul\":10256:10269   */\n      add\n        /* \"#utility.yul\":10249:10269   */\n      swap1\n      pop\n        /* \"#utility.yul\":10042:10275   */\n      swap2\n      swap1\n      pop\n      jump\t// out\n\n    auxdata: 0xa264697066735822122050d871cf2fc08414a44908887b37acb10f59315860219fb153128b2c93348e6c64736f6c63430008160033\n}\n",
				"bytecode": {
					"linkReferences": {},
					"object": "60806040525f8055348015610012575f80fd5b506107b3806100205f395ff3fe608060405234801561000f575f80fd5b5060043610610034575f3560e01c80638da8f27b14610038578063f2d6181914610054575b5f80fd5b610052600480360381019061004d9190610327565b610072565b005b61005c61019f565b604051610069919061041d565b60405180910390f35b5f6040518060e001604052803373ffffffffffffffffffffffffffffffffffffffff1681526020018781526020018681526020018581526020018481526020018381526020018281525060015f805481526020019081526020015f205f820151815f015f6101000a81548173ffffffffffffffffffffffffffffffffffffffff021916908373ffffffffffffffffffffffffffffffffffffffff1602179055506020820151816001019081610127919061063a565b50604082015181600201908161013d919061063a565b506060820151816003019081610153919061063a565b506080820151816004019081610169919061063a565b5060a0820151816005015560c082015181600601559050505f8081548092919061019290610736565b9190505550505050505050565b5f8054905090565b5f604051905090565b5f80fd5b5f80fd5b5f80fd5b5f80fd5b5f601f19601f8301169050919050565b7f4e487b71000000000000000000000000000000000000000000000000000000005f52604160045260245ffd5b610206826101c0565b810181811067ffffffffffffffff82111715610225576102246101d0565b5b80604052505050565b5f6102376101a7565b905061024382826101fd565b919050565b5f67ffffffffffffffff821115610262576102616101d0565b5b61026b826101c0565b9050602081019050919050565b828183375f83830152505050565b5f61029861029384610248565b61022e565b9050828152602081018484840111156102b4576102b36101bc565b5b6102bf848285610278565b509392505050565b5f82601f8301126102db576102da6101b8565b5b81356102eb848260208601610286565b91505092915050565b5f819050919050565b610306816102f4565b8114610310575f80fd5b50565b5f81359050610321816102fd565b92915050565b5f805f805f60a086880312156103405761033f6101b0565b5b5f86013567ffffffffffffffff81111561035d5761035c6101b4565b5b610369888289016102c7565b955050602086013567ffffffffffffffff81111561038a576103896101b4565b5b610396888289016102c7565b945050604086013567ffffffffffffffff8111156103b7576103b66101b4565b5b6103c3888289016102c7565b935050606086013567ffffffffffffffff8111156103e4576103e36101b4565b5b6103f0888289016102c7565b925050608061040188828901610313565b9150509295509295909350565b610417816102f4565b82525050565b5f6020820190506104305f83018461040e565b92915050565b5f81519050919050565b7f4e487b71000000000000000000000000000000000000000000000000000000005f52602260045260245ffd5b5f600282049050600182168061048457607f821691505b60208210810361049757610496610440565b5b50919050565b5f819050815f5260205f209050919050565b5f6020601f8301049050919050565b5f82821b905092915050565b5f600883026104f97fffffffffffffffffffffffffffffffffffffffffffffffffffffffffffffffff826104be565b61050386836104be565b95508019841693508086168417925050509392505050565b5f819050919050565b5f61053e610539610534846102f4565b61051b565b6102f4565b9050919050565b5f819050919050565b61055783610524565b61056b61056382610545565b8484546104ca565b825550505050565b5f90565b61057f610573565b61058a81848461054e565b505050565b5b818110156105ad576105a25f82610577565b600181019050610590565b5050565b601f8211156105f2576105c38161049d565b6105cc846104af565b810160208510156105db578190505b6105ef6105e7856104af565b83018261058f565b50505b505050565b5f82821c905092915050565b5f6106125f19846008026105f7565b1980831691505092915050565b5f61062a8383610603565b9150826002028217905092915050565b61064382610436565b67ffffffffffffffff81111561065c5761065b6101d0565b5b610666825461046d565b6106718282856105b1565b5f60209050601f8311600181146106a2575f8415610690578287015190505b61069a858261061f565b865550610701565b601f1984166106b08661049d565b5f5b828110156106d7578489015182556001820191506020850194506020810190506106b2565b868310156106f457848901516106f0601f891682610603565b8355505b6001600288020188555050505b505050505050565b7f4e487b71000000000000000000000000000000000000000000000000000000005f52601160045260245ffd5b5f610740826102f4565b91507fffffffffffffffffffffffffffffffffffffffffffffffffffffffffffffffff820361077257610771610709565b5b60018201905091905056fea264697066735822122050d871cf2fc08414a44908887b37acb10f59315860219fb153128b2c93348e6c64736f6c63430008160033",
					"opcodes": "PUSH1 0x80 PUSH1 0x40 MSTORE PUSH0 DUP1 SSTORE CALLVALUE DUP1 ISZERO PUSH2 0x12 JUMPI PUSH0 DUP1 REVERT JUMPDEST POP PUSH2 0x7B3 DUP1 PUSH2 0x20 PUSH0 CODECOPY PUSH0 RETURN INVALID PUSH1 0x80 PUSH1 0x40 MSTORE CALLVALUE DUP1 ISZERO PUSH2 0xF JUMPI PUSH0 DUP1 REVERT JUMPDEST POP PUSH1 0x4 CALLDATASIZE LT PUSH2 0x34 JUMPI PUSH0 CALLDATALOAD PUSH1 0xE0 SHR DUP1 PUSH4 0x8DA8F27B EQ PUSH2 0x38 JUMPI DUP1 PUSH4 0xF2D61819 EQ PUSH2 0x54 JUMPI JUMPDEST PUSH0 DUP1 REVERT JUMPDEST PUSH2 0x52 PUSH1 0x4 DUP1 CALLDATASIZE SUB DUP2 ADD SWAP1 PUSH2 0x4D SWAP2 SWAP1 PUSH2 0x327 JUMP JUMPDEST PUSH2 0x72 JUMP JUMPDEST STOP JUMPDEST PUSH2 0x5C PUSH2 0x19F JUMP JUMPDEST PUSH1 0x40 MLOAD PUSH2 0x69 SWAP2 SWAP1 PUSH2 0x41D JUMP JUMPDEST PUSH1 0x40 MLOAD DUP1 SWAP2 SUB SWAP1 RETURN JUMPDEST PUSH0 PUSH1 0x40 MLOAD DUP1 PUSH1 0xE0 ADD PUSH1 0x40 MSTORE DUP1 CALLER PUSH20 0xFFFFFFFFFFFFFFFFFFFFFFFFFFFFFFFFFFFFFFFF AND DUP2 MSTORE PUSH1 0x20 ADD DUP8 DUP2 MSTORE PUSH1 0x20 ADD DUP7 DUP2 MSTORE PUSH1 0x20 ADD DUP6 DUP2 MSTORE PUSH1 0x20 ADD DUP5 DUP2 MSTORE PUSH1 0x20 ADD DUP4 DUP2 MSTORE PUSH1 0x20 ADD DUP3 DUP2 MSTORE POP PUSH1 0x1 PUSH0 DUP1 SLOAD DUP2 MSTORE PUSH1 0x20 ADD SWAP1 DUP2 MSTORE PUSH1 0x20 ADD PUSH0 KECCAK256 PUSH0 DUP3 ADD MLOAD DUP2 PUSH0 ADD PUSH0 PUSH2 0x100 EXP DUP2 SLOAD DUP2 PUSH20 0xFFFFFFFFFFFFFFFFFFFFFFFFFFFFFFFFFFFFFFFF MUL NOT AND SWAP1 DUP4 PUSH20 0xFFFFFFFFFFFFFFFFFFFFFFFFFFFFFFFFFFFFFFFF AND MUL OR SWAP1 SSTORE POP PUSH1 0x20 DUP3 ADD MLOAD DUP2 PUSH1 0x1 ADD SWAP1 DUP2 PUSH2 0x127 SWAP2 SWAP1 PUSH2 0x63A JUMP JUMPDEST POP PUSH1 0x40 DUP3 ADD MLOAD DUP2 PUSH1 0x2 ADD SWAP1 DUP2 PUSH2 0x13D SWAP2 SWAP1 PUSH2 0x63A JUMP JUMPDEST POP PUSH1 0x60 DUP3 ADD MLOAD DUP2 PUSH1 0x3 ADD SWAP1 DUP2 PUSH2 0x153 SWAP2 SWAP1 PUSH2 0x63A JUMP JUMPDEST POP PUSH1 0x80 DUP3 ADD MLOAD DUP2 PUSH1 0x4 ADD SWAP1 DUP2 PUSH2 0x169 SWAP2 SWAP1 PUSH2 0x63A JUMP JUMPDEST POP PUSH1 0xA0 DUP3 ADD MLOAD DUP2 PUSH1 0x5 ADD SSTORE PUSH1 0xC0 DUP3 ADD MLOAD DUP2 PUSH1 0x6 ADD SSTORE SWAP1 POP POP PUSH0 DUP1 DUP2 SLOAD DUP1 SWAP3 SWAP2 SWAP1 PUSH2 0x192 SWAP1 PUSH2 0x736 JUMP JUMPDEST SWAP2 SWAP1 POP SSTORE POP POP POP POP POP POP POP JUMP JUMPDEST PUSH0 DUP1 SLOAD SWAP1 POP SWAP1 JUMP JUMPDEST PUSH0 PUSH1 0x40 MLOAD SWAP1 POP SWAP1 JUMP JUMPDEST PUSH0 DUP1 REVERT JUMPDEST PUSH0 DUP1 REVERT JUMPDEST PUSH0 DUP1 REVERT JUMPDEST PUSH0 DUP1 REVERT JUMPDEST PUSH0 PUSH1 0x1F NOT PUSH1 0x1F DUP4 ADD AND SWAP1 POP SWAP2 SWAP1 POP JUMP JUMPDEST PUSH32 0x4E487B7100000000000000000000000000000000000000000000000000000000 PUSH0 MSTORE PUSH1 0x41 PUSH1 0x4 MSTORE PUSH1 0x24 PUSH0 REVERT JUMPDEST PUSH2 0x206 DUP3 PUSH2 0x1C0 JUMP JUMPDEST DUP2 ADD DUP2 DUP2 LT PUSH8 0xFFFFFFFFFFFFFFFF DUP3 GT OR ISZERO PUSH2 0x225 JUMPI PUSH2 0x224 PUSH2 0x1D0 JUMP JUMPDEST JUMPDEST DUP1 PUSH1 0x40 MSTORE POP POP POP JUMP JUMPDEST PUSH0 PUSH2 0x237 PUSH2 0x1A7 JUMP JUMPDEST SWAP1 POP PUSH2 0x243 DUP3 DUP3 PUSH2 0x1FD JUMP JUMPDEST SWAP2 SWAP1 POP JUMP JUMPDEST PUSH0 PUSH8 0xFFFFFFFFFFFFFFFF DUP3 GT ISZERO PUSH2 0x262 JUMPI PUSH2 0x261 PUSH2 0x1D0 JUMP JUMPDEST JUMPDEST PUSH2 0x26B DUP3 PUSH2 0x1C0 JUMP JUMPDEST SWAP1 POP PUSH1 0x20 DUP2 ADD SWAP1 POP SWAP2 SWAP1 POP JUMP JUMPDEST DUP3 DUP2 DUP4 CALLDATACOPY PUSH0 DUP4 DUP4 ADD MSTORE POP POP POP JUMP JUMPDEST PUSH0 PUSH2 0x298 PUSH2 0x293 DUP5 PUSH2 0x248 JUMP JUMPDEST PUSH2 0x22E JUMP JUMPDEST SWAP1 POP DUP3 DUP2 MSTORE PUSH1 0x20 DUP2 ADD DUP5 DUP5 DUP5 ADD GT ISZERO PUSH2 0x2B4 JUMPI PUSH2 0x2B3 PUSH2 0x1BC JUMP JUMPDEST JUMPDEST PUSH2 0x2BF DUP5 DUP3 DUP6 PUSH2 0x278 JUMP JUMPDEST POP SWAP4 SWAP3 POP POP POP JUMP JUMPDEST PUSH0 DUP3 PUSH1 0x1F DUP4 ADD SLT PUSH2 0x2DB JUMPI PUSH2 0x2DA PUSH2 0x1B8 JUMP JUMPDEST JUMPDEST DUP2 CALLDATALOAD PUSH2 0x2EB DUP5 DUP3 PUSH1 0x20 DUP7 ADD PUSH2 0x286 JUMP JUMPDEST SWAP2 POP POP SWAP3 SWAP2 POP POP JUMP JUMPDEST PUSH0 DUP2 SWAP1 POP SWAP2 SWAP1 POP JUMP JUMPDEST PUSH2 0x306 DUP2 PUSH2 0x2F4 JUMP JUMPDEST DUP2 EQ PUSH2 0x310 JUMPI PUSH0 DUP1 REVERT JUMPDEST POP JUMP JUMPDEST PUSH0 DUP2 CALLDATALOAD SWAP1 POP PUSH2 0x321 DUP2 PUSH2 0x2FD JUMP JUMPDEST SWAP3 SWAP2 POP POP JUMP JUMPDEST PUSH0 DUP1 PUSH0 DUP1 PUSH0 PUSH1 0xA0 DUP7 DUP9 SUB SLT ISZERO PUSH2 0x340 JUMPI PUSH2 0x33F PUSH2 0x1B0 JUMP JUMPDEST JUMPDEST PUSH0 DUP7 ADD CALLDATALOAD PUSH8 0xFFFFFFFFFFFFFFFF DUP2 GT ISZERO PUSH2 0x35D JUMPI PUSH2 0x35C PUSH2 0x1B4 JUMP JUMPDEST JUMPDEST PUSH2 0x369 DUP9 DUP3 DUP10 ADD PUSH2 0x2C7 JUMP JUMPDEST SWAP6 POP POP PUSH1 0x20 DUP7 ADD CALLDATALOAD PUSH8 0xFFFFFFFFFFFFFFFF DUP2 GT ISZERO PUSH2 0x38A JUMPI PUSH2 0x389 PUSH2 0x1B4 JUMP JUMPDEST JUMPDEST PUSH2 0x396 DUP9 DUP3 DUP10 ADD PUSH2 0x2C7 JUMP JUMPDEST SWAP5 POP POP PUSH1 0x40 DUP7 ADD CALLDATALOAD PUSH8 0xFFFFFFFFFFFFFFFF DUP2 GT ISZERO PUSH2 0x3B7 JUMPI PUSH2 0x3B6 PUSH2 0x1B4 JUMP JUMPDEST JUMPDEST PUSH2 0x3C3 DUP9 DUP3 DUP10 ADD PUSH2 0x2C7 JUMP JUMPDEST SWAP4 POP POP PUSH1 0x60 DUP7 ADD CALLDATALOAD PUSH8 0xFFFFFFFFFFFFFFFF DUP2 GT ISZERO PUSH2 0x3E4 JUMPI PUSH2 0x3E3 PUSH2 0x1B4 JUMP JUMPDEST JUMPDEST PUSH2 0x3F0 DUP9 DUP3 DUP10 ADD PUSH2 0x2C7 JUMP JUMPDEST SWAP3 POP POP PUSH1 0x80 PUSH2 0x401 DUP9 DUP3 DUP10 ADD PUSH2 0x313 JUMP JUMPDEST SWAP2 POP POP SWAP3 SWAP6 POP SWAP3 SWAP6 SWAP1 SWAP4 POP JUMP JUMPDEST PUSH2 0x417 DUP2 PUSH2 0x2F4 JUMP JUMPDEST DUP3 MSTORE POP POP JUMP JUMPDEST PUSH0 PUSH1 0x20 DUP3 ADD SWAP1 POP PUSH2 0x430 PUSH0 DUP4 ADD DUP5 PUSH2 0x40E JUMP JUMPDEST SWAP3 SWAP2 POP POP JUMP JUMPDEST PUSH0 DUP2 MLOAD SWAP1 POP SWAP2 SWAP1 POP JUMP JUMPDEST PUSH32 0x4E487B7100000000000000000000000000000000000000000000000000000000 PUSH0 MSTORE PUSH1 0x22 PUSH1 0x4 MSTORE PUSH1 0x24 PUSH0 REVERT JUMPDEST PUSH0 PUSH1 0x2 DUP3 DIV SWAP1 POP PUSH1 0x1 DUP3 AND DUP1 PUSH2 0x484 JUMPI PUSH1 0x7F DUP3 AND SWAP2 POP JUMPDEST PUSH1 0x20 DUP3 LT DUP2 SUB PUSH2 0x497 JUMPI PUSH2 0x496 PUSH2 0x440 JUMP JUMPDEST JUMPDEST POP SWAP2 SWAP1 POP JUMP JUMPDEST PUSH0 DUP2 SWAP1 POP DUP2 PUSH0 MSTORE PUSH1 0x20 PUSH0 KECCAK256 SWAP1 POP SWAP2 SWAP1 POP JUMP JUMPDEST PUSH0 PUSH1 0x20 PUSH1 0x1F DUP4 ADD DIV SWAP1 POP SWAP2 SWAP1 POP JUMP JUMPDEST PUSH0 DUP3 DUP3 SHL SWAP1 POP SWAP3 SWAP2 POP POP JUMP JUMPDEST PUSH0 PUSH1 0x8 DUP4 MUL PUSH2 0x4F9 PUSH32 0xFFFFFFFFFFFFFFFFFFFFFFFFFFFFFFFFFFFFFFFFFFFFFFFFFFFFFFFFFFFFFFFF DUP3 PUSH2 0x4BE JUMP JUMPDEST PUSH2 0x503 DUP7 DUP4 PUSH2 0x4BE JUMP JUMPDEST SWAP6 POP DUP1 NOT DUP5 AND SWAP4 POP DUP1 DUP7 AND DUP5 OR SWAP3 POP POP POP SWAP4 SWAP3 POP POP POP JUMP JUMPDEST PUSH0 DUP2 SWAP1 POP SWAP2 SWAP1 POP JUMP JUMPDEST PUSH0 PUSH2 0x53E PUSH2 0x539 PUSH2 0x534 DUP5 PUSH2 0x2F4 JUMP JUMPDEST PUSH2 0x51B JUMP JUMPDEST PUSH2 0x2F4 JUMP JUMPDEST SWAP1 POP SWAP2 SWAP1 POP JUMP JUMPDEST PUSH0 DUP2 SWAP1 POP SWAP2 SWAP1 POP JUMP JUMPDEST PUSH2 0x557 DUP4 PUSH2 0x524 JUMP JUMPDEST PUSH2 0x56B PUSH2 0x563 DUP3 PUSH2 0x545 JUMP JUMPDEST DUP5 DUP5 SLOAD PUSH2 0x4CA JUMP JUMPDEST DUP3 SSTORE POP POP POP POP JUMP JUMPDEST PUSH0 SWAP1 JUMP JUMPDEST PUSH2 0x57F PUSH2 0x573 JUMP JUMPDEST PUSH2 0x58A DUP2 DUP5 DUP5 PUSH2 0x54E JUMP JUMPDEST POP POP POP JUMP JUMPDEST JUMPDEST DUP2 DUP2 LT ISZERO PUSH2 0x5AD JUMPI PUSH2 0x5A2 PUSH0 DUP3 PUSH2 0x577 JUMP JUMPDEST PUSH1 0x1 DUP2 ADD SWAP1 POP PUSH2 0x590 JUMP JUMPDEST POP POP JUMP JUMPDEST PUSH1 0x1F DUP3 GT ISZERO PUSH2 0x5F2 JUMPI PUSH2 0x5C3 DUP2 PUSH2 0x49D JUMP JUMPDEST PUSH2 0x5CC DUP5 PUSH2 0x4AF JUMP JUMPDEST DUP2 ADD PUSH1 0x20 DUP6 LT ISZERO PUSH2 0x5DB JUMPI DUP2 SWAP1 POP JUMPDEST PUSH2 0x5EF PUSH2 0x5E7 DUP6 PUSH2 0x4AF JUMP JUMPDEST DUP4 ADD DUP3 PUSH2 0x58F JUMP JUMPDEST POP POP JUMPDEST POP POP POP JUMP JUMPDEST PUSH0 DUP3 DUP3 SHR SWAP1 POP SWAP3 SWAP2 POP POP JUMP JUMPDEST PUSH0 PUSH2 0x612 PUSH0 NOT DUP5 PUSH1 0x8 MUL PUSH2 0x5F7 JUMP JUMPDEST NOT DUP1 DUP4 AND SWAP2 POP POP SWAP3 SWAP2 POP POP JUMP JUMPDEST PUSH0 PUSH2 0x62A DUP4 DUP4 PUSH2 0x603 JUMP JUMPDEST SWAP2 POP DUP3 PUSH1 0x2 MUL DUP3 OR SWAP1 POP SWAP3 SWAP2 POP POP JUMP JUMPDEST PUSH2 0x643 DUP3 PUSH2 0x436 JUMP JUMPDEST PUSH8 0xFFFFFFFFFFFFFFFF DUP2 GT ISZERO PUSH2 0x65C JUMPI PUSH2 0x65B PUSH2 0x1D0 JUMP JUMPDEST JUMPDEST PUSH2 0x666 DUP3 SLOAD PUSH2 0x46D JUMP JUMPDEST PUSH2 0x671 DUP3 DUP3 DUP6 PUSH2 0x5B1 JUMP JUMPDEST PUSH0 PUSH1 0x20 SWAP1 POP PUSH1 0x1F DUP4 GT PUSH1 0x1 DUP2 EQ PUSH2 0x6A2 JUMPI PUSH0 DUP5 ISZERO PUSH2 0x690 JUMPI DUP3 DUP8 ADD MLOAD SWAP1 POP JUMPDEST PUSH2 0x69A DUP6 DUP3 PUSH2 0x61F JUMP JUMPDEST DUP7 SSTORE POP PUSH2 0x701 JUMP JUMPDEST PUSH1 0x1F NOT DUP5 AND PUSH2 0x6B0 DUP7 PUSH2 0x49D JUMP JUMPDEST PUSH0 JUMPDEST DUP3 DUP2 LT ISZERO PUSH2 0x6D7 JUMPI DUP5 DUP10 ADD MLOAD DUP3 SSTORE PUSH1 0x1 DUP3 ADD SWAP2 POP PUSH1 0x20 DUP6 ADD SWAP5 POP PUSH1 0x20 DUP2 ADD SWAP1 POP PUSH2 0x6B2 JUMP JUMPDEST DUP7 DUP4 LT ISZERO PUSH2 0x6F4 JUMPI DUP5 DUP10 ADD MLOAD PUSH2 0x6F0 PUSH1 0x1F DUP10 AND DUP3 PUSH2 0x603 JUMP JUMPDEST DUP4 SSTORE POP JUMPDEST PUSH1 0x1 PUSH1 0x2 DUP9 MUL ADD DUP9 SSTORE POP POP POP JUMPDEST POP POP POP POP POP POP JUMP JUMPDEST PUSH32 0x4E487B7100000000000000000000000000000000000000000000000000000000 PUSH0 MSTORE PUSH1 0x11 PUSH1 0x4 MSTORE PUSH1 0x24 PUSH0 REVERT JUMPDEST PUSH0 PUSH2 0x740 DUP3 PUSH2 0x2F4 JUMP JUMPDEST SWAP2 POP PUSH32 0xFFFFFFFFFFFFFFFFFFFFFFFFFFFFFFFFFFFFFFFFFFFFFFFFFFFFFFFFFFFFFFFF DUP3 SUB PUSH2 0x772 JUMPI PUSH2 0x771 PUSH2 0x709 JUMP JUMPDEST JUMPDEST PUSH1 0x1 DUP3 ADD SWAP1 POP SWAP2 SWAP1 POP JUMP INVALID LOG2 PUSH5 0x6970667358 0x22 SLT KECCAK256 POP 0xD8 PUSH18 0xCF2FC08414A44908887B37ACB10F59315860 0x21 SWAP16 0xB1 MSTORE8 SLT DUP12 0x2C SWAP4 CALLVALUE DUP15 PUSH13 0x64736F6C634300081600330000 "
				},
				"gasEstimates": {
					"creation": {
						"codeDepositCost": "394200",
						"executionCost": "5433",
						"totalCost": "399633"
					},
					"external": {
						"getProductLength()": "2432",
						"writeProduct(string,string,string,string,uint256)": "infinite"
					}
				},
				"methodIdentifiers": {
					"getProductLength()": "f2d61819",
					"writeProduct(string,string,string,string,uint256)": "8da8f27b"
				}
			},
			"storageLayout": {
				"storage": [
					{
						"astId": 4,
						"contract": "smart-contract/optimasing_the_contract.sol:Marketplace",
						"label": "productsLength",
						"offset": 0,
						"slot": "0",
						"type": "t_uint256"
					},
					{
						"astId": 24,
						"contract": "smart-contract/optimasing_the_contract.sol:Marketplace",
						"label": "products",
						"offset": 0,
						"slot": "1",
						"type": "t_mapping(t_uint256,t_struct(Product)19_storage)"
					}
				],
				"types": {
					"t_address_payable": {
						"encoding": "inplace",
						"label": "address payable",
						"numberOfBytes": "20"
					},
					"t_mapping(t_uint256,t_struct(Product)19_storage)": {
						"encoding": "mapping",
						"key": "t_uint256",
						"label": "mapping(uint256 => struct Marketplace.Product)",
						"numberOfBytes": "32",
						"value": "t_struct(Product)19_storage"
					},
					"t_string_storage": {
						"encoding": "bytes",
						"label": "string",
						"numberOfBytes": "32"
					},
					"t_struct(Product)19_storage": {
						"encoding": "inplace",
						"label": "struct Marketplace.Product",
						"members": [
							{
								"astId": 6,
								"contract": "smart-contract/optimasing_the_contract.sol:Marketplace",
								"label": "owner",
								"offset": 0,
								"slot": "0",
								"type": "t_address_payable"
							},
							{
								"astId": 8,
								"contract": "smart-contract/optimasing_the_contract.sol:Marketplace",
								"label": "name",
								"offset": 0,
								"slot": "1",
								"type": "t_string_storage"
							},
							{
								"astId": 10,
								"contract": "smart-contract/optimasing_the_contract.sol:Marketplace",
								"label": "image",
								"offset": 0,
								"slot": "2",
								"type": "t_string_storage"
							},
							{
								"astId": 12,
								"contract": "smart-contract/optimasing_the_contract.sol:Marketplace",
								"label": "description",
								"offset": 0,
								"slot": "3",
								"type": "t_string_storage"
							},
							{
								"astId": 14,
								"contract": "smart-contract/optimasing_the_contract.sol:Marketplace",
								"label": "location",
								"offset": 0,
								"slot": "4",
								"type": "t_string_storage"
							},
							{
								"astId": 16,
								"contract": "smart-contract/optimasing_the_contract.sol:Marketplace",
								"label": "price",
								"offset": 0,
								"slot": "5",
								"type": "t_uint256"
							},
							{
								"astId": 18,
								"contract": "smart-contract/optimasing_the_contract.sol:Marketplace",
								"label": "sold",
								"offset": 0,
								"slot": "6",
								"type": "t_uint256"
							}
						],
						"numberOfBytes": "224"
					},
					"t_uint256": {
						"encoding": "inplace",
						"label": "uint256",
						"numberOfBytes": "32"
					}
				}
			},
			"userdoc": {
				"kind": "user",
				"methods": {},
				"version": 1
			}
		}
	}
}