{
	"smart-contract/save_multiple_variables_with structs.sol": {
		"Marketplace": {
			"abi": [
				{
					"inputs": [
						{
							"internalType": "uint256",
							"name": "_index",
							"type": "uint256"
						}
					],
					"name": "readProduct",
					"outputs": [
						{
							"internalType": "address payable",
							"name": "",
							"type": "address"
						},
						{
							"internalType": "string",
							"name": "",
							"type": "string"
						},
						{
							"internalType": "string",
							"name": "",
							"type": "string"
						},
						{
							"internalType": "string",
							"name": "",
							"type": "string"
						},
						{
							"internalType": "string",
							"name": "",
							"type": "string"
						},
						{
							"internalType": "uint256",
							"name": "",
							"type": "uint256"
						},
						{
							"internalType": "uint256",
							"name": "",
							"type": "uint256"
						}
					],
					"stateMutability": "view",
					"type": "function"
				},
				{
					"inputs": [
						{
							"internalType": "uint256",
							"name": "_index",
							"type": "uint256"
						},
						{
							"internalType": "string",
							"name": "_name",
							"type": "string"
						},
						{
							"internalType": "string",
							"name": "_image",
							"type": "string"
						},
						{
							"internalType": "string",
							"name": "_description",
							"type": "string"
						},
						{
							"internalType": "string",
							"name": "_location",
							"type": "string"
						},
						{
							"internalType": "uint256",
							"name": "_price",
							"type": "uint256"
						}
					],
					"name": "writeProduct",
					"outputs": [],
					"stateMutability": "nonpayable",
					"type": "function"
				}
			],
			"devdoc": {
				"kind": "dev",
				"methods": {},
				"version": 1
			},
			"evm": {
				"assembly": "    /* \"smart-contract/save_multiple_variables_with structs.sol\":68:1413  contract Marketplace {... */\n  mstore(0x40, 0x80)\n  callvalue\n  dup1\n  iszero\n  tag_1\n  jumpi\n  0x00\n  dup1\n  revert\ntag_1:\n  pop\n  dataSize(sub_0)\n  dup1\n  dataOffset(sub_0)\n  0x00\n  codecopy\n  0x00\n  return\nstop\n\nsub_0: assembly {\n        /* \"smart-contract/save_multiple_variables_with structs.sol\":68:1413  contract Marketplace {... */\n      mstore(0x40, 0x80)\n      callvalue\n      dup1\n      iszero\n      tag_1\n      jumpi\n      0x00\n      dup1\n      revert\n    tag_1:\n      pop\n      jumpi(tag_2, lt(calldatasize, 0x04))\n      shr(0xe0, calldataload(0x00))\n      dup1\n      0xcabde1cc\n      eq\n      tag_3\n      jumpi\n      dup1\n      0xfffa7e2e\n      eq\n      tag_4\n      jumpi\n    tag_2:\n      0x00\n      dup1\n      revert\n        /* \"smart-contract/save_multiple_variables_with structs.sol\":413:864  function writeProduct(... */\n    tag_3:\n      tag_5\n      0x04\n      dup1\n      calldatasize\n      sub\n      dup2\n      add\n      swap1\n      tag_6\n      swap2\n      swap1\n      tag_7\n      jump\t// in\n    tag_6:\n      tag_8\n      jump\t// in\n    tag_5:\n      stop\n        /* \"smart-contract/save_multiple_variables_with structs.sol\":912:1411  function readProduct(uint _index) public view returns (... */\n    tag_4:\n      tag_9\n      0x04\n      dup1\n      calldatasize\n      sub\n      dup2\n      add\n      swap1\n      tag_10\n      swap2\n      swap1\n      tag_11\n      jump\t// in\n    tag_10:\n      tag_12\n      jump\t// in\n    tag_9:\n      mload(0x40)\n      tag_13\n      swap8\n      swap7\n      swap6\n      swap5\n      swap4\n      swap3\n      swap2\n      swap1\n      tag_14\n      jump\t// in\n    tag_13:\n      mload(0x40)\n      dup1\n      swap2\n      sub\n      swap1\n      return\n        /* \"smart-contract/save_multiple_variables_with structs.sol\":413:864  function writeProduct(... */\n    tag_8:\n        /* \"smart-contract/save_multiple_variables_with structs.sol\":628:638  uint _sold */\n      0x00\n        /* \"smart-contract/save_multiple_variables_with structs.sol\":671:848  Product(... */\n      mload(0x40)\n      dup1\n      0xe0\n      add\n      0x40\n      mstore\n      dup1\n        /* \"smart-contract/save_multiple_variables_with structs.sol\":700:710  msg.sender */\n      caller\n        /* \"smart-contract/save_multiple_variables_with structs.sol\":671:848  Product(... */\n      0xffffffffffffffffffffffffffffffffffffffff\n      and\n      dup2\n      mstore\n      0x20\n      add\n        /* \"smart-contract/save_multiple_variables_with structs.sol\":725:730  _name */\n      dup8\n        /* \"smart-contract/save_multiple_variables_with structs.sol\":671:848  Product(... */\n      dup2\n      mstore\n      0x20\n      add\n        /* \"smart-contract/save_multiple_variables_with structs.sol\":744:750  _image */\n      dup7\n        /* \"smart-contract/save_multiple_variables_with structs.sol\":671:848  Product(... */\n      dup2\n      mstore\n      0x20\n      add\n        /* \"smart-contract/save_multiple_variables_with structs.sol\":764:776  _description */\n      dup6\n        /* \"smart-contract/save_multiple_variables_with structs.sol\":671:848  Product(... */\n      dup2\n      mstore\n      0x20\n      add\n        /* \"smart-contract/save_multiple_variables_with structs.sol\":790:799  _location */\n      dup5\n        /* \"smart-contract/save_multiple_variables_with structs.sol\":671:848  Product(... */\n      dup2\n      mstore\n      0x20\n      add\n        /* \"smart-contract/save_multiple_variables_with structs.sol\":813:819  _price */\n      dup4\n        /* \"smart-contract/save_multiple_variables_with structs.sol\":671:848  Product(... */\n      dup2\n      mstore\n      0x20\n      add\n        /* \"smart-contract/save_multiple_variables_with structs.sol\":833:838  _sold */\n      dup3\n        /* \"smart-contract/save_multiple_variables_with structs.sol\":671:848  Product(... */\n      dup2\n      mstore\n      pop\n        /* \"smart-contract/save_multiple_variables_with structs.sol\":652:660  products */\n      0x00\n        /* \"smart-contract/save_multiple_variables_with structs.sol\":652:668  products[_index] */\n      dup1\n        /* \"smart-contract/save_multiple_variables_with structs.sol\":661:667  _index */\n      dup10\n        /* \"smart-contract/save_multiple_variables_with structs.sol\":652:668  products[_index] */\n      dup2\n      mstore\n      0x20\n      add\n      swap1\n      dup2\n      mstore\n      0x20\n      add\n      0x00\n      keccak256\n        /* \"smart-contract/save_multiple_variables_with structs.sol\":652:848  products[_index] = Product(... */\n      0x00\n      dup3\n      add\n      mload\n      dup2\n      0x00\n      add\n      exp(0x0100, 0x00)\n      dup2\n      sload\n      dup2\n      0xffffffffffffffffffffffffffffffffffffffff\n      mul\n      not\n      and\n      swap1\n      dup4\n      0xffffffffffffffffffffffffffffffffffffffff\n      and\n      mul\n      or\n      swap1\n      sstore\n      pop\n      0x20\n      dup3\n      add\n      mload\n      dup2\n      0x01\n      add\n      swap1\n      dup2\n      tag_16\n      swap2\n      swap1\n      tag_17\n      jump\t// in\n    tag_16:\n      pop\n      0x40\n      dup3\n      add\n      mload\n      dup2\n      0x02\n      add\n      swap1\n      dup2\n      tag_18\n      swap2\n      swap1\n      tag_17\n      jump\t// in\n    tag_18:\n      pop\n      0x60\n      dup3\n      add\n      mload\n      dup2\n      0x03\n      add\n      swap1\n      dup2\n      tag_19\n      swap2\n      swap1\n      tag_17\n      jump\t// in\n    tag_19:\n      pop\n      0x80\n      dup3\n      add\n      mload\n      dup2\n      0x04\n      add\n      swap1\n      dup2\n      tag_20\n      swap2\n      swap1\n      tag_17\n      jump\t// in\n    tag_20:\n      pop\n      0xa0\n      dup3\n      add\n      mload\n      dup2\n      0x05\n      add\n      sstore\n      0xc0\n      dup3\n      add\n      mload\n      dup2\n      0x06\n      add\n      sstore\n      swap1\n      pop\n      pop\n        /* \"smart-contract/save_multiple_variables_with structs.sol\":618:864  {... */\n      pop\n        /* \"smart-contract/save_multiple_variables_with structs.sol\":413:864  function writeProduct(... */\n      pop\n      pop\n      pop\n      pop\n      pop\n      pop\n      jump\t// out\n        /* \"smart-contract/save_multiple_variables_with structs.sol\":912:1411  function readProduct(uint _index) public view returns (... */\n    tag_12:\n        /* \"smart-contract/save_multiple_variables_with structs.sol\":976:991  address payable */\n      0x00\n        /* \"smart-contract/save_multiple_variables_with structs.sol\":1001:1014  string memory */\n      0x60\n        /* \"smart-contract/save_multiple_variables_with structs.sol\":1024:1037  string memory */\n      dup1\n        /* \"smart-contract/save_multiple_variables_with structs.sol\":1047:1060  string memory */\n      0x60\n        /* \"smart-contract/save_multiple_variables_with structs.sol\":1070:1083  string memory */\n      dup1\n        /* \"smart-contract/save_multiple_variables_with structs.sol\":1093:1097  uint */\n      0x00\n        /* \"smart-contract/save_multiple_variables_with structs.sol\":1107:1111  uint */\n      dup1\n        /* \"smart-contract/save_multiple_variables_with structs.sol\":1148:1156  products */\n      0x00\n        /* \"smart-contract/save_multiple_variables_with structs.sol\":1148:1164  products[_index] */\n      dup1\n        /* \"smart-contract/save_multiple_variables_with structs.sol\":1157:1163  _index */\n      dup10\n        /* \"smart-contract/save_multiple_variables_with structs.sol\":1148:1164  products[_index] */\n      dup2\n      mstore\n      0x20\n      add\n      swap1\n      dup2\n      mstore\n      0x20\n      add\n      0x00\n      keccak256\n        /* \"smart-contract/save_multiple_variables_with structs.sol\":1148:1170  products[_index].owner */\n      0x00\n      add\n      0x00\n      swap1\n      sload\n      swap1\n      0x0100\n      exp\n      swap1\n      div\n      0xffffffffffffffffffffffffffffffffffffffff\n      and\n        /* \"smart-contract/save_multiple_variables_with structs.sol\":1184:1192  products */\n      0x00\n        /* \"smart-contract/save_multiple_variables_with structs.sol\":1184:1200  products[_index] */\n      dup1\n        /* \"smart-contract/save_multiple_variables_with structs.sol\":1193:1199  _index */\n      dup11\n        /* \"smart-contract/save_multiple_variables_with structs.sol\":1184:1200  products[_index] */\n      dup2\n      mstore\n      0x20\n      add\n      swap1\n      dup2\n      mstore\n      0x20\n      add\n      0x00\n      keccak256\n        /* \"smart-contract/save_multiple_variables_with structs.sol\":1184:1205  products[_index].name */\n      0x01\n      add\n        /* \"smart-contract/save_multiple_variables_with structs.sol\":1219:1227  products */\n      0x00\n        /* \"smart-contract/save_multiple_variables_with structs.sol\":1219:1235  products[_index] */\n      dup1\n        /* \"smart-contract/save_multiple_variables_with structs.sol\":1228:1234  _index */\n      dup12\n        /* \"smart-contract/save_multiple_variables_with structs.sol\":1219:1235  products[_index] */\n      dup2\n      mstore\n      0x20\n      add\n      swap1\n      dup2\n      mstore\n      0x20\n      add\n      0x00\n      keccak256\n        /* \"smart-contract/save_multiple_variables_with structs.sol\":1219:1241  products[_index].image */\n      0x02\n      add\n        /* \"smart-contract/save_multiple_variables_with structs.sol\":1255:1263  products */\n      0x00\n        /* \"smart-contract/save_multiple_variables_with structs.sol\":1255:1271  products[_index] */\n      dup1\n        /* \"smart-contract/save_multiple_variables_with structs.sol\":1264:1270  _index */\n      dup13\n        /* \"smart-contract/save_multiple_variables_with structs.sol\":1255:1271  products[_index] */\n      dup2\n      mstore\n      0x20\n      add\n      swap1\n      dup2\n      mstore\n      0x20\n      add\n      0x00\n      keccak256\n        /* \"smart-contract/save_multiple_variables_with structs.sol\":1255:1283  products[_index].description */\n      0x03\n      add\n        /* \"smart-contract/save_multiple_variables_with structs.sol\":1297:1305  products */\n      0x00\n        /* \"smart-contract/save_multiple_variables_with structs.sol\":1297:1313  products[_index] */\n      dup1\n        /* \"smart-contract/save_multiple_variables_with structs.sol\":1306:1312  _index */\n      dup14\n        /* \"smart-contract/save_multiple_variables_with structs.sol\":1297:1313  products[_index] */\n      dup2\n      mstore\n      0x20\n      add\n      swap1\n      dup2\n      mstore\n      0x20\n      add\n      0x00\n      keccak256\n        /* \"smart-contract/save_multiple_variables_with structs.sol\":1297:1322  products[_index].location */\n      0x04\n      add\n        /* \"smart-contract/save_multiple_variables_with structs.sol\":1337:1345  products */\n      0x00\n        /* \"smart-contract/save_multiple_variables_with structs.sol\":1337:1353  products[_index] */\n      dup1\n        /* \"smart-contract/save_multiple_variables_with structs.sol\":1346:1352  _index */\n      dup15\n        /* \"smart-contract/save_multiple_variables_with structs.sol\":1337:1353  products[_index] */\n      dup2\n      mstore\n      0x20\n      add\n      swap1\n      dup2\n      mstore\n      0x20\n      add\n      0x00\n      keccak256\n        /* \"smart-contract/save_multiple_variables_with structs.sol\":1337:1359  products[_index].price */\n      0x05\n      add\n      sload\n        /* \"smart-contract/save_multiple_variables_with structs.sol\":1373:1381  products */\n      0x00\n        /* \"smart-contract/save_multiple_variables_with structs.sol\":1373:1389  products[_index] */\n      dup1\n        /* \"smart-contract/save_multiple_variables_with structs.sol\":1382:1388  _index */\n      dup16\n        /* \"smart-contract/save_multiple_variables_with structs.sol\":1373:1389  products[_index] */\n      dup2\n      mstore\n      0x20\n      add\n      swap1\n      dup2\n      mstore\n      0x20\n      add\n      0x00\n      keccak256\n        /* \"smart-contract/save_multiple_variables_with structs.sol\":1373:1394  products[_index].sold */\n      0x06\n      add\n      sload\n        /* \"smart-contract/save_multiple_variables_with structs.sol\":1128:1404  return(... */\n      dup6\n      dup1\n      sload\n      tag_22\n      swap1\n      tag_23\n      jump\t// in\n    tag_22:\n      dup1\n      0x1f\n      add\n      0x20\n      dup1\n      swap2\n      div\n      mul\n      0x20\n      add\n      mload(0x40)\n      swap1\n      dup2\n      add\n      0x40\n      mstore\n      dup1\n      swap3\n      swap2\n      swap1\n      dup2\n      dup2\n      mstore\n      0x20\n      add\n      dup3\n      dup1\n      sload\n      tag_24\n      swap1\n      tag_23\n      jump\t// in\n    tag_24:\n      dup1\n      iszero\n      tag_25\n      jumpi\n      dup1\n      0x1f\n      lt\n      tag_26\n      jumpi\n      0x0100\n      dup1\n      dup4\n      sload\n      div\n      mul\n      dup4\n      mstore\n      swap2\n      0x20\n      add\n      swap2\n      jump(tag_25)\n    tag_26:\n      dup3\n      add\n      swap2\n      swap1\n      0x00\n      mstore\n      keccak256(0x00, 0x20)\n      swap1\n    tag_27:\n      dup2\n      sload\n      dup2\n      mstore\n      swap1\n      0x01\n      add\n      swap1\n      0x20\n      add\n      dup1\n      dup4\n      gt\n      tag_27\n      jumpi\n      dup3\n      swap1\n      sub\n      0x1f\n      and\n      dup3\n      add\n      swap2\n    tag_25:\n      pop\n      pop\n      pop\n      pop\n      pop\n      swap6\n      pop\n      dup5\n      dup1\n      sload\n      tag_28\n      swap1\n      tag_23\n      jump\t// in\n    tag_28:\n      dup1\n      0x1f\n      add\n      0x20\n      dup1\n      swap2\n      div\n      mul\n      0x20\n      add\n      mload(0x40)\n      swap1\n      dup2\n      add\n      0x40\n      mstore\n      dup1\n      swap3\n      swap2\n      swap1\n      dup2\n      dup2\n      mstore\n      0x20\n      add\n      dup3\n      dup1\n      sload\n      tag_29\n      swap1\n      tag_23\n      jump\t// in\n    tag_29:\n      dup1\n      iszero\n      tag_30\n      jumpi\n      dup1\n      0x1f\n      lt\n      tag_31\n      jumpi\n      0x0100\n      dup1\n      dup4\n      sload\n      div\n      mul\n      dup4\n      mstore\n      swap2\n      0x20\n      add\n      swap2\n      jump(tag_30)\n    tag_31:\n      dup3\n      add\n      swap2\n      swap1\n      0x00\n      mstore\n      keccak256(0x00, 0x20)\n      swap1\n    tag_32:\n      dup2\n      sload\n      dup2\n      mstore\n      swap1\n      0x01\n      add\n      swap1\n      0x20\n      add\n      dup1\n      dup4\n      gt\n      tag_32\n      jumpi\n      dup3\n      swap1\n      sub\n      0x1f\n      and\n      dup3\n      add\n      swap2\n    tag_30:\n      pop\n      pop\n      pop\n      pop\n      pop\n      swap5\n      pop\n      dup4\n      dup1\n      sload\n      tag_33\n      swap1\n      tag_23\n      jump\t// in\n    tag_33:\n      dup1\n      0x1f\n      add\n      0x20\n      dup1\n      swap2\n      div\n      mul\n      0x20\n      add\n      mload(0x40)\n      swap1\n      dup2\n      add\n      0x40\n      mstore\n      dup1\n      swap3\n      swap2\n      swap1\n      dup2\n      dup2\n      mstore\n      0x20\n      add\n      dup3\n      dup1\n      sload\n      tag_34\n      swap1\n      tag_23\n      jump\t// in\n    tag_34:\n      dup1\n      iszero\n      tag_35\n      jumpi\n      dup1\n      0x1f\n      lt\n      tag_36\n      jumpi\n      0x0100\n      dup1\n      dup4\n      sload\n      div\n      mul\n      dup4\n      mstore\n      swap2\n      0x20\n      add\n      swap2\n      jump(tag_35)\n    tag_36:\n      dup3\n      add\n      swap2\n      swap1\n      0x00\n      mstore\n      keccak256(0x00, 0x20)\n      swap1\n    tag_37:\n      dup2\n      sload\n      dup2\n      mstore\n      swap1\n      0x01\n      add\n      swap1\n      0x20\n      add\n      dup1\n      dup4\n      gt\n      tag_37\n      jumpi\n      dup3\n      swap1\n      sub\n      0x1f\n      and\n      dup3\n      add\n      swap2\n    tag_35:\n      pop\n      pop\n      pop\n      pop\n      pop\n      swap4\n      pop\n      dup3\n      dup1\n      sload\n      tag_38\n      swap1\n      tag_23\n      jump\t// in\n    tag_38:\n      dup1\n      0x1f\n      add\n      0x20\n      dup1\n      swap2\n      div\n      mul\n      0x20\n      add\n      mload(0x40)\n      swap1\n      dup2\n      add\n      0x40\n      mstore\n      dup1\n      swap3\n      swap2\n      swap1\n      dup2\n      dup2\n      mstore\n      0x20\n      add\n      dup3\n      dup1\n      sload\n      tag_39\n      swap1\n      tag_23\n      jump\t// in\n    tag_39:\n      dup1\n      iszero\n      tag_40\n      jumpi\n      dup1\n      0x1f\n      lt\n      tag_41\n      jumpi\n      0x0100\n      dup1\n      dup4\n      sload\n      div\n      mul\n      dup4\n      mstore\n      swap2\n      0x20\n      add\n      swap2\n      jump(tag_40)\n    tag_41:\n      dup3\n      add\n      swap2\n      swap1\n      0x00\n      mstore\n      keccak256(0x00, 0x20)\n      swap1\n    tag_42:\n      dup2\n      sload\n      dup2\n      mstore\n      swap1\n      0x01\n      add\n      swap1\n      0x20\n      add\n      dup1\n      dup4\n      gt\n      tag_42\n      jumpi\n      dup3\n      swap1\n      sub\n      0x1f\n      and\n      dup3\n      add\n      swap2\n    tag_40:\n      pop\n      pop\n      pop\n      pop\n      pop\n      swap3\n      pop\n      swap7\n      pop\n      swap7\n      pop\n      swap7\n      pop\n      swap7\n      pop\n      swap7\n      pop\n      swap7\n      pop\n      swap7\n      pop\n        /* \"smart-contract/save_multiple_variables_with structs.sol\":912:1411  function readProduct(uint _index) public view returns (... */\n      swap2\n      swap4\n      swap6\n      swap8\n      swap1\n      swap3\n      swap5\n      swap7\n      pop\n      jump\t// out\n        /* \"#utility.yul\":7:82   */\n    tag_43:\n        /* \"#utility.yul\":40:46   */\n      0x00\n        /* \"#utility.yul\":73:75   */\n      0x40\n        /* \"#utility.yul\":67:76   */\n      mload\n        /* \"#utility.yul\":57:76   */\n      swap1\n      pop\n        /* \"#utility.yul\":7:82   */\n      swap1\n      jump\t// out\n        /* \"#utility.yul\":88:205   */\n    tag_44:\n        /* \"#utility.yul\":197:198   */\n      0x00\n        /* \"#utility.yul\":194:195   */\n      dup1\n        /* \"#utility.yul\":187:199   */\n      revert\n        /* \"#utility.yul\":211:328   */\n    tag_45:\n        /* \"#utility.yul\":320:321   */\n      0x00\n        /* \"#utility.yul\":317:318   */\n      dup1\n        /* \"#utility.yul\":310:322   */\n      revert\n        /* \"#utility.yul\":334:411   */\n    tag_46:\n        /* \"#utility.yul\":371:378   */\n      0x00\n        /* \"#utility.yul\":400:405   */\n      dup2\n        /* \"#utility.yul\":389:405   */\n      swap1\n      pop\n        /* \"#utility.yul\":334:411   */\n      swap2\n      swap1\n      pop\n      jump\t// out\n        /* \"#utility.yul\":417:539   */\n    tag_47:\n        /* \"#utility.yul\":490:514   */\n      tag_89\n        /* \"#utility.yul\":508:513   */\n      dup2\n        /* \"#utility.yul\":490:514   */\n      tag_46\n      jump\t// in\n    tag_89:\n        /* \"#utility.yul\":483:488   */\n      dup2\n        /* \"#utility.yul\":480:515   */\n      eq\n        /* \"#utility.yul\":470:533   */\n      tag_90\n      jumpi\n        /* \"#utility.yul\":529:530   */\n      0x00\n        /* \"#utility.yul\":526:527   */\n      dup1\n        /* \"#utility.yul\":519:531   */\n      revert\n        /* \"#utility.yul\":470:533   */\n    tag_90:\n        /* \"#utility.yul\":417:539   */\n      pop\n      jump\t// out\n        /* \"#utility.yul\":545:684   */\n    tag_48:\n        /* \"#utility.yul\":591:596   */\n      0x00\n        /* \"#utility.yul\":629:635   */\n      dup2\n        /* \"#utility.yul\":616:636   */\n      calldataload\n        /* \"#utility.yul\":607:636   */\n      swap1\n      pop\n        /* \"#utility.yul\":645:678   */\n      tag_92\n        /* \"#utility.yul\":672:677   */\n      dup2\n        /* \"#utility.yul\":645:678   */\n      tag_47\n      jump\t// in\n    tag_92:\n        /* \"#utility.yul\":545:684   */\n      swap3\n      swap2\n      pop\n      pop\n      jump\t// out\n        /* \"#utility.yul\":690:807   */\n    tag_49:\n        /* \"#utility.yul\":799:800   */\n      0x00\n        /* \"#utility.yul\":796:797   */\n      dup1\n        /* \"#utility.yul\":789:801   */\n      revert\n        /* \"#utility.yul\":813:930   */\n    tag_50:\n        /* \"#utility.yul\":922:923   */\n      0x00\n        /* \"#utility.yul\":919:920   */\n      dup1\n        /* \"#utility.yul\":912:924   */\n      revert\n        /* \"#utility.yul\":936:1038   */\n    tag_51:\n        /* \"#utility.yul\":977:983   */\n      0x00\n        /* \"#utility.yul\":1028:1030   */\n      0x1f\n        /* \"#utility.yul\":1024:1031   */\n      not\n        /* \"#utility.yul\":1019:1021   */\n      0x1f\n        /* \"#utility.yul\":1012:1017   */\n      dup4\n        /* \"#utility.yul\":1008:1022   */\n      add\n        /* \"#utility.yul\":1004:1032   */\n      and\n        /* \"#utility.yul\":994:1032   */\n      swap1\n      pop\n        /* \"#utility.yul\":936:1038   */\n      swap2\n      swap1\n      pop\n      jump\t// out\n        /* \"#utility.yul\":1044:1224   */\n    tag_52:\n        /* \"#utility.yul\":1092:1169   */\n      0x4e487b7100000000000000000000000000000000000000000000000000000000\n        /* \"#utility.yul\":1089:1090   */\n      0x00\n        /* \"#utility.yul\":1082:1170   */\n      mstore\n        /* \"#utility.yul\":1189:1193   */\n      0x41\n        /* \"#utility.yul\":1186:1187   */\n      0x04\n        /* \"#utility.yul\":1179:1194   */\n      mstore\n        /* \"#utility.yul\":1213:1217   */\n      0x24\n        /* \"#utility.yul\":1210:1211   */\n      0x00\n        /* \"#utility.yul\":1203:1218   */\n      revert\n        /* \"#utility.yul\":1230:1511   */\n    tag_53:\n        /* \"#utility.yul\":1313:1340   */\n      tag_98\n        /* \"#utility.yul\":1335:1339   */\n      dup3\n        /* \"#utility.yul\":1313:1340   */\n      tag_51\n      jump\t// in\n    tag_98:\n        /* \"#utility.yul\":1305:1311   */\n      dup2\n        /* \"#utility.yul\":1301:1341   */\n      add\n        /* \"#utility.yul\":1443:1449   */\n      dup2\n        /* \"#utility.yul\":1431:1441   */\n      dup2\n        /* \"#utility.yul\":1428:1450   */\n      lt\n        /* \"#utility.yul\":1407:1425   */\n      0xffffffffffffffff\n        /* \"#utility.yul\":1395:1405   */\n      dup3\n        /* \"#utility.yul\":1392:1426   */\n      gt\n        /* \"#utility.yul\":1389:1451   */\n      or\n        /* \"#utility.yul\":1386:1474   */\n      iszero\n      tag_99\n      jumpi\n        /* \"#utility.yul\":1454:1472   */\n      tag_100\n      tag_52\n      jump\t// in\n    tag_100:\n        /* \"#utility.yul\":1386:1474   */\n    tag_99:\n        /* \"#utility.yul\":1494:1504   */\n      dup1\n        /* \"#utility.yul\":1490:1492   */\n      0x40\n        /* \"#utility.yul\":1483:1505   */\n      mstore\n        /* \"#utility.yul\":1273:1511   */\n      pop\n        /* \"#utility.yul\":1230:1511   */\n      pop\n      pop\n      jump\t// out\n        /* \"#utility.yul\":1517:1646   */\n    tag_54:\n        /* \"#utility.yul\":1551:1557   */\n      0x00\n        /* \"#utility.yul\":1578:1598   */\n      tag_102\n      tag_43\n      jump\t// in\n    tag_102:\n        /* \"#utility.yul\":1568:1598   */\n      swap1\n      pop\n        /* \"#utility.yul\":1607:1640   */\n      tag_103\n        /* \"#utility.yul\":1635:1639   */\n      dup3\n        /* \"#utility.yul\":1627:1633   */\n      dup3\n        /* \"#utility.yul\":1607:1640   */\n      tag_53\n      jump\t// in\n    tag_103:\n        /* \"#utility.yul\":1517:1646   */\n      swap2\n      swap1\n      pop\n      jump\t// out\n        /* \"#utility.yul\":1652:1960   */\n    tag_55:\n        /* \"#utility.yul\":1714:1718   */\n      0x00\n        /* \"#utility.yul\":1804:1822   */\n      0xffffffffffffffff\n        /* \"#utility.yul\":1796:1802   */\n      dup3\n        /* \"#utility.yul\":1793:1823   */\n      gt\n        /* \"#utility.yul\":1790:1846   */\n      iszero\n      tag_105\n      jumpi\n        /* \"#utility.yul\":1826:1844   */\n      tag_106\n      tag_52\n      jump\t// in\n    tag_106:\n        /* \"#utility.yul\":1790:1846   */\n    tag_105:\n        /* \"#utility.yul\":1864:1893   */\n      tag_107\n        /* \"#utility.yul\":1886:1892   */\n      dup3\n        /* \"#utility.yul\":1864:1893   */\n      tag_51\n      jump\t// in\n    tag_107:\n        /* \"#utility.yul\":1856:1893   */\n      swap1\n      pop\n        /* \"#utility.yul\":1948:1952   */\n      0x20\n        /* \"#utility.yul\":1942:1946   */\n      dup2\n        /* \"#utility.yul\":1938:1953   */\n      add\n        /* \"#utility.yul\":1930:1953   */\n      swap1\n      pop\n        /* \"#utility.yul\":1652:1960   */\n      swap2\n      swap1\n      pop\n      jump\t// out\n        /* \"#utility.yul\":1966:2112   */\n    tag_56:\n        /* \"#utility.yul\":2063:2069   */\n      dup3\n        /* \"#utility.yul\":2058:2061   */\n      dup2\n        /* \"#utility.yul\":2053:2056   */\n      dup4\n        /* \"#utility.yul\":2040:2070   */\n      calldatacopy\n        /* \"#utility.yul\":2104:2105   */\n      0x00\n        /* \"#utility.yul\":2095:2101   */\n      dup4\n        /* \"#utility.yul\":2090:2093   */\n      dup4\n        /* \"#utility.yul\":2086:2102   */\n      add\n        /* \"#utility.yul\":2079:2106   */\n      mstore\n        /* \"#utility.yul\":1966:2112   */\n      pop\n      pop\n      pop\n      jump\t// out\n        /* \"#utility.yul\":2118:2543   */\n    tag_57:\n        /* \"#utility.yul\":2196:2201   */\n      0x00\n        /* \"#utility.yul\":2221:2287   */\n      tag_110\n        /* \"#utility.yul\":2237:2286   */\n      tag_111\n        /* \"#utility.yul\":2279:2285   */\n      dup5\n        /* \"#utility.yul\":2237:2286   */\n      tag_55\n      jump\t// in\n    tag_111:\n        /* \"#utility.yul\":2221:2287   */\n      tag_54\n      jump\t// in\n    tag_110:\n        /* \"#utility.yul\":2212:2287   */\n      swap1\n      pop\n        /* \"#utility.yul\":2310:2316   */\n      dup3\n        /* \"#utility.yul\":2303:2308   */\n      dup2\n        /* \"#utility.yul\":2296:2317   */\n      mstore\n        /* \"#utility.yul\":2348:2352   */\n      0x20\n        /* \"#utility.yul\":2341:2346   */\n      dup2\n        /* \"#utility.yul\":2337:2353   */\n      add\n        /* \"#utility.yul\":2386:2389   */\n      dup5\n        /* \"#utility.yul\":2377:2383   */\n      dup5\n        /* \"#utility.yul\":2372:2375   */\n      dup5\n        /* \"#utility.yul\":2368:2384   */\n      add\n        /* \"#utility.yul\":2365:2390   */\n      gt\n        /* \"#utility.yul\":2362:2474   */\n      iszero\n      tag_112\n      jumpi\n        /* \"#utility.yul\":2393:2472   */\n      tag_113\n      tag_50\n      jump\t// in\n    tag_113:\n        /* \"#utility.yul\":2362:2474   */\n    tag_112:\n        /* \"#utility.yul\":2483:2537   */\n      tag_114\n        /* \"#utility.yul\":2530:2536   */\n      dup5\n        /* \"#utility.yul\":2525:2528   */\n      dup3\n        /* \"#utility.yul\":2520:2523   */\n      dup6\n        /* \"#utility.yul\":2483:2537   */\n      tag_56\n      jump\t// in\n    tag_114:\n        /* \"#utility.yul\":2202:2543   */\n      pop\n        /* \"#utility.yul\":2118:2543   */\n      swap4\n      swap3\n      pop\n      pop\n      pop\n      jump\t// out\n        /* \"#utility.yul\":2563:2903   */\n    tag_58:\n        /* \"#utility.yul\":2619:2624   */\n      0x00\n        /* \"#utility.yul\":2668:2671   */\n      dup3\n        /* \"#utility.yul\":2661:2665   */\n      0x1f\n        /* \"#utility.yul\":2653:2659   */\n      dup4\n        /* \"#utility.yul\":2649:2666   */\n      add\n        /* \"#utility.yul\":2645:2672   */\n      slt\n        /* \"#utility.yul\":2635:2757   */\n      tag_116\n      jumpi\n        /* \"#utility.yul\":2676:2755   */\n      tag_117\n      tag_49\n      jump\t// in\n    tag_117:\n        /* \"#utility.yul\":2635:2757   */\n    tag_116:\n        /* \"#utility.yul\":2793:2799   */\n      dup2\n        /* \"#utility.yul\":2780:2800   */\n      calldataload\n        /* \"#utility.yul\":2818:2897   */\n      tag_118\n        /* \"#utility.yul\":2893:2896   */\n      dup5\n        /* \"#utility.yul\":2885:2891   */\n      dup3\n        /* \"#utility.yul\":2878:2882   */\n      0x20\n        /* \"#utility.yul\":2870:2876   */\n      dup7\n        /* \"#utility.yul\":2866:2883   */\n      add\n        /* \"#utility.yul\":2818:2897   */\n      tag_57\n      jump\t// in\n    tag_118:\n        /* \"#utility.yul\":2809:2897   */\n      swap2\n      pop\n        /* \"#utility.yul\":2625:2903   */\n      pop\n        /* \"#utility.yul\":2563:2903   */\n      swap3\n      swap2\n      pop\n      pop\n      jump\t// out\n        /* \"#utility.yul\":2909:4686   */\n    tag_7:\n        /* \"#utility.yul\":3053:3059   */\n      0x00\n        /* \"#utility.yul\":3061:3067   */\n      dup1\n        /* \"#utility.yul\":3069:3075   */\n      0x00\n        /* \"#utility.yul\":3077:3083   */\n      dup1\n        /* \"#utility.yul\":3085:3091   */\n      0x00\n        /* \"#utility.yul\":3093:3099   */\n      dup1\n        /* \"#utility.yul\":3142:3145   */\n      0xc0\n        /* \"#utility.yul\":3130:3139   */\n      dup8\n        /* \"#utility.yul\":3121:3128   */\n      dup10\n        /* \"#utility.yul\":3117:3140   */\n      sub\n        /* \"#utility.yul\":3113:3146   */\n      slt\n        /* \"#utility.yul\":3110:3230   */\n      iszero\n      tag_120\n      jumpi\n        /* \"#utility.yul\":3149:3228   */\n      tag_121\n      tag_44\n      jump\t// in\n    tag_121:\n        /* \"#utility.yul\":3110:3230   */\n    tag_120:\n        /* \"#utility.yul\":3269:3270   */\n      0x00\n        /* \"#utility.yul\":3294:3347   */\n      tag_122\n        /* \"#utility.yul\":3339:3346   */\n      dup10\n        /* \"#utility.yul\":3330:3336   */\n      dup3\n        /* \"#utility.yul\":3319:3328   */\n      dup11\n        /* \"#utility.yul\":3315:3337   */\n      add\n        /* \"#utility.yul\":3294:3347   */\n      tag_48\n      jump\t// in\n    tag_122:\n        /* \"#utility.yul\":3284:3347   */\n      swap7\n      pop\n        /* \"#utility.yul\":3240:3357   */\n      pop\n        /* \"#utility.yul\":3424:3426   */\n      0x20\n        /* \"#utility.yul\":3413:3422   */\n      dup8\n        /* \"#utility.yul\":3409:3427   */\n      add\n        /* \"#utility.yul\":3396:3428   */\n      calldataload\n        /* \"#utility.yul\":3455:3473   */\n      0xffffffffffffffff\n        /* \"#utility.yul\":3447:3453   */\n      dup2\n        /* \"#utility.yul\":3444:3474   */\n      gt\n        /* \"#utility.yul\":3441:3558   */\n      iszero\n      tag_123\n      jumpi\n        /* \"#utility.yul\":3477:3556   */\n      tag_124\n      tag_45\n      jump\t// in\n    tag_124:\n        /* \"#utility.yul\":3441:3558   */\n    tag_123:\n        /* \"#utility.yul\":3582:3645   */\n      tag_125\n        /* \"#utility.yul\":3637:3644   */\n      dup10\n        /* \"#utility.yul\":3628:3634   */\n      dup3\n        /* \"#utility.yul\":3617:3626   */\n      dup11\n        /* \"#utility.yul\":3613:3635   */\n      add\n        /* \"#utility.yul\":3582:3645   */\n      tag_58\n      jump\t// in\n    tag_125:\n        /* \"#utility.yul\":3572:3645   */\n      swap6\n      pop\n        /* \"#utility.yul\":3367:3655   */\n      pop\n        /* \"#utility.yul\":3722:3724   */\n      0x40\n        /* \"#utility.yul\":3711:3720   */\n      dup8\n        /* \"#utility.yul\":3707:3725   */\n      add\n        /* \"#utility.yul\":3694:3726   */\n      calldataload\n        /* \"#utility.yul\":3753:3771   */\n      0xffffffffffffffff\n        /* \"#utility.yul\":3745:3751   */\n      dup2\n        /* \"#utility.yul\":3742:3772   */\n      gt\n        /* \"#utility.yul\":3739:3856   */\n      iszero\n      tag_126\n      jumpi\n        /* \"#utility.yul\":3775:3854   */\n      tag_127\n      tag_45\n      jump\t// in\n    tag_127:\n        /* \"#utility.yul\":3739:3856   */\n    tag_126:\n        /* \"#utility.yul\":3880:3943   */\n      tag_128\n        /* \"#utility.yul\":3935:3942   */\n      dup10\n        /* \"#utility.yul\":3926:3932   */\n      dup3\n        /* \"#utility.yul\":3915:3924   */\n      dup11\n        /* \"#utility.yul\":3911:3933   */\n      add\n        /* \"#utility.yul\":3880:3943   */\n      tag_58\n      jump\t// in\n    tag_128:\n        /* \"#utility.yul\":3870:3943   */\n      swap5\n      pop\n        /* \"#utility.yul\":3665:3953   */\n      pop\n        /* \"#utility.yul\":4020:4022   */\n      0x60\n        /* \"#utility.yul\":4009:4018   */\n      dup8\n        /* \"#utility.yul\":4005:4023   */\n      add\n        /* \"#utility.yul\":3992:4024   */\n      calldataload\n        /* \"#utility.yul\":4051:4069   */\n      0xffffffffffffffff\n        /* \"#utility.yul\":4043:4049   */\n      dup2\n        /* \"#utility.yul\":4040:4070   */\n      gt\n        /* \"#utility.yul\":4037:4154   */\n      iszero\n      tag_129\n      jumpi\n        /* \"#utility.yul\":4073:4152   */\n      tag_130\n      tag_45\n      jump\t// in\n    tag_130:\n        /* \"#utility.yul\":4037:4154   */\n    tag_129:\n        /* \"#utility.yul\":4178:4241   */\n      tag_131\n        /* \"#utility.yul\":4233:4240   */\n      dup10\n        /* \"#utility.yul\":4224:4230   */\n      dup3\n        /* \"#utility.yul\":4213:4222   */\n      dup11\n        /* \"#utility.yul\":4209:4231   */\n      add\n        /* \"#utility.yul\":4178:4241   */\n      tag_58\n      jump\t// in\n    tag_131:\n        /* \"#utility.yul\":4168:4241   */\n      swap4\n      pop\n        /* \"#utility.yul\":3963:4251   */\n      pop\n        /* \"#utility.yul\":4318:4321   */\n      0x80\n        /* \"#utility.yul\":4307:4316   */\n      dup8\n        /* \"#utility.yul\":4303:4322   */\n      add\n        /* \"#utility.yul\":4290:4323   */\n      calldataload\n        /* \"#utility.yul\":4350:4368   */\n      0xffffffffffffffff\n        /* \"#utility.yul\":4342:4348   */\n      dup2\n        /* \"#utility.yul\":4339:4369   */\n      gt\n        /* \"#utility.yul\":4336:4453   */\n      iszero\n      tag_132\n      jumpi\n        /* \"#utility.yul\":4372:4451   */\n      tag_133\n      tag_45\n      jump\t// in\n    tag_133:\n        /* \"#utility.yul\":4336:4453   */\n    tag_132:\n        /* \"#utility.yul\":4477:4540   */\n      tag_134\n        /* \"#utility.yul\":4532:4539   */\n      dup10\n        /* \"#utility.yul\":4523:4529   */\n      dup3\n        /* \"#utility.yul\":4512:4521   */\n      dup11\n        /* \"#utility.yul\":4508:4530   */\n      add\n        /* \"#utility.yul\":4477:4540   */\n      tag_58\n      jump\t// in\n    tag_134:\n        /* \"#utility.yul\":4467:4540   */\n      swap3\n      pop\n        /* \"#utility.yul\":4261:4550   */\n      pop\n        /* \"#utility.yul\":4589:4592   */\n      0xa0\n        /* \"#utility.yul\":4616:4669   */\n      tag_135\n        /* \"#utility.yul\":4661:4668   */\n      dup10\n        /* \"#utility.yul\":4652:4658   */\n      dup3\n        /* \"#utility.yul\":4641:4650   */\n      dup11\n        /* \"#utility.yul\":4637:4659   */\n      add\n        /* \"#utility.yul\":4616:4669   */\n      tag_48\n      jump\t// in\n    tag_135:\n        /* \"#utility.yul\":4606:4669   */\n      swap2\n      pop\n        /* \"#utility.yul\":4560:4679   */\n      pop\n        /* \"#utility.yul\":2909:4686   */\n      swap3\n      swap6\n      pop\n      swap3\n      swap6\n      pop\n      swap3\n      swap6\n      jump\t// out\n        /* \"#utility.yul\":4692:5021   */\n    tag_11:\n        /* \"#utility.yul\":4751:4757   */\n      0x00\n        /* \"#utility.yul\":4800:4802   */\n      0x20\n        /* \"#utility.yul\":4788:4797   */\n      dup3\n        /* \"#utility.yul\":4779:4786   */\n      dup5\n        /* \"#utility.yul\":4775:4798   */\n      sub\n        /* \"#utility.yul\":4771:4803   */\n      slt\n        /* \"#utility.yul\":4768:4887   */\n      iszero\n      tag_137\n      jumpi\n        /* \"#utility.yul\":4806:4885   */\n      tag_138\n      tag_44\n      jump\t// in\n    tag_138:\n        /* \"#utility.yul\":4768:4887   */\n    tag_137:\n        /* \"#utility.yul\":4926:4927   */\n      0x00\n        /* \"#utility.yul\":4951:5004   */\n      tag_139\n        /* \"#utility.yul\":4996:5003   */\n      dup5\n        /* \"#utility.yul\":4987:4993   */\n      dup3\n        /* \"#utility.yul\":4976:4985   */\n      dup6\n        /* \"#utility.yul\":4972:4994   */\n      add\n        /* \"#utility.yul\":4951:5004   */\n      tag_48\n      jump\t// in\n    tag_139:\n        /* \"#utility.yul\":4941:5004   */\n      swap2\n      pop\n        /* \"#utility.yul\":4897:5014   */\n      pop\n        /* \"#utility.yul\":4692:5021   */\n      swap3\n      swap2\n      pop\n      pop\n      jump\t// out\n        /* \"#utility.yul\":5027:5153   */\n    tag_59:\n        /* \"#utility.yul\":5064:5071   */\n      0x00\n        /* \"#utility.yul\":5104:5146   */\n      0xffffffffffffffffffffffffffffffffffffffff\n        /* \"#utility.yul\":5097:5102   */\n      dup3\n        /* \"#utility.yul\":5093:5147   */\n      and\n        /* \"#utility.yul\":5082:5147   */\n      swap1\n      pop\n        /* \"#utility.yul\":5027:5153   */\n      swap2\n      swap1\n      pop\n      jump\t// out\n        /* \"#utility.yul\":5159:5263   */\n    tag_60:\n        /* \"#utility.yul\":5204:5211   */\n      0x00\n        /* \"#utility.yul\":5233:5257   */\n      tag_142\n        /* \"#utility.yul\":5251:5256   */\n      dup3\n        /* \"#utility.yul\":5233:5257   */\n      tag_59\n      jump\t// in\n    tag_142:\n        /* \"#utility.yul\":5222:5257   */\n      swap1\n      pop\n        /* \"#utility.yul\":5159:5263   */\n      swap2\n      swap1\n      pop\n      jump\t// out\n        /* \"#utility.yul\":5269:5411   */\n    tag_61:\n        /* \"#utility.yul\":5372:5404   */\n      tag_144\n        /* \"#utility.yul\":5398:5403   */\n      dup2\n        /* \"#utility.yul\":5372:5404   */\n      tag_60\n      jump\t// in\n    tag_144:\n        /* \"#utility.yul\":5367:5370   */\n      dup3\n        /* \"#utility.yul\":5360:5405   */\n      mstore\n        /* \"#utility.yul\":5269:5411   */\n      pop\n      pop\n      jump\t// out\n        /* \"#utility.yul\":5417:5516   */\n    tag_62:\n        /* \"#utility.yul\":5469:5475   */\n      0x00\n        /* \"#utility.yul\":5503:5508   */\n      dup2\n        /* \"#utility.yul\":5497:5509   */\n      mload\n        /* \"#utility.yul\":5487:5509   */\n      swap1\n      pop\n        /* \"#utility.yul\":5417:5516   */\n      swap2\n      swap1\n      pop\n      jump\t// out\n        /* \"#utility.yul\":5522:5691   */\n    tag_63:\n        /* \"#utility.yul\":5606:5617   */\n      0x00\n        /* \"#utility.yul\":5640:5646   */\n      dup3\n        /* \"#utility.yul\":5635:5638   */\n      dup3\n        /* \"#utility.yul\":5628:5647   */\n      mstore\n        /* \"#utility.yul\":5680:5684   */\n      0x20\n        /* \"#utility.yul\":5675:5678   */\n      dup3\n        /* \"#utility.yul\":5671:5685   */\n      add\n        /* \"#utility.yul\":5656:5685   */\n      swap1\n      pop\n        /* \"#utility.yul\":5522:5691   */\n      swap3\n      swap2\n      pop\n      pop\n      jump\t// out\n        /* \"#utility.yul\":5697:5943   */\n    tag_64:\n        /* \"#utility.yul\":5778:5779   */\n      0x00\n        /* \"#utility.yul\":5788:5901   */\n    tag_148:\n        /* \"#utility.yul\":5802:5808   */\n      dup4\n        /* \"#utility.yul\":5799:5800   */\n      dup2\n        /* \"#utility.yul\":5796:5809   */\n      lt\n        /* \"#utility.yul\":5788:5901   */\n      iszero\n      tag_150\n      jumpi\n        /* \"#utility.yul\":5887:5888   */\n      dup1\n        /* \"#utility.yul\":5882:5885   */\n      dup3\n        /* \"#utility.yul\":5878:5889   */\n      add\n        /* \"#utility.yul\":5872:5890   */\n      mload\n        /* \"#utility.yul\":5868:5869   */\n      dup2\n        /* \"#utility.yul\":5863:5866   */\n      dup5\n        /* \"#utility.yul\":5859:5870   */\n      add\n        /* \"#utility.yul\":5852:5891   */\n      mstore\n        /* \"#utility.yul\":5824:5826   */\n      0x20\n        /* \"#utility.yul\":5821:5822   */\n      dup2\n        /* \"#utility.yul\":5817:5827   */\n      add\n        /* \"#utility.yul\":5812:5827   */\n      swap1\n      pop\n        /* \"#utility.yul\":5788:5901   */\n      jump(tag_148)\n    tag_150:\n        /* \"#utility.yul\":5935:5936   */\n      0x00\n        /* \"#utility.yul\":5926:5932   */\n      dup5\n        /* \"#utility.yul\":5921:5924   */\n      dup5\n        /* \"#utility.yul\":5917:5933   */\n      add\n        /* \"#utility.yul\":5910:5937   */\n      mstore\n        /* \"#utility.yul\":5759:5943   */\n      pop\n        /* \"#utility.yul\":5697:5943   */\n      pop\n      pop\n      pop\n      jump\t// out\n        /* \"#utility.yul\":5949:6326   */\n    tag_65:\n        /* \"#utility.yul\":6037:6040   */\n      0x00\n        /* \"#utility.yul\":6065:6104   */\n      tag_152\n        /* \"#utility.yul\":6098:6103   */\n      dup3\n        /* \"#utility.yul\":6065:6104   */\n      tag_62\n      jump\t// in\n    tag_152:\n        /* \"#utility.yul\":6120:6191   */\n      tag_153\n        /* \"#utility.yul\":6184:6190   */\n      dup2\n        /* \"#utility.yul\":6179:6182   */\n      dup6\n        /* \"#utility.yul\":6120:6191   */\n      tag_63\n      jump\t// in\n    tag_153:\n        /* \"#utility.yul\":6113:6191   */\n      swap4\n      pop\n        /* \"#utility.yul\":6200:6265   */\n      tag_154\n        /* \"#utility.yul\":6258:6264   */\n      dup2\n        /* \"#utility.yul\":6253:6256   */\n      dup6\n        /* \"#utility.yul\":6246:6250   */\n      0x20\n        /* \"#utility.yul\":6239:6244   */\n      dup7\n        /* \"#utility.yul\":6235:6251   */\n      add\n        /* \"#utility.yul\":6200:6265   */\n      tag_64\n      jump\t// in\n    tag_154:\n        /* \"#utility.yul\":6290:6319   */\n      tag_155\n        /* \"#utility.yul\":6312:6318   */\n      dup2\n        /* \"#utility.yul\":6290:6319   */\n      tag_51\n      jump\t// in\n    tag_155:\n        /* \"#utility.yul\":6285:6288   */\n      dup5\n        /* \"#utility.yul\":6281:6320   */\n      add\n        /* \"#utility.yul\":6274:6320   */\n      swap2\n      pop\n        /* \"#utility.yul\":6041:6326   */\n      pop\n        /* \"#utility.yul\":5949:6326   */\n      swap3\n      swap2\n      pop\n      pop\n      jump\t// out\n        /* \"#utility.yul\":6332:6450   */\n    tag_66:\n        /* \"#utility.yul\":6419:6443   */\n      tag_157\n        /* \"#utility.yul\":6437:6442   */\n      dup2\n        /* \"#utility.yul\":6419:6443   */\n      tag_46\n      jump\t// in\n    tag_157:\n        /* \"#utility.yul\":6414:6417   */\n      dup3\n        /* \"#utility.yul\":6407:6444   */\n      mstore\n        /* \"#utility.yul\":6332:6450   */\n      pop\n      pop\n      jump\t// out\n        /* \"#utility.yul\":6456:7738   */\n    tag_14:\n        /* \"#utility.yul\":6813:6817   */\n      0x00\n        /* \"#utility.yul\":6851:6854   */\n      0xe0\n        /* \"#utility.yul\":6840:6849   */\n      dup3\n        /* \"#utility.yul\":6836:6855   */\n      add\n        /* \"#utility.yul\":6828:6855   */\n      swap1\n      pop\n        /* \"#utility.yul\":6865:6952   */\n      tag_159\n        /* \"#utility.yul\":6949:6950   */\n      0x00\n        /* \"#utility.yul\":6938:6947   */\n      dup4\n        /* \"#utility.yul\":6934:6951   */\n      add\n        /* \"#utility.yul\":6925:6931   */\n      dup11\n        /* \"#utility.yul\":6865:6952   */\n      tag_61\n      jump\t// in\n    tag_159:\n        /* \"#utility.yul\":6999:7008   */\n      dup2\n        /* \"#utility.yul\":6993:6997   */\n      dup2\n        /* \"#utility.yul\":6989:7009   */\n      sub\n        /* \"#utility.yul\":6984:6986   */\n      0x20\n        /* \"#utility.yul\":6973:6982   */\n      dup4\n        /* \"#utility.yul\":6969:6987   */\n      add\n        /* \"#utility.yul\":6962:7010   */\n      mstore\n        /* \"#utility.yul\":7027:7105   */\n      tag_160\n        /* \"#utility.yul\":7100:7104   */\n      dup2\n        /* \"#utility.yul\":7091:7097   */\n      dup10\n        /* \"#utility.yul\":7027:7105   */\n      tag_65\n      jump\t// in\n    tag_160:\n        /* \"#utility.yul\":7019:7105   */\n      swap1\n      pop\n        /* \"#utility.yul\":7152:7161   */\n      dup2\n        /* \"#utility.yul\":7146:7150   */\n      dup2\n        /* \"#utility.yul\":7142:7162   */\n      sub\n        /* \"#utility.yul\":7137:7139   */\n      0x40\n        /* \"#utility.yul\":7126:7135   */\n      dup4\n        /* \"#utility.yul\":7122:7140   */\n      add\n        /* \"#utility.yul\":7115:7163   */\n      mstore\n        /* \"#utility.yul\":7180:7258   */\n      tag_161\n        /* \"#utility.yul\":7253:7257   */\n      dup2\n        /* \"#utility.yul\":7244:7250   */\n      dup9\n        /* \"#utility.yul\":7180:7258   */\n      tag_65\n      jump\t// in\n    tag_161:\n        /* \"#utility.yul\":7172:7258   */\n      swap1\n      pop\n        /* \"#utility.yul\":7305:7314   */\n      dup2\n        /* \"#utility.yul\":7299:7303   */\n      dup2\n        /* \"#utility.yul\":7295:7315   */\n      sub\n        /* \"#utility.yul\":7290:7292   */\n      0x60\n        /* \"#utility.yul\":7279:7288   */\n      dup4\n        /* \"#utility.yul\":7275:7293   */\n      add\n        /* \"#utility.yul\":7268:7316   */\n      mstore\n        /* \"#utility.yul\":7333:7411   */\n      tag_162\n        /* \"#utility.yul\":7406:7410   */\n      dup2\n        /* \"#utility.yul\":7397:7403   */\n      dup8\n        /* \"#utility.yul\":7333:7411   */\n      tag_65\n      jump\t// in\n    tag_162:\n        /* \"#utility.yul\":7325:7411   */\n      swap1\n      pop\n        /* \"#utility.yul\":7459:7468   */\n      dup2\n        /* \"#utility.yul\":7453:7457   */\n      dup2\n        /* \"#utility.yul\":7449:7469   */\n      sub\n        /* \"#utility.yul\":7443:7446   */\n      0x80\n        /* \"#utility.yul\":7432:7441   */\n      dup4\n        /* \"#utility.yul\":7428:7447   */\n      add\n        /* \"#utility.yul\":7421:7470   */\n      mstore\n        /* \"#utility.yul\":7487:7565   */\n      tag_163\n        /* \"#utility.yul\":7560:7564   */\n      dup2\n        /* \"#utility.yul\":7551:7557   */\n      dup7\n        /* \"#utility.yul\":7487:7565   */\n      tag_65\n      jump\t// in\n    tag_163:\n        /* \"#utility.yul\":7479:7565   */\n      swap1\n      pop\n        /* \"#utility.yul\":7575:7648   */\n      tag_164\n        /* \"#utility.yul\":7643:7646   */\n      0xa0\n        /* \"#utility.yul\":7632:7641   */\n      dup4\n        /* \"#utility.yul\":7628:7647   */\n      add\n        /* \"#utility.yul\":7619:7625   */\n      dup6\n        /* \"#utility.yul\":7575:7648   */\n      tag_66\n      jump\t// in\n    tag_164:\n        /* \"#utility.yul\":7658:7731   */\n      tag_165\n        /* \"#utility.yul\":7726:7729   */\n      0xc0\n        /* \"#utility.yul\":7715:7724   */\n      dup4\n        /* \"#utility.yul\":7711:7730   */\n      add\n        /* \"#utility.yul\":7702:7708   */\n      dup5\n        /* \"#utility.yul\":7658:7731   */\n      tag_66\n      jump\t// in\n    tag_165:\n        /* \"#utility.yul\":6456:7738   */\n      swap9\n      swap8\n      pop\n      pop\n      pop\n      pop\n      pop\n      pop\n      pop\n      pop\n      jump\t// out\n        /* \"#utility.yul\":7744:7924   */\n    tag_67:\n        /* \"#utility.yul\":7792:7869   */\n      0x4e487b7100000000000000000000000000000000000000000000000000000000\n        /* \"#utility.yul\":7789:7790   */\n      0x00\n        /* \"#utility.yul\":7782:7870   */\n      mstore\n        /* \"#utility.yul\":7889:7893   */\n      0x22\n        /* \"#utility.yul\":7886:7887   */\n      0x04\n        /* \"#utility.yul\":7879:7894   */\n      mstore\n        /* \"#utility.yul\":7913:7917   */\n      0x24\n        /* \"#utility.yul\":7910:7911   */\n      0x00\n        /* \"#utility.yul\":7903:7918   */\n      revert\n        /* \"#utility.yul\":7930:8250   */\n    tag_23:\n        /* \"#utility.yul\":7974:7980   */\n      0x00\n        /* \"#utility.yul\":8011:8012   */\n      0x02\n        /* \"#utility.yul\":8005:8009   */\n      dup3\n        /* \"#utility.yul\":8001:8013   */\n      div\n        /* \"#utility.yul\":7991:8013   */\n      swap1\n      pop\n        /* \"#utility.yul\":8058:8059   */\n      0x01\n        /* \"#utility.yul\":8052:8056   */\n      dup3\n        /* \"#utility.yul\":8048:8060   */\n      and\n        /* \"#utility.yul\":8079:8097   */\n      dup1\n        /* \"#utility.yul\":8069:8150   */\n      tag_168\n      jumpi\n        /* \"#utility.yul\":8135:8139   */\n      0x7f\n        /* \"#utility.yul\":8127:8133   */\n      dup3\n        /* \"#utility.yul\":8123:8140   */\n      and\n        /* \"#utility.yul\":8113:8140   */\n      swap2\n      pop\n        /* \"#utility.yul\":8069:8150   */\n    tag_168:\n        /* \"#utility.yul\":8197:8199   */\n      0x20\n        /* \"#utility.yul\":8189:8195   */\n      dup3\n        /* \"#utility.yul\":8186:8200   */\n      lt\n        /* \"#utility.yul\":8166:8184   */\n      dup2\n        /* \"#utility.yul\":8163:8201   */\n      sub\n        /* \"#utility.yul\":8160:8244   */\n      tag_169\n      jumpi\n        /* \"#utility.yul\":8216:8234   */\n      tag_170\n      tag_67\n      jump\t// in\n    tag_170:\n        /* \"#utility.yul\":8160:8244   */\n    tag_169:\n        /* \"#utility.yul\":7981:8250   */\n      pop\n        /* \"#utility.yul\":7930:8250   */\n      swap2\n      swap1\n      pop\n      jump\t// out\n        /* \"#utility.yul\":8256:8397   */\n    tag_68:\n        /* \"#utility.yul\":8305:8309   */\n      0x00\n        /* \"#utility.yul\":8328:8331   */\n      dup2\n        /* \"#utility.yul\":8320:8331   */\n      swap1\n      pop\n        /* \"#utility.yul\":8351:8354   */\n      dup2\n        /* \"#utility.yul\":8348:8349   */\n      0x00\n        /* \"#utility.yul\":8341:8355   */\n      mstore\n        /* \"#utility.yul\":8385:8389   */\n      0x20\n        /* \"#utility.yul\":8382:8383   */\n      0x00\n        /* \"#utility.yul\":8372:8390   */\n      keccak256\n        /* \"#utility.yul\":8364:8390   */\n      swap1\n      pop\n        /* \"#utility.yul\":8256:8397   */\n      swap2\n      swap1\n      pop\n      jump\t// out\n        /* \"#utility.yul\":8403:8496   */\n    tag_69:\n        /* \"#utility.yul\":8440:8446   */\n      0x00\n        /* \"#utility.yul\":8487:8489   */\n      0x20\n        /* \"#utility.yul\":8482:8484   */\n      0x1f\n        /* \"#utility.yul\":8475:8480   */\n      dup4\n        /* \"#utility.yul\":8471:8485   */\n      add\n        /* \"#utility.yul\":8467:8490   */\n      div\n        /* \"#utility.yul\":8457:8490   */\n      swap1\n      pop\n        /* \"#utility.yul\":8403:8496   */\n      swap2\n      swap1\n      pop\n      jump\t// out\n        /* \"#utility.yul\":8502:8609   */\n    tag_70:\n        /* \"#utility.yul\":8546:8554   */\n      0x00\n        /* \"#utility.yul\":8596:8601   */\n      dup3\n        /* \"#utility.yul\":8590:8594   */\n      dup3\n        /* \"#utility.yul\":8586:8602   */\n      shl\n        /* \"#utility.yul\":8565:8602   */\n      swap1\n      pop\n        /* \"#utility.yul\":8502:8609   */\n      swap3\n      swap2\n      pop\n      pop\n      jump\t// out\n        /* \"#utility.yul\":8615:9008   */\n    tag_71:\n        /* \"#utility.yul\":8684:8690   */\n      0x00\n        /* \"#utility.yul\":8734:8735   */\n      0x08\n        /* \"#utility.yul\":8722:8732   */\n      dup4\n        /* \"#utility.yul\":8718:8736   */\n      mul\n        /* \"#utility.yul\":8757:8854   */\n      tag_175\n        /* \"#utility.yul\":8787:8853   */\n      0xffffffffffffffffffffffffffffffffffffffffffffffffffffffffffffffff\n        /* \"#utility.yul\":8776:8785   */\n      dup3\n        /* \"#utility.yul\":8757:8854   */\n      tag_70\n      jump\t// in\n    tag_175:\n        /* \"#utility.yul\":8875:8914   */\n      tag_176\n        /* \"#utility.yul\":8905:8913   */\n      dup7\n        /* \"#utility.yul\":8894:8903   */\n      dup4\n        /* \"#utility.yul\":8875:8914   */\n      tag_70\n      jump\t// in\n    tag_176:\n        /* \"#utility.yul\":8863:8914   */\n      swap6\n      pop\n        /* \"#utility.yul\":8947:8951   */\n      dup1\n        /* \"#utility.yul\":8943:8952   */\n      not\n        /* \"#utility.yul\":8936:8941   */\n      dup5\n        /* \"#utility.yul\":8932:8953   */\n      and\n        /* \"#utility.yul\":8923:8953   */\n      swap4\n      pop\n        /* \"#utility.yul\":8996:9000   */\n      dup1\n        /* \"#utility.yul\":8986:8994   */\n      dup7\n        /* \"#utility.yul\":8982:9001   */\n      and\n        /* \"#utility.yul\":8975:8980   */\n      dup5\n        /* \"#utility.yul\":8972:9002   */\n      or\n        /* \"#utility.yul\":8962:9002   */\n      swap3\n      pop\n        /* \"#utility.yul\":8691:9008   */\n      pop\n      pop\n        /* \"#utility.yul\":8615:9008   */\n      swap4\n      swap3\n      pop\n      pop\n      pop\n      jump\t// out\n        /* \"#utility.yul\":9014:9074   */\n    tag_72:\n        /* \"#utility.yul\":9042:9045   */\n      0x00\n        /* \"#utility.yul\":9063:9068   */\n      dup2\n        /* \"#utility.yul\":9056:9068   */\n      swap1\n      pop\n        /* \"#utility.yul\":9014:9074   */\n      swap2\n      swap1\n      pop\n      jump\t// out\n        /* \"#utility.yul\":9080:9222   */\n    tag_73:\n        /* \"#utility.yul\":9130:9139   */\n      0x00\n        /* \"#utility.yul\":9163:9216   */\n      tag_179\n        /* \"#utility.yul\":9181:9215   */\n      tag_180\n        /* \"#utility.yul\":9190:9214   */\n      tag_181\n        /* \"#utility.yul\":9208:9213   */\n      dup5\n        /* \"#utility.yul\":9190:9214   */\n      tag_46\n      jump\t// in\n    tag_181:\n        /* \"#utility.yul\":9181:9215   */\n      tag_72\n      jump\t// in\n    tag_180:\n        /* \"#utility.yul\":9163:9216   */\n      tag_46\n      jump\t// in\n    tag_179:\n        /* \"#utility.yul\":9150:9216   */\n      swap1\n      pop\n        /* \"#utility.yul\":9080:9222   */\n      swap2\n      swap1\n      pop\n      jump\t// out\n        /* \"#utility.yul\":9228:9303   */\n    tag_74:\n        /* \"#utility.yul\":9271:9274   */\n      0x00\n        /* \"#utility.yul\":9292:9297   */\n      dup2\n        /* \"#utility.yul\":9285:9297   */\n      swap1\n      pop\n        /* \"#utility.yul\":9228:9303   */\n      swap2\n      swap1\n      pop\n      jump\t// out\n        /* \"#utility.yul\":9309:9578   */\n    tag_75:\n        /* \"#utility.yul\":9419:9458   */\n      tag_184\n        /* \"#utility.yul\":9450:9457   */\n      dup4\n        /* \"#utility.yul\":9419:9458   */\n      tag_73\n      jump\t// in\n    tag_184:\n        /* \"#utility.yul\":9480:9571   */\n      tag_185\n        /* \"#utility.yul\":9529:9570   */\n      tag_186\n        /* \"#utility.yul\":9553:9569   */\n      dup3\n        /* \"#utility.yul\":9529:9570   */\n      tag_74\n      jump\t// in\n    tag_186:\n        /* \"#utility.yul\":9521:9527   */\n      dup5\n        /* \"#utility.yul\":9514:9518   */\n      dup5\n        /* \"#utility.yul\":9508:9519   */\n      sload\n        /* \"#utility.yul\":9480:9571   */\n      tag_71\n      jump\t// in\n    tag_185:\n        /* \"#utility.yul\":9474:9478   */\n      dup3\n        /* \"#utility.yul\":9467:9572   */\n      sstore\n        /* \"#utility.yul\":9385:9578   */\n      pop\n        /* \"#utility.yul\":9309:9578   */\n      pop\n      pop\n      pop\n      jump\t// out\n        /* \"#utility.yul\":9584:9657   */\n    tag_76:\n        /* \"#utility.yul\":9629:9632   */\n      0x00\n        /* \"#utility.yul\":9584:9657   */\n      swap1\n      jump\t// out\n        /* \"#utility.yul\":9663:9852   */\n    tag_77:\n        /* \"#utility.yul\":9740:9772   */\n      tag_189\n      tag_76\n      jump\t// in\n    tag_189:\n        /* \"#utility.yul\":9781:9846   */\n      tag_190\n        /* \"#utility.yul\":9839:9845   */\n      dup2\n        /* \"#utility.yul\":9831:9837   */\n      dup5\n        /* \"#utility.yul\":9825:9829   */\n      dup5\n        /* \"#utility.yul\":9781:9846   */\n      tag_75\n      jump\t// in\n    tag_190:\n        /* \"#utility.yul\":9716:9852   */\n      pop\n        /* \"#utility.yul\":9663:9852   */\n      pop\n      pop\n      jump\t// out\n        /* \"#utility.yul\":9858:10044   */\n    tag_78:\n        /* \"#utility.yul\":9918:10038   */\n    tag_192:\n        /* \"#utility.yul\":9935:9938   */\n      dup2\n        /* \"#utility.yul\":9928:9933   */\n      dup2\n        /* \"#utility.yul\":9925:9939   */\n      lt\n        /* \"#utility.yul\":9918:10038   */\n      iszero\n      tag_194\n      jumpi\n        /* \"#utility.yul\":9989:10028   */\n      tag_195\n        /* \"#utility.yul\":10026:10027   */\n      0x00\n        /* \"#utility.yul\":10019:10024   */\n      dup3\n        /* \"#utility.yul\":9989:10028   */\n      tag_77\n      jump\t// in\n    tag_195:\n        /* \"#utility.yul\":9962:9963   */\n      0x01\n        /* \"#utility.yul\":9955:9960   */\n      dup2\n        /* \"#utility.yul\":9951:9964   */\n      add\n        /* \"#utility.yul\":9942:9964   */\n      swap1\n      pop\n        /* \"#utility.yul\":9918:10038   */\n      jump(tag_192)\n    tag_194:\n        /* \"#utility.yul\":9858:10044   */\n      pop\n      pop\n      jump\t// out\n        /* \"#utility.yul\":10050:10593   */\n    tag_79:\n        /* \"#utility.yul\":10151:10153   */\n      0x1f\n        /* \"#utility.yul\":10146:10149   */\n      dup3\n        /* \"#utility.yul\":10143:10154   */\n      gt\n        /* \"#utility.yul\":10140:10586   */\n      iszero\n      tag_197\n      jumpi\n        /* \"#utility.yul\":10185:10223   */\n      tag_198\n        /* \"#utility.yul\":10217:10222   */\n      dup2\n        /* \"#utility.yul\":10185:10223   */\n      tag_68\n      jump\t// in\n    tag_198:\n        /* \"#utility.yul\":10269:10298   */\n      tag_199\n        /* \"#utility.yul\":10287:10297   */\n      dup5\n        /* \"#utility.yul\":10269:10298   */\n      tag_69\n      jump\t// in\n    tag_199:\n        /* \"#utility.yul\":10259:10267   */\n      dup2\n        /* \"#utility.yul\":10255:10299   */\n      add\n        /* \"#utility.yul\":10452:10454   */\n      0x20\n        /* \"#utility.yul\":10440:10450   */\n      dup6\n        /* \"#utility.yul\":10437:10455   */\n      lt\n        /* \"#utility.yul\":10434:10483   */\n      iszero\n      tag_200\n      jumpi\n        /* \"#utility.yul\":10473:10481   */\n      dup2\n        /* \"#utility.yul\":10458:10481   */\n      swap1\n      pop\n        /* \"#utility.yul\":10434:10483   */\n    tag_200:\n        /* \"#utility.yul\":10496:10576   */\n      tag_201\n        /* \"#utility.yul\":10552:10574   */\n      tag_202\n        /* \"#utility.yul\":10570:10573   */\n      dup6\n        /* \"#utility.yul\":10552:10574   */\n      tag_69\n      jump\t// in\n    tag_202:\n        /* \"#utility.yul\":10542:10550   */\n      dup4\n        /* \"#utility.yul\":10538:10575   */\n      add\n        /* \"#utility.yul\":10525:10536   */\n      dup3\n        /* \"#utility.yul\":10496:10576   */\n      tag_78\n      jump\t// in\n    tag_201:\n        /* \"#utility.yul\":10155:10586   */\n      pop\n      pop\n        /* \"#utility.yul\":10140:10586   */\n    tag_197:\n        /* \"#utility.yul\":10050:10593   */\n      pop\n      pop\n      pop\n      jump\t// out\n        /* \"#utility.yul\":10599:10716   */\n    tag_80:\n        /* \"#utility.yul\":10653:10661   */\n      0x00\n        /* \"#utility.yul\":10703:10708   */\n      dup3\n        /* \"#utility.yul\":10697:10701   */\n      dup3\n        /* \"#utility.yul\":10693:10709   */\n      shr\n        /* \"#utility.yul\":10672:10709   */\n      swap1\n      pop\n        /* \"#utility.yul\":10599:10716   */\n      swap3\n      swap2\n      pop\n      pop\n      jump\t// out\n        /* \"#utility.yul\":10722:10891   */\n    tag_81:\n        /* \"#utility.yul\":10766:10772   */\n      0x00\n        /* \"#utility.yul\":10799:10850   */\n      tag_205\n        /* \"#utility.yul\":10847:10848   */\n      0x00\n        /* \"#utility.yul\":10843:10849   */\n      not\n        /* \"#utility.yul\":10835:10840   */\n      dup5\n        /* \"#utility.yul\":10832:10833   */\n      0x08\n        /* \"#utility.yul\":10828:10841   */\n      mul\n        /* \"#utility.yul\":10799:10850   */\n      tag_80\n      jump\t// in\n    tag_205:\n        /* \"#utility.yul\":10795:10851   */\n      not\n        /* \"#utility.yul\":10880:10884   */\n      dup1\n        /* \"#utility.yul\":10874:10878   */\n      dup4\n        /* \"#utility.yul\":10870:10885   */\n      and\n        /* \"#utility.yul\":10860:10885   */\n      swap2\n      pop\n        /* \"#utility.yul\":10773:10891   */\n      pop\n        /* \"#utility.yul\":10722:10891   */\n      swap3\n      swap2\n      pop\n      pop\n      jump\t// out\n        /* \"#utility.yul\":10896:11191   */\n    tag_82:\n        /* \"#utility.yul\":10972:10976   */\n      0x00\n        /* \"#utility.yul\":11118:11147   */\n      tag_207\n        /* \"#utility.yul\":11143:11146   */\n      dup4\n        /* \"#utility.yul\":11137:11141   */\n      dup4\n        /* \"#utility.yul\":11118:11147   */\n      tag_81\n      jump\t// in\n    tag_207:\n        /* \"#utility.yul\":11110:11147   */\n      swap2\n      pop\n        /* \"#utility.yul\":11180:11183   */\n      dup3\n        /* \"#utility.yul\":11177:11178   */\n      0x02\n        /* \"#utility.yul\":11173:11184   */\n      mul\n        /* \"#utility.yul\":11167:11171   */\n      dup3\n        /* \"#utility.yul\":11164:11185   */\n      or\n        /* \"#utility.yul\":11156:11185   */\n      swap1\n      pop\n        /* \"#utility.yul\":10896:11191   */\n      swap3\n      swap2\n      pop\n      pop\n      jump\t// out\n        /* \"#utility.yul\":11196:12591   */\n    tag_17:\n        /* \"#utility.yul\":11313:11350   */\n      tag_209\n        /* \"#utility.yul\":11346:11349   */\n      dup3\n        /* \"#utility.yul\":11313:11350   */\n      tag_62\n      jump\t// in\n    tag_209:\n        /* \"#utility.yul\":11415:11433   */\n      0xffffffffffffffff\n        /* \"#utility.yul\":11407:11413   */\n      dup2\n        /* \"#utility.yul\":11404:11434   */\n      gt\n        /* \"#utility.yul\":11401:11457   */\n      iszero\n      tag_210\n      jumpi\n        /* \"#utility.yul\":11437:11455   */\n      tag_211\n      tag_52\n      jump\t// in\n    tag_211:\n        /* \"#utility.yul\":11401:11457   */\n    tag_210:\n        /* \"#utility.yul\":11481:11519   */\n      tag_212\n        /* \"#utility.yul\":11513:11517   */\n      dup3\n        /* \"#utility.yul\":11507:11518   */\n      sload\n        /* \"#utility.yul\":11481:11519   */\n      tag_23\n      jump\t// in\n    tag_212:\n        /* \"#utility.yul\":11566:11633   */\n      tag_213\n        /* \"#utility.yul\":11626:11632   */\n      dup3\n        /* \"#utility.yul\":11618:11624   */\n      dup3\n        /* \"#utility.yul\":11612:11616   */\n      dup6\n        /* \"#utility.yul\":11566:11633   */\n      tag_79\n      jump\t// in\n    tag_213:\n        /* \"#utility.yul\":11660:11661   */\n      0x00\n        /* \"#utility.yul\":11684:11688   */\n      0x20\n        /* \"#utility.yul\":11671:11688   */\n      swap1\n      pop\n        /* \"#utility.yul\":11716:11718   */\n      0x1f\n        /* \"#utility.yul\":11708:11714   */\n      dup4\n        /* \"#utility.yul\":11705:11719   */\n      gt\n        /* \"#utility.yul\":11733:11734   */\n      0x01\n        /* \"#utility.yul\":11728:12346   */\n      dup2\n      eq\n      tag_215\n      jumpi\n        /* \"#utility.yul\":12390:12391   */\n      0x00\n        /* \"#utility.yul\":12407:12413   */\n      dup5\n        /* \"#utility.yul\":12404:12481   */\n      iszero\n      tag_216\n      jumpi\n        /* \"#utility.yul\":12456:12465   */\n      dup3\n        /* \"#utility.yul\":12451:12454   */\n      dup8\n        /* \"#utility.yul\":12447:12466   */\n      add\n        /* \"#utility.yul\":12441:12467   */\n      mload\n        /* \"#utility.yul\":12432:12467   */\n      swap1\n      pop\n        /* \"#utility.yul\":12404:12481   */\n    tag_216:\n        /* \"#utility.yul\":12507:12574   */\n      tag_217\n        /* \"#utility.yul\":12567:12573   */\n      dup6\n        /* \"#utility.yul\":12560:12565   */\n      dup3\n        /* \"#utility.yul\":12507:12574   */\n      tag_82\n      jump\t// in\n    tag_217:\n        /* \"#utility.yul\":12501:12505   */\n      dup7\n        /* \"#utility.yul\":12494:12575   */\n      sstore\n        /* \"#utility.yul\":12363:12585   */\n      pop\n        /* \"#utility.yul\":11698:12585   */\n      jump(tag_214)\n        /* \"#utility.yul\":11728:12346   */\n    tag_215:\n        /* \"#utility.yul\":11780:11784   */\n      0x1f\n        /* \"#utility.yul\":11776:11785   */\n      not\n        /* \"#utility.yul\":11768:11774   */\n      dup5\n        /* \"#utility.yul\":11764:11786   */\n      and\n        /* \"#utility.yul\":11814:11851   */\n      tag_218\n        /* \"#utility.yul\":11846:11850   */\n      dup7\n        /* \"#utility.yul\":11814:11851   */\n      tag_68\n      jump\t// in\n    tag_218:\n        /* \"#utility.yul\":11873:11874   */\n      0x00\n        /* \"#utility.yul\":11887:12095   */\n    tag_219:\n        /* \"#utility.yul\":11901:11908   */\n      dup3\n        /* \"#utility.yul\":11898:11899   */\n      dup2\n        /* \"#utility.yul\":11895:11909   */\n      lt\n        /* \"#utility.yul\":11887:12095   */\n      iszero\n      tag_221\n      jumpi\n        /* \"#utility.yul\":11980:11989   */\n      dup5\n        /* \"#utility.yul\":11975:11978   */\n      dup10\n        /* \"#utility.yul\":11971:11990   */\n      add\n        /* \"#utility.yul\":11965:11991   */\n      mload\n        /* \"#utility.yul\":11957:11963   */\n      dup3\n        /* \"#utility.yul\":11950:11992   */\n      sstore\n        /* \"#utility.yul\":12031:12032   */\n      0x01\n        /* \"#utility.yul\":12023:12029   */\n      dup3\n        /* \"#utility.yul\":12019:12033   */\n      add\n        /* \"#utility.yul\":12009:12033   */\n      swap2\n      pop\n        /* \"#utility.yul\":12078:12080   */\n      0x20\n        /* \"#utility.yul\":12067:12076   */\n      dup6\n        /* \"#utility.yul\":12063:12081   */\n      add\n        /* \"#utility.yul\":12050:12081   */\n      swap5\n      pop\n        /* \"#utility.yul\":11924:11928   */\n      0x20\n        /* \"#utility.yul\":11921:11922   */\n      dup2\n        /* \"#utility.yul\":11917:11929   */\n      add\n        /* \"#utility.yul\":11912:11929   */\n      swap1\n      pop\n        /* \"#utility.yul\":11887:12095   */\n      jump(tag_219)\n    tag_221:\n        /* \"#utility.yul\":12123:12129   */\n      dup7\n        /* \"#utility.yul\":12114:12121   */\n      dup4\n        /* \"#utility.yul\":12111:12130   */\n      lt\n        /* \"#utility.yul\":12108:12287   */\n      iszero\n      tag_222\n      jumpi\n        /* \"#utility.yul\":12181:12190   */\n      dup5\n        /* \"#utility.yul\":12176:12179   */\n      dup10\n        /* \"#utility.yul\":12172:12191   */\n      add\n        /* \"#utility.yul\":12166:12192   */\n      mload\n        /* \"#utility.yul\":12224:12272   */\n      tag_223\n        /* \"#utility.yul\":12266:12270   */\n      0x1f\n        /* \"#utility.yul\":12258:12264   */\n      dup10\n        /* \"#utility.yul\":12254:12271   */\n      and\n        /* \"#utility.yul\":12243:12252   */\n      dup3\n        /* \"#utility.yul\":12224:12272   */\n      tag_81\n      jump\t// in\n    tag_223:\n        /* \"#utility.yul\":12216:12222   */\n      dup4\n        /* \"#utility.yul\":12209:12273   */\n      sstore\n        /* \"#utility.yul\":12131:12287   */\n      pop\n        /* \"#utility.yul\":12108:12287   */\n    tag_222:\n        /* \"#utility.yul\":12333:12334   */\n      0x01\n        /* \"#utility.yul\":12329:12330   */\n      0x02\n        /* \"#utility.yul\":12321:12327   */\n      dup9\n        /* \"#utility.yul\":12317:12331   */\n      mul\n        /* \"#utility.yul\":12313:12335   */\n      add\n        /* \"#utility.yul\":12307:12311   */\n      dup9\n        /* \"#utility.yul\":12300:12336   */\n      sstore\n        /* \"#utility.yul\":11735:12346   */\n      pop\n      pop\n      pop\n        /* \"#utility.yul\":11698:12585   */\n    tag_214:\n      pop\n        /* \"#utility.yul\":11288:12591   */\n      pop\n      pop\n      pop\n        /* \"#utility.yul\":11196:12591   */\n      pop\n      pop\n      jump\t// out\n\n    auxdata: 0xa2646970667358221220e8103048a8cc5c9a6dfe696dd3a6bda57331e238e8c1b6db81999ac3e57bc4a264736f6c63430008160033\n}\n",
				"bytecode": {
					"linkReferences": {},
					"object": "608060405234801561000f575f80fd5b50610b848061001d5f395ff3fe608060405234801561000f575f80fd5b5060043610610034575f3560e01c8063cabde1cc14610038578063fffa7e2e14610054575b5f80fd5b610052600480360381019061004d9190610610565b61008a565b005b61006e60048036038101906100699190610709565b6101a0565b60405161008197969594939291906107fc565b60405180910390f35b5f6040518060e001604052803373ffffffffffffffffffffffffffffffffffffffff168152602001878152602001868152602001858152602001848152602001838152602001828152505f808981526020019081526020015f205f820151815f015f6101000a81548173ffffffffffffffffffffffffffffffffffffffff021916908373ffffffffffffffffffffffffffffffffffffffff160217905550602082015181600101908161013d9190610a7f565b5060408201518160020190816101539190610a7f565b5060608201518160030190816101699190610a7f565b50608082015181600401908161017f9190610a7f565b5060a0820151816005015560c0820151816006015590505050505050505050565b5f6060806060805f805f808981526020019081526020015f205f015f9054906101000a900473ffffffffffffffffffffffffffffffffffffffff165f808a81526020019081526020015f206001015f808b81526020019081526020015f206002015f808c81526020019081526020015f206003015f808d81526020019081526020015f206004015f808e81526020019081526020015f20600501545f808f81526020019081526020015f206006015485805461025b906108b2565b80601f0160208091040260200160405190810160405280929190818152602001828054610287906108b2565b80156102d25780601f106102a9576101008083540402835291602001916102d2565b820191905f5260205f20905b8154815290600101906020018083116102b557829003601f168201915b505050505095508480546102e5906108b2565b80601f0160208091040260200160405190810160405280929190818152602001828054610311906108b2565b801561035c5780601f106103335761010080835404028352916020019161035c565b820191905f5260205f20905b81548152906001019060200180831161033f57829003601f168201915b5050505050945083805461036f906108b2565b80601f016020809104026020016040519081016040528092919081815260200182805461039b906108b2565b80156103e65780601f106103bd576101008083540402835291602001916103e6565b820191905f5260205f20905b8154815290600101906020018083116103c957829003601f168201915b505050505093508280546103f9906108b2565b80601f0160208091040260200160405190810160405280929190818152602001828054610425906108b2565b80156104705780601f1061044757610100808354040283529160200191610470565b820191905f5260205f20905b81548152906001019060200180831161045357829003601f168201915b505050505092509650965096509650965096509650919395979092949650565b5f604051905090565b5f80fd5b5f80fd5b5f819050919050565b6104b3816104a1565b81146104bd575f80fd5b50565b5f813590506104ce816104aa565b92915050565b5f80fd5b5f80fd5b5f601f19601f8301169050919050565b7f4e487b71000000000000000000000000000000000000000000000000000000005f52604160045260245ffd5b610522826104dc565b810181811067ffffffffffffffff82111715610541576105406104ec565b5b80604052505050565b5f610553610490565b905061055f8282610519565b919050565b5f67ffffffffffffffff82111561057e5761057d6104ec565b5b610587826104dc565b9050602081019050919050565b828183375f83830152505050565b5f6105b46105af84610564565b61054a565b9050828152602081018484840111156105d0576105cf6104d8565b5b6105db848285610594565b509392505050565b5f82601f8301126105f7576105f66104d4565b5b81356106078482602086016105a2565b91505092915050565b5f805f805f8060c0878903121561062a57610629610499565b5b5f61063789828a016104c0565b965050602087013567ffffffffffffffff8111156106585761065761049d565b5b61066489828a016105e3565b955050604087013567ffffffffffffffff8111156106855761068461049d565b5b61069189828a016105e3565b945050606087013567ffffffffffffffff8111156106b2576106b161049d565b5b6106be89828a016105e3565b935050608087013567ffffffffffffffff8111156106df576106de61049d565b5b6106eb89828a016105e3565b92505060a06106fc89828a016104c0565b9150509295509295509295565b5f6020828403121561071e5761071d610499565b5b5f61072b848285016104c0565b91505092915050565b5f73ffffffffffffffffffffffffffffffffffffffff82169050919050565b5f61075d82610734565b9050919050565b61076d81610753565b82525050565b5f81519050919050565b5f82825260208201905092915050565b5f5b838110156107aa57808201518184015260208101905061078f565b5f8484015250505050565b5f6107bf82610773565b6107c9818561077d565b93506107d981856020860161078d565b6107e2816104dc565b840191505092915050565b6107f6816104a1565b82525050565b5f60e08201905061080f5f83018a610764565b818103602083015261082181896107b5565b9050818103604083015261083581886107b5565b9050818103606083015261084981876107b5565b9050818103608083015261085d81866107b5565b905061086c60a08301856107ed565b61087960c08301846107ed565b98975050505050505050565b7f4e487b71000000000000000000000000000000000000000000000000000000005f52602260045260245ffd5b5f60028204905060018216806108c957607f821691505b6020821081036108dc576108db610885565b5b50919050565b5f819050815f5260205f209050919050565b5f6020601f8301049050919050565b5f82821b905092915050565b5f6008830261093e7fffffffffffffffffffffffffffffffffffffffffffffffffffffffffffffffff82610903565b6109488683610903565b95508019841693508086168417925050509392505050565b5f819050919050565b5f61098361097e610979846104a1565b610960565b6104a1565b9050919050565b5f819050919050565b61099c83610969565b6109b06109a88261098a565b84845461090f565b825550505050565b5f90565b6109c46109b8565b6109cf818484610993565b505050565b5b818110156109f2576109e75f826109bc565b6001810190506109d5565b5050565b601f821115610a3757610a08816108e2565b610a11846108f4565b81016020851015610a20578190505b610a34610a2c856108f4565b8301826109d4565b50505b505050565b5f82821c905092915050565b5f610a575f1984600802610a3c565b1980831691505092915050565b5f610a6f8383610a48565b9150826002028217905092915050565b610a8882610773565b67ffffffffffffffff811115610aa157610aa06104ec565b5b610aab82546108b2565b610ab68282856109f6565b5f60209050601f831160018114610ae7575f8415610ad5578287015190505b610adf8582610a64565b865550610b46565b601f198416610af5866108e2565b5f5b82811015610b1c57848901518255600182019150602085019450602081019050610af7565b86831015610b395784890151610b35601f891682610a48565b8355505b6001600288020188555050505b50505050505056fea2646970667358221220e8103048a8cc5c9a6dfe696dd3a6bda57331e238e8c1b6db81999ac3e57bc4a264736f6c63430008160033",
					"opcodes": "PUSH1 0x80 PUSH1 0x40 MSTORE CALLVALUE DUP1 ISZERO PUSH2 0xF JUMPI PUSH0 DUP1 REVERT JUMPDEST POP PUSH2 0xB84 DUP1 PUSH2 0x1D PUSH0 CODECOPY PUSH0 RETURN INVALID PUSH1 0x80 PUSH1 0x40 MSTORE CALLVALUE DUP1 ISZERO PUSH2 0xF JUMPI PUSH0 DUP1 REVERT JUMPDEST POP PUSH1 0x4 CALLDATASIZE LT PUSH2 0x34 JUMPI PUSH0 CALLDATALOAD PUSH1 0xE0 SHR DUP1 PUSH4 0xCABDE1CC EQ PUSH2 0x38 JUMPI DUP1 PUSH4 0xFFFA7E2E EQ PUSH2 0x54 JUMPI JUMPDEST PUSH0 DUP1 REVERT JUMPDEST PUSH2 0x52 PUSH1 0x4 DUP1 CALLDATASIZE SUB DUP2 ADD SWAP1 PUSH2 0x4D SWAP2 SWAP1 PUSH2 0x610 JUMP JUMPDEST PUSH2 0x8A JUMP JUMPDEST STOP JUMPDEST PUSH2 0x6E PUSH1 0x4 DUP1 CALLDATASIZE SUB DUP2 ADD SWAP1 PUSH2 0x69 SWAP2 SWAP1 PUSH2 0x709 JUMP JUMPDEST PUSH2 0x1A0 JUMP JUMPDEST PUSH1 0x40 MLOAD PUSH2 0x81 SWAP8 SWAP7 SWAP6 SWAP5 SWAP4 SWAP3 SWAP2 SWAP1 PUSH2 0x7FC JUMP JUMPDEST PUSH1 0x40 MLOAD DUP1 SWAP2 SUB SWAP1 RETURN JUMPDEST PUSH0 PUSH1 0x40 MLOAD DUP1 PUSH1 0xE0 ADD PUSH1 0x40 MSTORE DUP1 CALLER PUSH20 0xFFFFFFFFFFFFFFFFFFFFFFFFFFFFFFFFFFFFFFFF AND DUP2 MSTORE PUSH1 0x20 ADD DUP8 DUP2 MSTORE PUSH1 0x20 ADD DUP7 DUP2 MSTORE PUSH1 0x20 ADD DUP6 DUP2 MSTORE PUSH1 0x20 ADD DUP5 DUP2 MSTORE PUSH1 0x20 ADD DUP4 DUP2 MSTORE PUSH1 0x20 ADD DUP3 DUP2 MSTORE POP PUSH0 DUP1 DUP10 DUP2 MSTORE PUSH1 0x20 ADD SWAP1 DUP2 MSTORE PUSH1 0x20 ADD PUSH0 KECCAK256 PUSH0 DUP3 ADD MLOAD DUP2 PUSH0 ADD PUSH0 PUSH2 0x100 EXP DUP2 SLOAD DUP2 PUSH20 0xFFFFFFFFFFFFFFFFFFFFFFFFFFFFFFFFFFFFFFFF MUL NOT AND SWAP1 DUP4 PUSH20 0xFFFFFFFFFFFFFFFFFFFFFFFFFFFFFFFFFFFFFFFF AND MUL OR SWAP1 SSTORE POP PUSH1 0x20 DUP3 ADD MLOAD DUP2 PUSH1 0x1 ADD SWAP1 DUP2 PUSH2 0x13D SWAP2 SWAP1 PUSH2 0xA7F JUMP JUMPDEST POP PUSH1 0x40 DUP3 ADD MLOAD DUP2 PUSH1 0x2 ADD SWAP1 DUP2 PUSH2 0x153 SWAP2 SWAP1 PUSH2 0xA7F JUMP JUMPDEST POP PUSH1 0x60 DUP3 ADD MLOAD DUP2 PUSH1 0x3 ADD SWAP1 DUP2 PUSH2 0x169 SWAP2 SWAP1 PUSH2 0xA7F JUMP JUMPDEST POP PUSH1 0x80 DUP3 ADD MLOAD DUP2 PUSH1 0x4 ADD SWAP1 DUP2 PUSH2 0x17F SWAP2 SWAP1 PUSH2 0xA7F JUMP JUMPDEST POP PUSH1 0xA0 DUP3 ADD MLOAD DUP2 PUSH1 0x5 ADD SSTORE PUSH1 0xC0 DUP3 ADD MLOAD DUP2 PUSH1 0x6 ADD SSTORE SWAP1 POP POP POP POP POP POP POP POP POP JUMP JUMPDEST PUSH0 PUSH1 0x60 DUP1 PUSH1 0x60 DUP1 PUSH0 DUP1 PUSH0 DUP1 DUP10 DUP2 MSTORE PUSH1 0x20 ADD SWAP1 DUP2 MSTORE PUSH1 0x20 ADD PUSH0 KECCAK256 PUSH0 ADD PUSH0 SWAP1 SLOAD SWAP1 PUSH2 0x100 EXP SWAP1 DIV PUSH20 0xFFFFFFFFFFFFFFFFFFFFFFFFFFFFFFFFFFFFFFFF AND PUSH0 DUP1 DUP11 DUP2 MSTORE PUSH1 0x20 ADD SWAP1 DUP2 MSTORE PUSH1 0x20 ADD PUSH0 KECCAK256 PUSH1 0x1 ADD PUSH0 DUP1 DUP12 DUP2 MSTORE PUSH1 0x20 ADD SWAP1 DUP2 MSTORE PUSH1 0x20 ADD PUSH0 KECCAK256 PUSH1 0x2 ADD PUSH0 DUP1 DUP13 DUP2 MSTORE PUSH1 0x20 ADD SWAP1 DUP2 MSTORE PUSH1 0x20 ADD PUSH0 KECCAK256 PUSH1 0x3 ADD PUSH0 DUP1 DUP14 DUP2 MSTORE PUSH1 0x20 ADD SWAP1 DUP2 MSTORE PUSH1 0x20 ADD PUSH0 KECCAK256 PUSH1 0x4 ADD PUSH0 DUP1 DUP15 DUP2 MSTORE PUSH1 0x20 ADD SWAP1 DUP2 MSTORE PUSH1 0x20 ADD PUSH0 KECCAK256 PUSH1 0x5 ADD SLOAD PUSH0 DUP1 DUP16 DUP2 MSTORE PUSH1 0x20 ADD SWAP1 DUP2 MSTORE PUSH1 0x20 ADD PUSH0 KECCAK256 PUSH1 0x6 ADD SLOAD DUP6 DUP1 SLOAD PUSH2 0x25B SWAP1 PUSH2 0x8B2 JUMP JUMPDEST DUP1 PUSH1 0x1F ADD PUSH1 0x20 DUP1 SWAP2 DIV MUL PUSH1 0x20 ADD PUSH1 0x40 MLOAD SWAP1 DUP2 ADD PUSH1 0x40 MSTORE DUP1 SWAP3 SWAP2 SWAP1 DUP2 DUP2 MSTORE PUSH1 0x20 ADD DUP3 DUP1 SLOAD PUSH2 0x287 SWAP1 PUSH2 0x8B2 JUMP JUMPDEST DUP1 ISZERO PUSH2 0x2D2 JUMPI DUP1 PUSH1 0x1F LT PUSH2 0x2A9 JUMPI PUSH2 0x100 DUP1 DUP4 SLOAD DIV MUL DUP4 MSTORE SWAP2 PUSH1 0x20 ADD SWAP2 PUSH2 0x2D2 JUMP JUMPDEST DUP3 ADD SWAP2 SWAP1 PUSH0 MSTORE PUSH1 0x20 PUSH0 KECCAK256 SWAP1 JUMPDEST DUP2 SLOAD DUP2 MSTORE SWAP1 PUSH1 0x1 ADD SWAP1 PUSH1 0x20 ADD DUP1 DUP4 GT PUSH2 0x2B5 JUMPI DUP3 SWAP1 SUB PUSH1 0x1F AND DUP3 ADD SWAP2 JUMPDEST POP POP POP POP POP SWAP6 POP DUP5 DUP1 SLOAD PUSH2 0x2E5 SWAP1 PUSH2 0x8B2 JUMP JUMPDEST DUP1 PUSH1 0x1F ADD PUSH1 0x20 DUP1 SWAP2 DIV MUL PUSH1 0x20 ADD PUSH1 0x40 MLOAD SWAP1 DUP2 ADD PUSH1 0x40 MSTORE DUP1 SWAP3 SWAP2 SWAP1 DUP2 DUP2 MSTORE PUSH1 0x20 ADD DUP3 DUP1 SLOAD PUSH2 0x311 SWAP1 PUSH2 0x8B2 JUMP JUMPDEST DUP1 ISZERO PUSH2 0x35C JUMPI DUP1 PUSH1 0x1F LT PUSH2 0x333 JUMPI PUSH2 0x100 DUP1 DUP4 SLOAD DIV MUL DUP4 MSTORE SWAP2 PUSH1 0x20 ADD SWAP2 PUSH2 0x35C JUMP JUMPDEST DUP3 ADD SWAP2 SWAP1 PUSH0 MSTORE PUSH1 0x20 PUSH0 KECCAK256 SWAP1 JUMPDEST DUP2 SLOAD DUP2 MSTORE SWAP1 PUSH1 0x1 ADD SWAP1 PUSH1 0x20 ADD DUP1 DUP4 GT PUSH2 0x33F JUMPI DUP3 SWAP1 SUB PUSH1 0x1F AND DUP3 ADD SWAP2 JUMPDEST POP POP POP POP POP SWAP5 POP DUP4 DUP1 SLOAD PUSH2 0x36F SWAP1 PUSH2 0x8B2 JUMP JUMPDEST DUP1 PUSH1 0x1F ADD PUSH1 0x20 DUP1 SWAP2 DIV MUL PUSH1 0x20 ADD PUSH1 0x40 MLOAD SWAP1 DUP2 ADD PUSH1 0x40 MSTORE DUP1 SWAP3 SWAP2 SWAP1 DUP2 DUP2 MSTORE PUSH1 0x20 ADD DUP3 DUP1 SLOAD PUSH2 0x39B SWAP1 PUSH2 0x8B2 JUMP JUMPDEST DUP1 ISZERO PUSH2 0x3E6 JUMPI DUP1 PUSH1 0x1F LT PUSH2 0x3BD JUMPI PUSH2 0x100 DUP1 DUP4 SLOAD DIV MUL DUP4 MSTORE SWAP2 PUSH1 0x20 ADD SWAP2 PUSH2 0x3E6 JUMP JUMPDEST DUP3 ADD SWAP2 SWAP1 PUSH0 MSTORE PUSH1 0x20 PUSH0 KECCAK256 SWAP1 JUMPDEST DUP2 SLOAD DUP2 MSTORE SWAP1 PUSH1 0x1 ADD SWAP1 PUSH1 0x20 ADD DUP1 DUP4 GT PUSH2 0x3C9 JUMPI DUP3 SWAP1 SUB PUSH1 0x1F AND DUP3 ADD SWAP2 JUMPDEST POP POP POP POP POP SWAP4 POP DUP3 DUP1 SLOAD PUSH2 0x3F9 SWAP1 PUSH2 0x8B2 JUMP JUMPDEST DUP1 PUSH1 0x1F ADD PUSH1 0x20 DUP1 SWAP2 DIV MUL PUSH1 0x20 ADD PUSH1 0x40 MLOAD SWAP1 DUP2 ADD PUSH1 0x40 MSTORE DUP1 SWAP3 SWAP2 SWAP1 DUP2 DUP2 MSTORE PUSH1 0x20 ADD DUP3 DUP1 SLOAD PUSH2 0x425 SWAP1 PUSH2 0x8B2 JUMP JUMPDEST DUP1 ISZERO PUSH2 0x470 JUMPI DUP1 PUSH1 0x1F LT PUSH2 0x447 JUMPI PUSH2 0x100 DUP1 DUP4 SLOAD DIV MUL DUP4 MSTORE SWAP2 PUSH1 0x20 ADD SWAP2 PUSH2 0x470 JUMP JUMPDEST DUP3 ADD SWAP2 SWAP1 PUSH0 MSTORE PUSH1 0x20 PUSH0 KECCAK256 SWAP1 JUMPDEST DUP2 SLOAD DUP2 MSTORE SWAP1 PUSH1 0x1 ADD SWAP1 PUSH1 0x20 ADD DUP1 DUP4 GT PUSH2 0x453 JUMPI DUP3 SWAP1 SUB PUSH1 0x1F AND DUP3 ADD SWAP2 JUMPDEST POP POP POP POP POP SWAP3 POP SWAP7 POP SWAP7 POP SWAP7 POP SWAP7 POP SWAP7 POP SWAP7 POP SWAP7 POP SWAP2 SWAP4 SWAP6 SWAP8 SWAP1 SWAP3 SWAP5 SWAP7 POP JUMP JUMPDEST PUSH0 PUSH1 0x40 MLOAD SWAP1 POP SWAP1 JUMP JUMPDEST PUSH0 DUP1 REVERT JUMPDEST PUSH0 DUP1 REVERT JUMPDEST PUSH0 DUP2 SWAP1 POP SWAP2 SWAP1 POP JUMP JUMPDEST PUSH2 0x4B3 DUP2 PUSH2 0x4A1 JUMP JUMPDEST DUP2 EQ PUSH2 0x4BD JUMPI PUSH0 DUP1 REVERT JUMPDEST POP JUMP JUMPDEST PUSH0 DUP2 CALLDATALOAD SWAP1 POP PUSH2 0x4CE DUP2 PUSH2 0x4AA JUMP JUMPDEST SWAP3 SWAP2 POP POP JUMP JUMPDEST PUSH0 DUP1 REVERT JUMPDEST PUSH0 DUP1 REVERT JUMPDEST PUSH0 PUSH1 0x1F NOT PUSH1 0x1F DUP4 ADD AND SWAP1 POP SWAP2 SWAP1 POP JUMP JUMPDEST PUSH32 0x4E487B7100000000000000000000000000000000000000000000000000000000 PUSH0 MSTORE PUSH1 0x41 PUSH1 0x4 MSTORE PUSH1 0x24 PUSH0 REVERT JUMPDEST PUSH2 0x522 DUP3 PUSH2 0x4DC JUMP JUMPDEST DUP2 ADD DUP2 DUP2 LT PUSH8 0xFFFFFFFFFFFFFFFF DUP3 GT OR ISZERO PUSH2 0x541 JUMPI PUSH2 0x540 PUSH2 0x4EC JUMP JUMPDEST JUMPDEST DUP1 PUSH1 0x40 MSTORE POP POP POP JUMP JUMPDEST PUSH0 PUSH2 0x553 PUSH2 0x490 JUMP JUMPDEST SWAP1 POP PUSH2 0x55F DUP3 DUP3 PUSH2 0x519 JUMP JUMPDEST SWAP2 SWAP1 POP JUMP JUMPDEST PUSH0 PUSH8 0xFFFFFFFFFFFFFFFF DUP3 GT ISZERO PUSH2 0x57E JUMPI PUSH2 0x57D PUSH2 0x4EC JUMP JUMPDEST JUMPDEST PUSH2 0x587 DUP3 PUSH2 0x4DC JUMP JUMPDEST SWAP1 POP PUSH1 0x20 DUP2 ADD SWAP1 POP SWAP2 SWAP1 POP JUMP JUMPDEST DUP3 DUP2 DUP4 CALLDATACOPY PUSH0 DUP4 DUP4 ADD MSTORE POP POP POP JUMP JUMPDEST PUSH0 PUSH2 0x5B4 PUSH2 0x5AF DUP5 PUSH2 0x564 JUMP JUMPDEST PUSH2 0x54A JUMP JUMPDEST SWAP1 POP DUP3 DUP2 MSTORE PUSH1 0x20 DUP2 ADD DUP5 DUP5 DUP5 ADD GT ISZERO PUSH2 0x5D0 JUMPI PUSH2 0x5CF PUSH2 0x4D8 JUMP JUMPDEST JUMPDEST PUSH2 0x5DB DUP5 DUP3 DUP6 PUSH2 0x594 JUMP JUMPDEST POP SWAP4 SWAP3 POP POP POP JUMP JUMPDEST PUSH0 DUP3 PUSH1 0x1F DUP4 ADD SLT PUSH2 0x5F7 JUMPI PUSH2 0x5F6 PUSH2 0x4D4 JUMP JUMPDEST JUMPDEST DUP2 CALLDATALOAD PUSH2 0x607 DUP5 DUP3 PUSH1 0x20 DUP7 ADD PUSH2 0x5A2 JUMP JUMPDEST SWAP2 POP POP SWAP3 SWAP2 POP POP JUMP JUMPDEST PUSH0 DUP1 PUSH0 DUP1 PUSH0 DUP1 PUSH1 0xC0 DUP8 DUP10 SUB SLT ISZERO PUSH2 0x62A JUMPI PUSH2 0x629 PUSH2 0x499 JUMP JUMPDEST JUMPDEST PUSH0 PUSH2 0x637 DUP10 DUP3 DUP11 ADD PUSH2 0x4C0 JUMP JUMPDEST SWAP7 POP POP PUSH1 0x20 DUP8 ADD CALLDATALOAD PUSH8 0xFFFFFFFFFFFFFFFF DUP2 GT ISZERO PUSH2 0x658 JUMPI PUSH2 0x657 PUSH2 0x49D JUMP JUMPDEST JUMPDEST PUSH2 0x664 DUP10 DUP3 DUP11 ADD PUSH2 0x5E3 JUMP JUMPDEST SWAP6 POP POP PUSH1 0x40 DUP8 ADD CALLDATALOAD PUSH8 0xFFFFFFFFFFFFFFFF DUP2 GT ISZERO PUSH2 0x685 JUMPI PUSH2 0x684 PUSH2 0x49D JUMP JUMPDEST JUMPDEST PUSH2 0x691 DUP10 DUP3 DUP11 ADD PUSH2 0x5E3 JUMP JUMPDEST SWAP5 POP POP PUSH1 0x60 DUP8 ADD CALLDATALOAD PUSH8 0xFFFFFFFFFFFFFFFF DUP2 GT ISZERO PUSH2 0x6B2 JUMPI PUSH2 0x6B1 PUSH2 0x49D JUMP JUMPDEST JUMPDEST PUSH2 0x6BE DUP10 DUP3 DUP11 ADD PUSH2 0x5E3 JUMP JUMPDEST SWAP4 POP POP PUSH1 0x80 DUP8 ADD CALLDATALOAD PUSH8 0xFFFFFFFFFFFFFFFF DUP2 GT ISZERO PUSH2 0x6DF JUMPI PUSH2 0x6DE PUSH2 0x49D JUMP JUMPDEST JUMPDEST PUSH2 0x6EB DUP10 DUP3 DUP11 ADD PUSH2 0x5E3 JUMP JUMPDEST SWAP3 POP POP PUSH1 0xA0 PUSH2 0x6FC DUP10 DUP3 DUP11 ADD PUSH2 0x4C0 JUMP JUMPDEST SWAP2 POP POP SWAP3 SWAP6 POP SWAP3 SWAP6 POP SWAP3 SWAP6 JUMP JUMPDEST PUSH0 PUSH1 0x20 DUP3 DUP5 SUB SLT ISZERO PUSH2 0x71E JUMPI PUSH2 0x71D PUSH2 0x499 JUMP JUMPDEST JUMPDEST PUSH0 PUSH2 0x72B DUP5 DUP3 DUP6 ADD PUSH2 0x4C0 JUMP JUMPDEST SWAP2 POP POP SWAP3 SWAP2 POP POP JUMP JUMPDEST PUSH0 PUSH20 0xFFFFFFFFFFFFFFFFFFFFFFFFFFFFFFFFFFFFFFFF DUP3 AND SWAP1 POP SWAP2 SWAP1 POP JUMP JUMPDEST PUSH0 PUSH2 0x75D DUP3 PUSH2 0x734 JUMP JUMPDEST SWAP1 POP SWAP2 SWAP1 POP JUMP JUMPDEST PUSH2 0x76D DUP2 PUSH2 0x753 JUMP JUMPDEST DUP3 MSTORE POP POP JUMP JUMPDEST PUSH0 DUP2 MLOAD SWAP1 POP SWAP2 SWAP1 POP JUMP JUMPDEST PUSH0 DUP3 DUP3 MSTORE PUSH1 0x20 DUP3 ADD SWAP1 POP SWAP3 SWAP2 POP POP JUMP JUMPDEST PUSH0 JUMPDEST DUP4 DUP2 LT ISZERO PUSH2 0x7AA JUMPI DUP1 DUP3 ADD MLOAD DUP2 DUP5 ADD MSTORE PUSH1 0x20 DUP2 ADD SWAP1 POP PUSH2 0x78F JUMP JUMPDEST PUSH0 DUP5 DUP5 ADD MSTORE POP POP POP POP JUMP JUMPDEST PUSH0 PUSH2 0x7BF DUP3 PUSH2 0x773 JUMP JUMPDEST PUSH2 0x7C9 DUP2 DUP6 PUSH2 0x77D JUMP JUMPDEST SWAP4 POP PUSH2 0x7D9 DUP2 DUP6 PUSH1 0x20 DUP7 ADD PUSH2 0x78D JUMP JUMPDEST PUSH2 0x7E2 DUP2 PUSH2 0x4DC JUMP JUMPDEST DUP5 ADD SWAP2 POP POP SWAP3 SWAP2 POP POP JUMP JUMPDEST PUSH2 0x7F6 DUP2 PUSH2 0x4A1 JUMP JUMPDEST DUP3 MSTORE POP POP JUMP JUMPDEST PUSH0 PUSH1 0xE0 DUP3 ADD SWAP1 POP PUSH2 0x80F PUSH0 DUP4 ADD DUP11 PUSH2 0x764 JUMP JUMPDEST DUP2 DUP2 SUB PUSH1 0x20 DUP4 ADD MSTORE PUSH2 0x821 DUP2 DUP10 PUSH2 0x7B5 JUMP JUMPDEST SWAP1 POP DUP2 DUP2 SUB PUSH1 0x40 DUP4 ADD MSTORE PUSH2 0x835 DUP2 DUP9 PUSH2 0x7B5 JUMP JUMPDEST SWAP1 POP DUP2 DUP2 SUB PUSH1 0x60 DUP4 ADD MSTORE PUSH2 0x849 DUP2 DUP8 PUSH2 0x7B5 JUMP JUMPDEST SWAP1 POP DUP2 DUP2 SUB PUSH1 0x80 DUP4 ADD MSTORE PUSH2 0x85D DUP2 DUP7 PUSH2 0x7B5 JUMP JUMPDEST SWAP1 POP PUSH2 0x86C PUSH1 0xA0 DUP4 ADD DUP6 PUSH2 0x7ED JUMP JUMPDEST PUSH2 0x879 PUSH1 0xC0 DUP4 ADD DUP5 PUSH2 0x7ED JUMP JUMPDEST SWAP9 SWAP8 POP POP POP POP POP POP POP POP JUMP JUMPDEST PUSH32 0x4E487B7100000000000000000000000000000000000000000000000000000000 PUSH0 MSTORE PUSH1 0x22 PUSH1 0x4 MSTORE PUSH1 0x24 PUSH0 REVERT JUMPDEST PUSH0 PUSH1 0x2 DUP3 DIV SWAP1 POP PUSH1 0x1 DUP3 AND DUP1 PUSH2 0x8C9 JUMPI PUSH1 0x7F DUP3 AND SWAP2 POP JUMPDEST PUSH1 0x20 DUP3 LT DUP2 SUB PUSH2 0x8DC JUMPI PUSH2 0x8DB PUSH2 0x885 JUMP JUMPDEST JUMPDEST POP SWAP2 SWAP1 POP JUMP JUMPDEST PUSH0 DUP2 SWAP1 POP DUP2 PUSH0 MSTORE PUSH1 0x20 PUSH0 KECCAK256 SWAP1 POP SWAP2 SWAP1 POP JUMP JUMPDEST PUSH0 PUSH1 0x20 PUSH1 0x1F DUP4 ADD DIV SWAP1 POP SWAP2 SWAP1 POP JUMP JUMPDEST PUSH0 DUP3 DUP3 SHL SWAP1 POP SWAP3 SWAP2 POP POP JUMP JUMPDEST PUSH0 PUSH1 0x8 DUP4 MUL PUSH2 0x93E PUSH32 0xFFFFFFFFFFFFFFFFFFFFFFFFFFFFFFFFFFFFFFFFFFFFFFFFFFFFFFFFFFFFFFFF DUP3 PUSH2 0x903 JUMP JUMPDEST PUSH2 0x948 DUP7 DUP4 PUSH2 0x903 JUMP JUMPDEST SWAP6 POP DUP1 NOT DUP5 AND SWAP4 POP DUP1 DUP7 AND DUP5 OR SWAP3 POP POP POP SWAP4 SWAP3 POP POP POP JUMP JUMPDEST PUSH0 DUP2 SWAP1 POP SWAP2 SWAP1 POP JUMP JUMPDEST PUSH0 PUSH2 0x983 PUSH2 0x97E PUSH2 0x979 DUP5 PUSH2 0x4A1 JUMP JUMPDEST PUSH2 0x960 JUMP JUMPDEST PUSH2 0x4A1 JUMP JUMPDEST SWAP1 POP SWAP2 SWAP1 POP JUMP JUMPDEST PUSH0 DUP2 SWAP1 POP SWAP2 SWAP1 POP JUMP JUMPDEST PUSH2 0x99C DUP4 PUSH2 0x969 JUMP JUMPDEST PUSH2 0x9B0 PUSH2 0x9A8 DUP3 PUSH2 0x98A JUMP JUMPDEST DUP5 DUP5 SLOAD PUSH2 0x90F JUMP JUMPDEST DUP3 SSTORE POP POP POP POP JUMP JUMPDEST PUSH0 SWAP1 JUMP JUMPDEST PUSH2 0x9C4 PUSH2 0x9B8 JUMP JUMPDEST PUSH2 0x9CF DUP2 DUP5 DUP5 PUSH2 0x993 JUMP JUMPDEST POP POP POP JUMP JUMPDEST JUMPDEST DUP2 DUP2 LT ISZERO PUSH2 0x9F2 JUMPI PUSH2 0x9E7 PUSH0 DUP3 PUSH2 0x9BC JUMP JUMPDEST PUSH1 0x1 DUP2 ADD SWAP1 POP PUSH2 0x9D5 JUMP JUMPDEST POP POP JUMP JUMPDEST PUSH1 0x1F DUP3 GT ISZERO PUSH2 0xA37 JUMPI PUSH2 0xA08 DUP2 PUSH2 0x8E2 JUMP JUMPDEST PUSH2 0xA11 DUP5 PUSH2 0x8F4 JUMP JUMPDEST DUP2 ADD PUSH1 0x20 DUP6 LT ISZERO PUSH2 0xA20 JUMPI DUP2 SWAP1 POP JUMPDEST PUSH2 0xA34 PUSH2 0xA2C DUP6 PUSH2 0x8F4 JUMP JUMPDEST DUP4 ADD DUP3 PUSH2 0x9D4 JUMP JUMPDEST POP POP JUMPDEST POP POP POP JUMP JUMPDEST PUSH0 DUP3 DUP3 SHR SWAP1 POP SWAP3 SWAP2 POP POP JUMP JUMPDEST PUSH0 PUSH2 0xA57 PUSH0 NOT DUP5 PUSH1 0x8 MUL PUSH2 0xA3C JUMP JUMPDEST NOT DUP1 DUP4 AND SWAP2 POP POP SWAP3 SWAP2 POP POP JUMP JUMPDEST PUSH0 PUSH2 0xA6F DUP4 DUP4 PUSH2 0xA48 JUMP JUMPDEST SWAP2 POP DUP3 PUSH1 0x2 MUL DUP3 OR SWAP1 POP SWAP3 SWAP2 POP POP JUMP JUMPDEST PUSH2 0xA88 DUP3 PUSH2 0x773 JUMP JUMPDEST PUSH8 0xFFFFFFFFFFFFFFFF DUP2 GT ISZERO PUSH2 0xAA1 JUMPI PUSH2 0xAA0 PUSH2 0x4EC JUMP JUMPDEST JUMPDEST PUSH2 0xAAB DUP3 SLOAD PUSH2 0x8B2 JUMP JUMPDEST PUSH2 0xAB6 DUP3 DUP3 DUP6 PUSH2 0x9F6 JUMP JUMPDEST PUSH0 PUSH1 0x20 SWAP1 POP PUSH1 0x1F DUP4 GT PUSH1 0x1 DUP2 EQ PUSH2 0xAE7 JUMPI PUSH0 DUP5 ISZERO PUSH2 0xAD5 JUMPI DUP3 DUP8 ADD MLOAD SWAP1 POP JUMPDEST PUSH2 0xADF DUP6 DUP3 PUSH2 0xA64 JUMP JUMPDEST DUP7 SSTORE POP PUSH2 0xB46 JUMP JUMPDEST PUSH1 0x1F NOT DUP5 AND PUSH2 0xAF5 DUP7 PUSH2 0x8E2 JUMP JUMPDEST PUSH0 JUMPDEST DUP3 DUP2 LT ISZERO PUSH2 0xB1C JUMPI DUP5 DUP10 ADD MLOAD DUP3 SSTORE PUSH1 0x1 DUP3 ADD SWAP2 POP PUSH1 0x20 DUP6 ADD SWAP5 POP PUSH1 0x20 DUP2 ADD SWAP1 POP PUSH2 0xAF7 JUMP JUMPDEST DUP7 DUP4 LT ISZERO PUSH2 0xB39 JUMPI DUP5 DUP10 ADD MLOAD PUSH2 0xB35 PUSH1 0x1F DUP10 AND DUP3 PUSH2 0xA48 JUMP JUMPDEST DUP4 SSTORE POP JUMPDEST PUSH1 0x1 PUSH1 0x2 DUP9 MUL ADD DUP9 SSTORE POP POP POP JUMPDEST POP POP POP POP POP POP JUMP INVALID LOG2 PUSH5 0x6970667358 0x22 SLT KECCAK256 0xE8 LT ADDRESS BASEFEE 0xA8 0xCC 0x5C SWAP11 PUSH14 0xFE696DD3A6BDA57331E238E8C1B6 0xDB DUP2 SWAP10 SWAP11 0xC3 0xE5 PUSH28 0xC4A264736F6C63430008160033000000000000000000000000000000 "
				},
				"gasEstimates": {
					"creation": {
						"codeDepositCost": "589600",
						"executionCost": "623",
						"totalCost": "590223"
					},
					"external": {
						"readProduct(uint256)": "infinite",
						"writeProduct(uint256,string,string,string,string,uint256)": "infinite"
					}
				},
				"methodIdentifiers": {
					"readProduct(uint256)": "fffa7e2e",
					"writeProduct(uint256,string,string,string,string,uint256)": "cabde1cc"
				}
			},
			"storageLayout": {
				"storage": [
					{
						"astId": 21,
						"contract": "smart-contract/save_multiple_variables_with structs.sol:Marketplace",
						"label": "products",
						"offset": 0,
						"slot": "0",
						"type": "t_mapping(t_uint256,t_struct(Product)16_storage)"
					}
				],
				"types": {
					"t_address_payable": {
						"encoding": "inplace",
						"label": "address payable",
						"numberOfBytes": "20"
					},
					"t_mapping(t_uint256,t_struct(Product)16_storage)": {
						"encoding": "mapping",
						"key": "t_uint256",
						"label": "mapping(uint256 => struct Marketplace.Product)",
						"numberOfBytes": "32",
						"value": "t_struct(Product)16_storage"
					},
					"t_string_storage": {
						"encoding": "bytes",
						"label": "string",
						"numberOfBytes": "32"
					},
					"t_struct(Product)16_storage": {
						"encoding": "inplace",
						"label": "struct Marketplace.Product",
						"members": [
							{
								"astId": 3,
								"contract": "smart-contract/save_multiple_variables_with structs.sol:Marketplace",
								"label": "owner",
								"offset": 0,
								"slot": "0",
								"type": "t_address_payable"
							},
							{
								"astId": 5,
								"contract": "smart-contract/save_multiple_variables_with structs.sol:Marketplace",
								"label": "name",
								"offset": 0,
								"slot": "1",
								"type": "t_string_storage"
							},
							{
								"astId": 7,
								"contract": "smart-contract/save_multiple_variables_with structs.sol:Marketplace",
								"label": "image",
								"offset": 0,
								"slot": "2",
								"type": "t_string_storage"
							},
							{
								"astId": 9,
								"contract": "smart-contract/save_multiple_variables_with structs.sol:Marketplace",
								"label": "description",
								"offset": 0,
								"slot": "3",
								"type": "t_string_storage"
							},
							{
								"astId": 11,
								"contract": "smart-contract/save_multiple_variables_with structs.sol:Marketplace",
								"label": "location",
								"offset": 0,
								"slot": "4",
								"type": "t_string_storage"
							},
							{
								"astId": 13,
								"contract": "smart-contract/save_multiple_variables_with structs.sol:Marketplace",
								"label": "price",
								"offset": 0,
								"slot": "5",
								"type": "t_uint256"
							},
							{
								"astId": 15,
								"contract": "smart-contract/save_multiple_variables_with structs.sol:Marketplace",
								"label": "sold",
								"offset": 0,
								"slot": "6",
								"type": "t_uint256"
							}
						],
						"numberOfBytes": "224"
					},
					"t_uint256": {
						"encoding": "inplace",
						"label": "uint256",
						"numberOfBytes": "32"
					}
				}
			},
			"userdoc": {
				"kind": "user",
				"methods": {},
				"version": 1
			}
		}
	}
}